:020000040000FA
:060000000A128A110C280F
:10000800FE00030EF0000A08F1000A128A11B7294F
:100018000A128A110F28F601F701F801F901830184
:100028000A128A117529F4008228831203139F1279
:100038001F129F111F11B628831203139F121F123C
:100048009F111F15B628831203139F121F129F15A5
:100058001F11B628831203139F121F129F151F1515
:10006800B628831203139F121F169F111F11B6285B
:10007800831203139F121F169F111F15B628831290
:1000880003139F121F169F151F11B62883120313FF
:100098009F121F169F151F15B628831203139F164C
:1000A8001F129F111F11B628831203139F161F12C8
:1000B8009F111F15B628831203139F161F129F1531
:1000C8001F11B628831203139F161F129F151F15A1
:1000D800B628831203139F161F169F111F11B628E7
:1000E800831203139F161F169F111F15B62883121C
:1000F80003139F161F169F151F11B6287408F200C8
:10010800F3017308003A03198A287B287208003A19
:1001180003191928013A03192028033A0319272833
:10012800013A03192E28073A03193528013A031909
:100138003C28033A03194328013A03194A280F3A7D
:1001480003195128013A03195828033A03195F285B
:10015800013A03196628073A03196D28013A031969
:1001680074287B289F171F139F101F1483160313CF
:100178009F139F121F120800F5008316031385169C
:10018800871207168715F228831203139411141186
:100198009410141026298312031394111411941027
:1001A800141426298312031394111411941414108F
:1001B8002629831203139411141194141414262954
:1001C8008312031394111415941014102629831202
:1001D8000313941114159410141426297508F300A8
:1001E800F4017408003A0319FA2826297308003A1A
:1001F8000319C828013A0319CF28033A0319D62846
:10020800013A0319DD28073A0319E428013A0319CA
:10021800EB282629831214128316031314133C297E
:10022800831214168316031314133C298312141211
:100238008316031314173C29831214168316031309
:1002480014173C297208F300F4017408003A0319E2
:100258002E293C297308003A03190E29013A03197B
:100268001429033A03191A29013A031920293C29A8
:10027800831603139413831203139416080083162A
:100288000317880183160313850185168316031740
:100298008812831603130514831603170814831290
:1002A8000313850183160317890183160313860137
:1002B8008312031386018316031387018312031322
:1002C800870183160313871507168712880183127F
:1002D8000313880183160313890183120313890109
:1002E80008000A128A1143210A128A110A128A1175
:1002F800D1210A128A110A128A11C5210A128A11F9
:100308000A128A11E3210A128A110A128A11DB21C0
:100318000A128A1100300A128A1117200A128A1149
:100328000A128A119D210A128A118E290A128A112B
:100338000C28831203139F140D30F300FB30F200D6
:10034800F20BA429F30BA429A929831203139F18DC
:10035800AE29AF29B6299F141E08F2007208F800CA
:100368001E0888000800831203138C1EBC29BD29AF
:10037800BE298C1271088A00700E8300FE0E7E0E54
:1003880009008B130B138B120B128B110B118B1093
:100398000B108316031396010800831603130F1717
:1003A8008F160F128F110F118F140F100800F20102
:1003B80004300A128A11C0200A128A11080000307B
:0C03C8000A128A1117200A128A1108007C
:04400E00D420FF3F7C
:00000001FF
