:020000040000FA
:060000000A128A110C280F
:10000800FE00030EF2000A08F3000A128A11A5295D
:100018000A128A110F28F601F701F801F901830184
:100028000A128A11192983120313A00066289F1245
:100038001F129F111F119A289F121F129F111F151F
:100048009A289F121F129F151F119A289F121F127C
:100058009F151F159A289F121F169F111F119A2866
:100068009F121F169F111F159A289F121F169F1562
:100078001F119A289F121F169F151F159A289F1641
:100088001F129F111F119A289F161F129F111F15CB
:100098009A289F161F129F151F119A289F161F1224
:1000A8009F151F159A289F161F169F111F119A2812
:1000B8009F161F169F111F159A289F161F169F150A
:1000C8001F119A282008F400F5017508003A031951
:1000D8006E2861287408003A03191B28013A03198D
:1000E8002028033A03192528013A03192A28073A30
:1000F80003192F28013A03193428033A0319392818
:10010800013A03193E280F3A03194328013A031903
:100118004828033A03194D28013A03195228073A87
:1001280003195728013A03195C2861289F171F13E0
:100138009F101F14831603139F139F121F1208008A
:10014800F500831603138516871207168715CA2824
:100158009411141194101410FC2894111411941073
:100168001414FC289411141194141410FC289411DC
:10017800141194141414FC289411141594101410C8
:10018800FC289411141594101414FC287508831273
:100198000313A000A1012108003A0319D428FC2860
:1001A8002008003A0319AC28013A0319B128033A88
:1001B8000319B628013A0319BB28073A0319C028BE
:1001C800013A0319C528FC281412831603131413C3
:1001D80012291416831603131413122914128316E2
:1001E800031314171229141683160313141712294C
:1001F8007408A000A1012108003A03190429122952
:100208002008003A0319E828013A0319ED28033AAF
:100218000319F228013A0319F72812298316031340
:10022800941383120313941608000A128A11542196
:100238000A128A110A128A11E0210A128A110A1274
:100248008A11D4210A128A110A128A11BA210A12B1
:100258008A110A128A11EA210A128A110A128A11CB
:10026800C7210A128A11831203138C1D3C293D29C8
:1002780037290A128A11F7210A128A1183120313E5
:10028800A3002308F60008080A128A11F1210A12AD
:100298008A11831203138C1137290A128A110C2828
:1002A800831603178801831603138501831203132A
:1002B8008501831603130514831603170814831680
:1002C80003138516831603178812831203138516E2
:1002D80083160317890183160313860183120313F8
:1002E800860183160313870183120313870183167C
:1002F80003138715071687128801831203138801D1
:1003080083160313890183120313890108008312DA
:1003180003139F141A30F100F830F000F00B922903
:10032800F10B92290000831203139F189C299D2921
:10033800A4299F141E08F0007008F8001E08880001
:1003480008000B1DA829A929B3290A128A118B2193
:100358000A128A110B116430831203138100730887
:100368008A00720E8300FE0E7E0E090083160313A8
:1003780081178112811101118114011064308312D7
:10038800031381000800023083120313A20022081D
:10039800F40004300A128A11A4200A128A110800F3
:1003A8008B170B178B160B128B110B118B100B1055
:1003B8008316031396010800831603130F178F166D
:1003C8000F128F110F118F140F10080000300A122E
:1003D8008A1117200A128A110800F400740883127F
:0E03E800031393000800831203131308080088
:04400E00D420FF3F7C
:00000001FF
