:020000040000FA
:060000000A128A110C280F
:10000800FE00030EF2000A08F3000A128A11E6291C
:100018000A128A110F28F701F801F90183010A125F
:100028008A113629F6008128831203139F121F12A2
:100038009F111F11B528831203139F121F129F11BE
:100048001F15B528831203139F121F129F151F1126
:10005800B528831203139F121F129F151F15B52869
:10006800831203139F121F169F111F11B5288312A5
:1000780003139F121F169F111F15B5288312031310
:100088009F121F169F151F11B528831203139F1265
:100098001F169F151F15B528831203139F161F12CD
:1000A8009F111F11B528831203139F161F129F114A
:1000B8001F15B528831203139F161F129F151F11B2
:1000C800B528831203139F161F129F151F15B528F5
:1000D800831203139F161F169F111F11B528831231
:1000E80003139F161F169F111F15B528831203139C
:1000F8009F161F169F151F11B5287608F400F501E5
:100108007508003A031989287A287408003A0319EF
:100118001828013A03191F28033A03192628013A17
:1001280003192D28073A03193428013A03193B28E3
:10013800033A03194228013A031949280F3A0319C7
:100148005028013A03195728033A03195E28013A3F
:1001580003196528073A03196C28013A031973280B
:100168007A289F171F139F101F14831603139F13BA
:100178009F121F12080083120313A0008316031393
:100188008516871207168715E728941114119410FD
:100198001410192994111411941014141929941174
:1001A800141194141410192994111411941414147A
:1001B800192994111415941014101929941114154F
:1001C800941014141929831203132008F500F6015A
:1001D8007608003A0319F12819297508003A031915
:1001E800C928013A0319CE28033A0319D328013A3A
:1001F8000319D828073A0319DD28013A0319E22818
:10020800192914128316031314132F29141683168D
:10021800031314132F2914128316031314172F29E9
:1002280014168316031314172F297408F500F60102
:100238007608003A031921292F297508003A03196D
:100248000529013A03190A29033A03190F29013A22
:10025800031914292F2983160313941383120313E4
:10026800941608000A128A1171210A128A110A12B8
:100278008A1121220A128A110A128A1115220A12D7
:100288008A110A128A11FB210A128A110A128A118A
:100298002B220A128A110A128A1108220A128A11BA
:1002A800831203138C1D59295A2954290A128A11B9
:1002B80038220A128A1183120313A2002208F700B7
:1002C80008080A128A1132220A128A1183120313A9
:1002D8008C1154290A128A110C28831603178801D5
:1002E80083160313850183120313850183160313F1
:1002F800051483160317081483160313851683162B
:1003080003178812831203138516831603178901AE
:1003180083160313860183120313860106108610C1
:100328000611831603138701871507168712831290
:1003380003138701831603138801831203138801AB
:1003480083160313890183120313890108000D30F2
:100358008312031308020318B229B329B729061513
:1003680086100610CA290D300802031CBC29BD29B5
:10037800C729133008020318C229C329C72906113F
:1003880086140610CA29061186100614080083125E
:1003980003139F141A30F100F830F000F00BD22943
:1003A800F10BD2290000831203139F18DC29DD29E1
:1003B800E5299F141E0888000A128A11AB210A1227
:1003C8008A1108000B1DE929EA29F4290A128A1161
:1003D800CB210A128A110B11643083120313810096
:1003E80073088A00720E8300FE0E7E0E09008316C3
:1003F80003138117811281110111811401106430D6
:100408008312031381000800023083120313A10032
:100418002108F40004300A128A11BF200A128A1136
:1004280008008B170B178B160B128B110B118B10E7
:100438000B108316031396010800831603130F1776
:100448008F160F128F110F118F140F100800003024
:100458000A128A1116200A128A110800F400740878
:100468008312031393000800831203131308080070
:04400E00D420FF3F7C
:00000001FF
