:020000040000FA
:060000000A128A1110280B
:10000800FE00030E83120313C9000A08CA007F0802
:10001800CB000A128A11A92F0A128A1113288312F7
:100028000313CC01CD01CE01CF01D001D10183163C
:100038000313A60183010A128A11B12E8312031336
:1000480023088039A8002808AD002308A80028073D
:10005800A9002908B300A21F3228332834283314F2
:1000680033080319382839284828330A031D3D283E
:100078003E2846280030A3000030A2000030A1002E
:100088000030A000A21750280030A3000030A200C2
:100098000030A1000030A00027088039A8002808F7
:1000A800AD062708A8002807A9002908B200A61F3E
:1000B8005E285F28602832143208031964286528EE
:1000C8007428320A031D69286A2872280030A7009C
:1000D8000030A6000030A5000030A400A6177C2838
:1000E8000030A7000030A6000030A5000030A400B2
:1000F800320803198028812886283308031D85289B
:1001080086288F280030A3000030A2000030A1000C
:100118000030A000822B2008A8002808F00026083C
:100128000A128A1162270A128A11710883120313AC
:10013800B9007008B8003808A800A901AA01AB01E5
:100148002B08B1002A08B0002908AF002808AE0023
:100158003908A800A901AA01AB012B08B7002A0891
:10016800B6002908B5002808B4002108A800280806
:10017800F00025080A128A1162270A128A117108EA
:1001880083120313B9007008B8003808A800A90141
:10019800AA01AB012808AE07290803110318013E7C
:1001A8000319D728AF072A0803110318013E0319BA
:1001B800DE28B0072B0803110318013E0319E528B0
:1001C800B1073908A800A901AA01AB012808B4079A
:1001D800290803110318013E0319F328B5072A0853
:1001E80003110318013E0319FA28B6072B08031157
:1001F8000318013E03190129B7072208A800280897
:10020800F00024080A128A1162270A128A1171085A
:1002180083120313B9007008B8003808A800A901B0
:10022800AA01AB012808AE07290803110318013EEB
:1002380003191F29AF072A0803110318013E0319E0
:100248002629B0072B0803110318013E03192D298D
:10025800B1073908A800A901AA01AB012808B40709
:10026800290803110318013E03193B29B5072A0879
:1002780003110318013E03194229B6072B0803117D
:100288000318013E03194929B7070830A8000310CD
:10029800AE0DAF0DB00DB10DA80B4B292108A8006C
:1002A8002808F00024080A128A1162270A128A1103
:1002B800710883120313B9007008B8003808A80041
:1002C8003908A900AA01AB012808AE0729080311BB
:1002D8000318013E03197129AF072A0803110318EF
:1002E800013E03197829B0072B0803110318013EB2
:1002F80003197F29B1072008A8002808F00025085D
:100308000A128A1162270A128A11710883120313CA
:10031800B9007008B8003808A8003908A900AA016F
:10032800AB012808AE07290803110318013E031979
:100338009E29AF072A0803110318013E0319A529AE
:10034800B0072B0803110318013E0319AC29B107A4
:100358000830A8000310AE0DAF0DB00DB10DA80BFD
:10036800AE292008A8002808F00024080A128A11DB
:1003780062270A128A11710883120313B9007008E0
:10038800B8003808A8003908A900AA01AB01280854
:10039800AE07290803110318013E0319D429AF0732
:1003A8002A0803110318013E0319DB29B0072B089B
:1003B80003110318013E0319E229B1072108A80017
:1003C8002808F00026080A128A1162270A128A11E0
:1003D800710883120313B9007008B8003808A80020
:1003E8003908A900AA01AB012808B4072908031194
:1003F8000318013E0319012AB5072A080311031837
:10040800013E0319082AB6072B0803110318013EF9
:1004180003190F2AB7072208A8002808F0002508A2
:100428000A128A1162270A128A11710883120313A9
:10043800B9007008B8003808A8003908A900AA014E
:10044800AB012808B407290803110318013E031952
:100458002E2AB5072A0803110318013E0319352A65
:10046800B6072B0803110318013E03193C2AB707E6
:100478002208A8002808F00026080A128A11622714
:100488000A128A11710883120313B9007008B800A0
:100498003808A8003908A900AA01AB0108300310E0
:1004A800A80DA90DAA0DAB0DFF3E031D532A280860
:1004B800B407290803110318013E0319642AB50774
:1004C8002A0803110318013E03196B2AB6072B08E3
:1004D80003110318013E0319722AB7072E08A80052
:1004E8002F08A9003008AA003108AB001830031003
:1004F800AB0CAA0CA90CA80CFF3E031D7B2A2808EC
:10050800B407290803110318013E03198C2AB507FB
:100518002A0803110318013E0319932AB6072B086A
:1005280003110318013E03199A2AB7070830A800D7
:100538000310AE0DAF0DB00DB10DA80B9C2A3308FA
:100548003207A800A901A90D2808823EB800290889
:100558000318013EFF3EB900CE2A0130A80003105F
:10056800B40DB50DB60DB70DA80BB32AB11FBD2A32
:10057800BE2ABF2A34140130A8000310AE0DAF0DF7
:10058800B00DB10DA80BC12AFF30B8070318B90A7E
:10059800FF30B907B61FD12AD22AB12AB201B11F3A
:1005A800D62AD72AF32AFF302E05A800FF302F05B8
:1005B800A900FF303005AA007F303105AB002B08B9
:1005C8002A04290428040319EA2AEB2AEE2AB2018C
:1005D800B20AF32A341CF12AF22AF32AEB2A320847
:1005E8000319F72AF82A292B0130B4070030031819
:1005F8000130B507003003180130B6070030031882
:100608000130B707371C092B0A2B292B3408A800FF
:100618003508A9003608AA003708AB000130AC003D
:100628002B0DAB0CAA0CA90CA80CAC0B142B2B088B
:10063800B7002A08B6002908B5002808B400013018
:10064800B8070318B90A0030B9073908803AFF001B
:1006580080307F02031D322BFF303802031C352BFC
:10066800362B412B7F3083120313B7008030B6003E
:100678000030B5000030B400762B8312031339081C
:10068800803AFF0080307F02031D4C2B0130380276
:1006980003184F2B502B5C2B003083120313B70029
:1006A8000030B6000030B5000030B400AD01762B44
:1006B800831203133808A8002808B300FF30B405D4
:1006C800FF30B5057F30B6050030B705331C6D2BFC
:1006D8006E2B6F2BB6173308A8000310280CA9003F
:1006E8002908B7002D08A8002808B7043708A30070
:1006F8003608A2003508A1003408A0000800F80058
:1007080078080319882B892B9D2BF31F8C2B8D2B95
:100718009D2B7009FA007109FB007209FC0073092E
:10072800FD00FA0A0319FB0A0319FC0A0319FD0A5A
:10073800A52B7308FD007208FC007108FB00700807
:10074800FA007308720471047004031DAC2BAD2BFE
:10075800B62B0030F3000030F2000030F10000301A
:10076800F0003C2C9630F4007408F900C82B0130D6
:10077800F4007408F90701300310FD0CFC0CFB0CA5
:10078800FA0CFF3E031DC02BFE307D05031DCD2B4B
:10079800CE2BBB2BEA2B0130F4007408F90701308B
:1007A800FA07003003180130FB0700300318013046
:1007B800FC07003003180130FD0701300310FD0C61
:1007C800FC0CFB0CFA0CFF3E031DE22BFF307D05F1
:1007D800031DEF2BF02BCF2BFC2B0130F90201303E
:1007E800F4000310FA0DFB0DFC0DFD0DF40BF52BB9
:1007F800FC1BFF2B002C062C023079020318052C59
:10080800062CF12B7918092C0A2C122CFF30FA052A
:10081800FF30FB057F30FC05FF30FD050310F90CA8
:100828007908F400F501F601F70118300310F40D0A
:10083800F50DF60DF70DFF3E031D1A2C7408FA048A
:100848007508FB047608FC047708FD04780803198A
:100858002E2C2F2C342CF31F322C332C342CFD1738
:100868007D08F3007C08F2007B08F1007A08F000AC
:10087800080083160313A200AA2C831203139F12E5
:100888001F129F111F11DE2C831203139F121F12B8
:100898009F111F15DE2C831203139F121F129F1521
:1008A8001F11DE2C831203139F121F129F151F1591
:1008B800DE2C831203139F121F169F111F11DE2CAB
:1008C800831203139F121F169F111F15DE2C83120C
:1008D80003139F121F169F151F11DE2C831203137B
:1008E8009F121F169F151F15DE2C831203139F16C8
:1008F8001F129F111F11DE2C831203139F161F1244
:100908009F111F15DE2C831203139F161F129F15AC
:100918001F11DE2C831203139F161F129F151F151C
:10092800DE2C831203139F161F169F111F11DE2C36
:10093800831203139F161F169F111F15DE2C831297
:1009480003139F161F169F151F11DE2C2208A000E7
:10095800A1012108003A0319B22CA32C2008003A5F
:100968000319412C013A0319482C033A03194F2C57
:10097800013A0319562C073A03195D2C013A031959
:10098800642C033A03196B2C013A0319722C0F3AA1
:100998000319792C013A0319802C033A0319872C7F
:1009A800013A03198E2C073A0319952C013A0319B9
:1009B8009C2CA32C9F171F139F101F14831603131F
:1009C8009F139F121F12080083160313A300851696
:1009D8008712071687151A2D831203139411141101
:1009E80094101410522D831203139411141194109F
:1009F8001414522D83120313941114119414141007
:100A0800522D831203139411141194141414522D9B
:100A1800831203139411141594101410522D831279
:100A280003139411141594101414522D2308A100C3
:100A3800A2012208003A0319222D522D2108003A5A
:100A48000319F02C013A0319F72C033A0319FE2C69
:100A5800013A0319052D073A03190C2D013A031918
:100A6800132D522D83120313141283160313141318
:100A78006A2D8312031314168316031314136A2D95
:100A88008312031314128316031314176A2D831287
:100A9800031314168316031314176A2D83160313EE
:100AA8002008A100A2012208003A03195C2D6A2D32
:100AB8002108003A0319362D013A03193D2D033A4E
:100AC8000319442D013A03194B2D6A2D94138312EF
:100AD800031394160800831203139F141A30831209
:100AE8000313C600F730C500C50B782DC60B782D4B
:100AF8007D2D831203139F18822D832DF02D9F14B3
:100B08001E08C500C601C701C8014808F300470808
:100B1800F2004608F1004508F00001300A128A1177
:100B280083230A128A11730883120313A700720819
:100B3800A6007108A5007008A4003F30A300F93092
:100B4800A2009930A1009A30A0000A128A1122202E
:100B58000A128A11831203132308BD002208BC005D
:100B68002108BB002008BA000A128A11F1250A12CE
:100B78008A11831203133B08CD003A08CC000A30CF
:100B8800F0000030F1004D08F3004C08F2000A12A2
:100B98008A116D260A128A11700883120313C50080
:100BA8004508CF000A30F0000030F1004D08F3008E
:100BB8004C08F2000A128A1128270A128A117008B2
:100BC80083120313C5004508CE001E0888000A12C8
:100BD8008A1189270A128A11080003108312031345
:100BE8003C0D3D0DBE003E08C4004408031DFD2D0C
:100BF800FE2D072E0030BD000030BC000030BB00C9
:100C08000030BA006C2E3A08BE003B08BF003C0812
:100C1800C0003D08C1001F300310C10CC00CBF0C40
:100C2800BE0CFF3E031D102E3E08C2004208C30042
:100C3800BC17FF30BA05FF30BB05FF30BC050030DC
:100C4800BD059630C402C41F2A2E2B2E452E4408FB
:100C5800803A973E0318312E322E332EFE2D013066
:100C68000310BD0CBC0CBB0CBA0CFF3E031D342E8C
:100C78000130BE003E08C407031D432E442E332E08
:100C88005C2E20304402031C4A2E4B2E572EFE2D7C
:100C98000130BE000310BA0DBB0DBC0DBD0DBE0B5F
:100CA8004E2E0130C4024408031D5B2E5C2E4C2ED0
:100CB80043080319602E612E6C2EBA09BB09BC09C2
:100CC800BD09BA0A0319BB0A0319BC0A0319BD0AEC
:100CD8000800F501F601700871040319742E752EC9
:100CE800AC2EF701F70A832E01300310F00DF10D39
:100CF800FF3E031D792E0130F4007408F707F11F39
:100D0800862E872E782E01300310F50DF60DFF3E46
:100D1800031D882E71087302031D942E7008720239
:100D2800031C972E982E9F2E7008F2027108031C40
:100D3800F303F302751401300310F10CF00CFF3EBD
:100D4800031DA02E0130F702031DAB2EAC2E872EFB
:100D58007608F1007508F00008000A128A11EE26DC
:100D68000A128A110A128A11E6270A128A110A122D
:100D78008A11DA270A128A110A128A11C0270A125E
:100D88008A110A128A11F8270A128A110A128A117C
:100D9800CD270A128A11831203138C1DD42ED52E47
:100DA800CF2E0A128A15FC270A128A1183160313FA
:100DB800A5002508A600831203131E080A128A112B
:100DC800F0270A128A11831203138C11CF2E0A12EC
:100DD8008A111028831603178801831603138501C7
:100DE800831203138501831603130514831603174F
:100DF80008148316031385168316031788128312A3
:100E080003138516831603178901831603138601B6
:100E18008312031386010610861006118316031326
:100E28008701871507168712831203138701831614
:100E3800031388018312031388018316031389019E
:100E480083120313890108007008710403192D2FF8
:100E58002E2F5D2FF501F50A3C2F01300310F00D00
:100E6800F10DFF3E031D322F0130F4007408F50721
:100E7800F11F3F2F402F312F71087302031D462F9A
:100E880070087202031C492F4A2F502F7008F20273
:100E98007108031CF303F30201300310F10CF00C8A
:100EA800FF3E031D512F0130F502031D5C2F5D2FFE
:100EB800402F7308F1007208F0000800F800F401F0
:100EC800F5017008F200F3017208F6007308F700E4
:100ED800781C6F2F702F762F7608F4070318F50A01
:100EE8007708F50701300310F60DF70DFF3E031DD7
:100EF800772F0310F80C7808031D832F842F6C2F8D
:100F08007508F1007408F00008000D30831203130F
:100F180008020318902F912F952F0615861006109A
:100F2800A82F0D300802031C9A2F9B2FA52F1330D2
:100F380008020318A02FA12FA52F0611861406104A
:100F4800A82F06118610061408000B1DAC2FAD2F14
:100F5800B72F0A128A116F250A128A110B116430F1
:100F68008312031381004B08FF004A088A00490EC8
:100F78008300FE0E7E0E090083160313811781126B
:100F8800811101118114011064308312031381004F
:100F98000800023083160313A4002408A0000430BC
:100FA8000A128A11E8240A128A1108008B170B17F3
:100FB8008B160B128B110B118B100B10831603134E
:100FC80096010800831603130F178F160F128F113F
:100FD8000F118F140F10080083160313A0002008A8
:100FE800831203139300080000300A128A113D246B
:060FF8000A128A11080034
:081FF800831203131308080013
:04400E00D420FF3F7C
:00000001FF
