:020000040000FA
:060000000A128A110C280F
:10000800FE00030EF0000A08F1000A128A112D2ED4
:100018000A128A110F28FA01FB0183132030840089
:100028003D300A128A1175260A128A1183010A12B2
:100038008A111E280A128A114C250A128A110A12DC
:100048008A1161260A128A110A128A114A260A128C
:100058008A110A128A113D260A128A110A128A1175
:1000680014240A128A110A128A117D260A128A1188
:100078000A128A1156260A128A11831203130710CC
:10008800033083120313C6009730C500C50B4A28F6
:10009800C60B4A288312031322080A128A118326E0
:1000A8000A128A110A128A118F260A128A118312D9
:1000B8000313C5004508A200033083120313C600CA
:1000C8009730C500C50B6628C60B66288312031334
:1000D80007148710033083120313C6009730C50036
:1000E800C50B7428C60B74287A080A128A1183264D
:1000F8000A128A110A128A118F260A128A11831289
:100108000313C5004508FA00033083120313C60021
:100118009730C500C50B8E28C60B8E288312031393
:1001280087140711033083120313C6009730C500E4
:10013800C50B9C28C60B9C288312031320080A129F
:100148008A1183260A128A110A128A118F260A1224
:100158008A1183120313C5004508A00003308312D7
:100168000313C6009730C500C50BB828C60BB828BE
:100178008312031307150A128A110F250A128A110E
:10018800831203132508013EC5004508A50024086D
:10019800013EC5004508A4002308013EC5004508E6
:1001A800A30041280A128A110C2810308312031365
:1001B8002402031CE028E12877290A307A02031870
:1001C800E628E7282E2943300A128A116B260A12DC
:1001D8008A114F300A128A116B260A128A114E3080
:1001E8000A128A116B260A128A1154300A128A11CD
:1001F8006B260A128A113A300A128A116B260A12E1
:100208008A1130300A128A116B260A128A117A086A
:10021800303E0A128A116B260A128A1120300A12FD
:100228008A116B260A128A1120300A128A116B264B
:100238000A128A1120300A128A116B260A128A11B0
:1002480020300A128A116B260A128A1183120313AC
:10025800A401772943300A128A116B260A128A11DF
:100268004F300A128A116B260A128A114E300A126E
:100278008A116B260A128A1154300A128A116B26C7
:100288000A128A113A300A128A116B260A128A1146
:10029800831203132808303E0A128A116B260A12A9
:1002A8008A11831203132708303E0A128A116B261B
:1002B8000A128A1120300A128A116B260A128A1130
:1002C80020300A128A116B260A128A1120300A126B
:1002D8008A116B260A128A1120300A128A116B269B
:1002E8000A128A112A290800831203132208C1005E
:1002F8004107C2004208FB006430F2000030F300FE
:100308007B08C100C2014108F4004208F5000A1246
:100318008A118C220A128A11720883120313C300ED
:100328004308BC006430F2000030F3007B08C100D1
:10033800C2014108F4004208F5000A128A11BB23E1
:100348000A128A11720883120313C3004308BB0000
:100358000A30F2000030F3003B08C100C201410836
:10036800F4004208F5000A128A118C220A128A1136
:10037800720883120313C3004308B9000A30F2005D
:100388000030F3003B08C100C2014108F4004208F4
:10039800F5000A128A11BB230A128A117208831205
:1003A8000313C3004308BA003A08C1004108B80063
:1003B8003C08303E0A128A1117260A128A112E307A
:1003C8000A128A1117260A128A118312031339088E
:1003D800303E0A128A1117260A128A118312031351
:1003E8003808303E0A128A1117260A128A11563026
:1003F8000A128A1117260A128A110A128A11582318
:100408000A128A110800F5008316031307108710D3
:1004180007118712071687113B2A831203139411B9
:100428001411941014106F2A8312031394111411C9
:10043800941014146F2A8312031394111411941432
:1004480014106F2A831203139411141194141414A2
:100458006F2A8312031394111415941014106F2A21
:100468008312031394111415941014146F2A750829
:10047800F300F4017408003A0319432A6F2A730839
:10048800003A0319112A013A0319182A033A0319E1
:100498001F2A013A0319262A073A03192D2A013A75
:1004A8000319342A6F2A83121412831603131413A0
:1004B800852A83121416831603131413852A8312AC
:1004C8001412831603131417852A8312141683161D
:1004D80003131417852A7208F300F4017408003A0C
:1004E8000319772A852A7308003A0319572A013A0B
:1004F80003195D2A033A0319632A013A0319692A81
:10050800852A831603139413831203139416080081
:1005180083120313BE01F31F922A932A9A2AF2091F
:10052800F309F20A0319F30ABE01BE0AF51F9D2A50
:100538009E2AA72AF409F509F40A0319F50A0130D5
:10054800F6007608BE06BF01C001720873040319DD
:10055800AE2AAF2AE62ABD01BD0ABD2A0130031022
:10056800F20DF30DFF3E031DB32A0130F6007608A5
:10057800BD07F31FC02AC12AB22A01300310BF0DDC
:10058800C00DFF3E031DC22A73087502031DCE2A43
:1005980072087402031CD12AD22AD92A7208F402DA
:1005A8007308031CF503F5023F1401300310F30C24
:1005B800F20CFF3E031DDA2A0130BD02031DE52AB5
:1005C800E62AC12A3E080319EA2AEB2AF02ABF09BB
:1005D800C009BF0A0319C00A4008F3003F08F20027
:1005E80008000A307A020318FA2AFB2A0E2B303048
:1005F8000A128A1117260A128A117A08303E0A123C
:100608008A1117260A128A110A128A11D9200A1287
:100618008A11572B0A307A02031C132B142B572BE1
:100628000A30F2000030F3007A0883120313C10085
:10063800C2014108F4004208F5000A128A118C220E
:100648000A128A11720883120313C3004308A80010
:100658000A30F2000030F3007A08C100C2014108F4
:10066800F4004208F5000A128A11BB230A128A1103
:10067800720883120313C3004308A7002808303EFA
:100688000A128A1117260A128A11831203132708DD
:10069800303E0A128A1117260A128A110A128A1182
:1006A800D9200A128A110800103083120313250278
:1006B800031C5F2B602BBA2B41300A128A116B2660
:1006C8000A128A1144300A128A116B260A128A11F8
:1006D80043300A128A116B260A128A113A300A121A
:1006E8008A116B260A128A11831203133C08303EC2
:1006F8000A128A116B260A128A112E300A128A11DE
:100708006B260A128A11831203133908303E0A1223
:100718008A116B260A128A11831203133808303E95
:100728000A128A116B260A128A1156300A128A1185
:100738006B260A128A1120300A128A116B260A12B5
:100748008A1120300A128A116B260A128A11203067
:100758000A128A116B260A128A1120300A128A118B
:100768006B260A128A1183120313A5010800F801E7
:10077800F51FBF2BC02BC72BF409F509F40A031981
:10078800F50AF801F80AF31FCA2BCB2BD02BF20974
:10079800F309F20A0319F30A720873040319D52B33
:1007A800D62B052CF701F70AE42B01300310F20DC4
:1007B800F30DFF3E031DDA2B0130F6007608F7072C
:1007C800F31FE72BE82BD92B73087502031DEE2BBB
:1007D80072087402031CF12BF22BF82B7208F40236
:1007E8007308031CF503F50201300310F30CF20C37
:1007F800FF3E031DF92B0130F702031D042C052CC5
:10080800E82B78080319092C0A2C0F2CF409F50990
:10081800F40A0319F50A7508F3007408F2000800D1
:1008280000300A128A1189260A128A113430F70018
:10083800F130F600F60B1E2CF70B1E2C232C303053
:100848000A128A11E1250A128A1183120313091068
:1008580009110D30F700FB30F600F60B312CF70BC1
:10086800312C362C30300A128A11E1250A128A11ED
:1008780083120313091009111D30F7009130F60097
:10088800F60B442CF70B442C30300A128A11E12560
:100898000A128A11831203130910091138300A1237
:1008A8008A11E1250A128A110C300A128A11E125EF
:1008B8000A128A1101300A128A11E1250A128A11D4
:1008C80006300A128A11E1250A128A1108008312D9
:1008D80003132008C1004107C2004208B0000A30D3
:1008E800F2000030F3003008C100C2014108F400F2
:1008F8004208F5000A128A118C220A128A1172081B
:1009080083120313C3004308B1000A30F200003019
:10091800F3003008C100C2014108F4004208F500A4
:100928000A128A11BB230A128A117208831203134E
:10093800C3004308AF003108303E0A128A11172657
:100948000A128A11831203132F08303E0A128A11E1
:1009580017260A128A11DF300A128A1117260A127C
:100968008A1143300A128A1117260A128A110A12AA
:100978008A11C1240A128A11080010308312031345
:100988002302031CC82CC92C0E2D54300A128A11BC
:100998006B260A128A1145300A128A116B260A122E
:1009A8008A114D300A128A116B260A128A115030A8
:1009B8000A128A116B260A128A113A300A128A110F
:1009C8006B260A128A11831203133108303E0A1269
:1009D8008A116B260A128A11831203132F08303EDC
:1009E8000A128A116B260A128A11B0300A128A1169
:1009F8006B260A128A1143300A128A116B260A12D0
:100A08008A110D300A128A116B260A128A11831272
:100A18000313A3010800F601F60A00300A128A112E
:100A28009F250A128A1101300A128A117A250A12A0
:100A38008A11F60102300A128A119F250A128A11B8
:100A48000A128A1178210A128A11073083120313B5
:100A5800C4004408F60002300A128A119F250A12BF
:100A68008A110A128A11F5220A128A110C3083128D
:100A78000313C4004408F60002300A128A119F25A5
:100A88000A128A110A128A116B240A128A110800A2
:100A98008316031788018316031385018312031332
:100AA80085018316031789018316031386018312B0
:100AB8000313860183160313870183120313870127
:100AC80083160313071307168312031307148714D7
:100AD80007158316031388018312031388018316ED
:100AE800031389018312031389010800F700F50134
:100AF800F601912D7508770784000A128A110026DD
:100B08000A128A110A128A1117260A128A1101304A
:100B1800F5070318F60A0030F6077508770784000A
:100B28000A128A1100260A128A11003A031D9D2D05
:100B38009E2D7E2D0800F8007803031DA42DA52DF9
:100B4800B12D7608803EF7007708F90079080A1277
:100B58008A11E1250A128A11C22D02307806031D76
:100B6800B62DB72DC22D7608C03EF7007708F900DC
:100B780079080A128A11E1250A128A110800193027
:100B880083160313990098131813981618129811BE
:100B98001815981018108312031398171813981221
:100BA800181698111811981018108C128316031320
:100BB8008C16831203130C120800F500831203131A
:100BC800091075080A128A1189260A128A118312D5
:100BD800031389140D30F400FB30F300F30BF22DEE
:0E0BE800F40BF22DF72D831203138910080071
:100C000006308A000408840A8207003441344434E0
:100C100043343A3420342034423454344E343A3459
:100C20002034543445344D3450343A340034F400D4
:100C300083120313091474080A128A1189260A12EE
:100C40008A118312031389141A30F300F30B262E32
:100C5000000083120313891008000B1D302E312E63
:100C6000362E0B11643083120313810071088A0041
:100C7000700E8300FE0E7E0E09008316031381138F
:100C80008112811101118114011064308312031348
:100C9000810008008B170B178B160B128B110B1191
:100CA0008B100B1083160313960108000230F60018
:100CB0007608F20000300A128A1107220A128A11FD
:100CC0000800831603130F178F160F128F110F11C1
:100CD0008F140F100800F20072088312031399009A
:100CE0000C1E732E742E702E080064008001840A7E
:100CF0000406031900340406762E0A128A11C3254D
:100D00000A128A110800F20072088312031393007A
:100D10000800F2007208831203138800080083128F
:060D200003131308080094
:04400E00D420FF3F7C
:00000001FF
