:020000040000FA
:060000000A128A110C280F
:10000800FE00030EF0000A08F1000A128A11112EF0
:100018000A128A110F28FA01FB0183132030840089
:100028003C300A128A1159260A128A1183010A12CF
:100038008A11BD281030831203132302031C2528BC
:100048002628BC280A307A0203182B282C28732863
:1000580043300A128A114F260A128A114F300A12A7
:100068008A114F260A128A114E300A128A114F2617
:100078000A128A1154300A128A114F260A128A115A
:100088003A300A128A114F260A128A1130300A129F
:100098008A114F260A128A117A08303E0A128A11EA
:1000A8004F260A128A1120300A128A114F260A1284
:1000B8008A1120300A128A114F260A128A1120301A
:1000C8000A128A114F260A128A1120300A128A113E
:1000D8004F260A128A1183120313A301BC28433046
:1000E8000A128A114F260A128A114F300A128A11EF
:1000F8004F260A128A114E300A128A114F260A1206
:100108008A1154300A128A114F260A128A113A307B
:100118000A128A114F260A128A118312031327081A
:10012800303E0A128A114F260A128A1183120313CB
:100138002608303E0A128A114F260A128A112030E8
:100148000A128A114F260A128A1120300A128A11BD
:100158004F260A128A1120300A128A114F260A12D3
:100168008A1120300A128A114F260A128A116F2822
:1001780008000A128A1135250A128A110A128A11F0
:1001880045260A128A110A128A112E260A128A1183
:100198000A128A1121260A128A110A128A11A12426
:1001A8000A128A110A128A1161260A128A110A127F
:1001B8008A113A260A128A11831203130710033090
:1001C80083120313C5009730C400C40BE928C50B7C
:1001D800E9287B080A128A1167260A128A110A126C
:1001E8008A1173260A128A1183120313C400440861
:1001F800FB00033083120313C5009730C400C40BFF
:100208000329C50B0329831203130714871003302E
:1002180083120313C5009730C400C40B1129C50B02
:10022800112900300A128A1167260A128A110A1245
:100238008A1173260A128A1183120313C400440810
:10024800FA00033083120313C5009730C400C40BAF
:100258002B29C50B2B298312031387140A128A1121
:10026800F8240A128A11831203132408013EC400D9
:100278004408A4002308013EC4004408A30022083F
:10028800013EC4004408A200E0280A128A110C2882
:100298007B0883120313C0004007C1004108BB005C
:1002A8006430F2000030F3003B08C000C101400890
:1002B800F4004108F5000A128A1160220A128A1114
:1002C800720883120313C2004208BA006430F200B5
:1002D8000030F3003B08C000C1014008F4004108A9
:1002E800F5000A128A11F1230A128A117208831280
:1002F8000313C2004208B9000A30F2000030F300CC
:100308003908C000C1014008F4004108F5000A128C
:100318008A1160220A128A11720883120313C2001A
:100328004208B7000A30F2000030F3003908C00074
:10033800C1014008F4004108F5000A128A11F123AE
:100348000A128A11720883120313C2004208B80005
:100358003808C0004008B6003A08303E0A128A1130
:10036800FB250A128A112E300A128A11FB250A125D
:100378008A11831203133708303E0A128A11FB25AB
:100388000A128A11831203133608303E0A128A11A0
:10039800FB250A128A1156300A128A11FB250A1205
:1003A8008A110A128A112C230A128A110800F500F0
:1003B8008316031307108710071187120716871172
:1003C8000F2A831203139411141194101410432A42
:1003D800831203139411141194101414432A8312D2
:1003E80003139411141194141410432A8312031341
:1003F8009411141194141414432A8312031394119E
:10040800141594101410432A83120313941114150D
:1004180094101414432A7508F300F4017408003A80
:100428000319172A432A7308003A0319E529013AE0
:100438000319EC29033A0319F329013A0319FA2994
:10044800073A0319012A013A0319082A432A831291
:100458001412831603131413592A831214168316BD
:1004680003131413592A831214128316031314172F
:10047800592A83121416831603131417592A72085B
:10048800F300F4017408003A03194B2A592A730837
:10049800003A03192B2A013A0319312A033A03199E
:1004A800372A013A03193D2A592A8316031394134C
:1004B800831203139416080083120313BD01F31F5C
:1004C800662A672A6E2AF209F309F20A0319F30A5F
:1004D800BD01BD0AF51F712A722A7B2AF409F509A4
:1004E800F40A0319F50A0130F6007608BD06BE01C4
:1004F800BF01720873040319822A832ABA2ABC012D
:10050800BC0A912A01300310F20DF30DFF3E031DC2
:10051800872A0130F6007608BC07F31F942A952A2B
:10052800862A01300310BE0DBF0DFF3E031D962A1B
:1005380073087502031DA22A72087402031CA52AF7
:10054800A62AAD2A7208F4027308031CF503F50203
:100558003E1401300310F30CF20CFF3E031DAE2ACB
:100568000130BC02031DB92ABA2A952A3D0803198D
:10057800BE2ABF2AC42ABE09BF09BE0A0319BF0A78
:100588003F08F3003E08F20008000A307A02031818
:10059800CE2ACF2AE22A30300A128A11FB250A1203
:1005A8008A117A08303E0A128A11FB250A128A112A
:1005B8000A128A111E200A128A112B2B0A307A027B
:1005C800031CE72AE82A2B2B0A30F2000030F3003C
:1005D8007A0883120313C000C1014008F4004108DF
:1005E800F5000A128A1160220A128A11720883120F
:1005F8000313C2004208A7000A30F2000030F300DB
:100608007A08C000C1014008F4004108F5000A1248
:100618008A11F1230A128A11720883120313C20085
:100628004208A6002708303E0A128A11FB250A1242
:100638008A11831203132608303E0A128A11FB25F9
:100648000A128A110A128A111E200A128A11080037
:100658001030831203132402031C332B342B8E2BEC
:1006680041300A128A114F260A128A1144300A129E
:100678008A114F260A128A1143300A128A114F260C
:100688000A128A113A300A128A114F260A128A115E
:10069800831203133A08303E0A128A114F260A12AF
:1006A8008A112E300A128A114F260A128A118312D1
:1006B80003133708303E0A128A114F260A128A118C
:1006C800831203133608303E0A128A114F260A1283
:1006D8008A1156300A128A114F260A128A112030BE
:1006E8000A128A114F260A128A1120300A128A1118
:1006F8004F260A128A1120300A128A114F260A122E
:100708008A1120300A128A114F260A128A1183127E
:100718000313A40108007B0883120313C0004007D9
:10072800C1004108AF006430F2000030F3002F0828
:10073800C000C1014008F4004108F5000A128A11FE
:1007480060220A128A11720883120313C200420837
:10075800AE006430F2000030F3002F08C000C10181
:100768004008F4004108F5000A128A11F1230A1220
:100778008A11720883120313C2004208B300AB0146
:10078800AC01AA012E08303E0A128A11FB250A1272
:100798008A112E300A128A11FB250A128A11831235
:1007A80003132B08303E0A128A11FB250A128A11FC
:1007B800831203132A08303E0A128A11FB250A12F3
:1007C8008A1156300A128A11FB250A128A110A1256
:1007D8008A114A240A128A110800F801F51FF52B1C
:1007E800F62BFD2BF409F509F40A0319F50AF801AB
:1007F800F80AF31F002C012C062CF209F309F20A5F
:100808000319F30A7208730403190B2C0C2C3B2CE4
:10081800F701F70A1A2C01300310F20DF30DFF3E11
:10082800031D102C0130F6007608F707F31F1D2C66
:100838001E2C0F2C73087502031D242C72087402D9
:10084800031C272C282C2E2C7208F4027308031C76
:10085800F503F50201300310F30CF20CFF3E031D03
:100868002F2C0130F702031D3A2C3B2C1E2C780844
:1008780003193F2C402C452CF409F509F40A0319F7
:10088800F50A7508F3007408F200080010308312A6
:1008980003132202031C512C522CA02C54300A1290
:1008A8008A114F260A128A1145300A128A114F26D8
:1008B8000A128A114D300A128A114F260A128A1119
:1008C80050300A128A114F260A128A113A300A1237
:1008D8008A114F260A128A11831203132E08303EFA
:1008E8000A128A114F260A128A112E300A128A1108
:1008F8004F260A128A11831203132B08303E0A125C
:100908008A114F260A128A11831203132A08303ECD
:100918000A128A114F260A128A1156300A128A11AF
:100928004F260A128A110D300A128A114F260A120E
:100938008A1183120313A201080000300A128A11D7
:100948006D260A128A113430F700F130F600F60BE2
:10095800AB2CF70BAB2CB02C30300A128A11CA25FD
:100968000A128A1183120313091009110D30F700B6
:10097800FB30F600F60BBE2CF70BBE2CC32C303028
:100988000A128A11CA250A128A118312031309103E
:1009980009111D30F7009130F600F60BD12CF70B3A
:1009A800D12C30300A128A11CA250A128A118312F0
:1009B80003130910091138300A128A11CA250A12BC
:1009C8008A110C300A128A11CA250A128A110130BA
:1009D8000A128A11CA250A128A1106300A128A11C5
:1009E800CA250A128A110800F601F60A00300A120E
:1009F8008A1188250A128A1101300A128A11632580
:100A08000A128A11F60102300A128A1188250A127E
:100A18008A110A128A114C210A128A11073083128C
:100A28000313C3004308F60002300A128A1188250E
:100A38000A128A110A128A11C9220A128A110C3062
:100A480083120313C3004308F60002300A128A1106
:100A580088250A128A110A128A118F230A128A110A
:100A68000800831603178801831603138501831270
:100A7800031385018316031789018316031386015F
:100A8800831203138601831603138701831203134A
:100A9800870183160313071307168312031307141A
:100AA800871407158316031388018312031388011B
:100AB8008316031389018312031389010800F700C1
:100AC800F501F6017A2D7508770784000A128A1154
:100AD800E4250A128A110A128A11FB250A128A11C0
:100AE8000130F5070318F60A0030F607750877078E
:100AF80084000A128A11E4250A128A11003A031D99
:100B0800862D872D672D0800F8007803031D8D2D8D
:100B18008E2D9A2D7608803EF7007708F90079081F
:100B28000A128A11CA250A128A11AB2D02307806D8
:100B3800031D9F2DA02DAB2D7608C03EF70077082A
:100B4800F90079080A128A11CA250A128A110800BE
:100B5800193083160313990098131813981618124E
:100B68009811181598101810831203139817181352
:100B78009812181698111811981018108C128316BC
:100B880003138C16831203130C120800F50083124A
:100B98000313091075080A128A116D260A128A11A0
:100BA8008312031389140D30F400FB30F300F30BA8
:100BB800DB2DF40BDB2DE02D8312031389100800C5
:100BC80005308A000408840A82070034413444341A
:100BD80043343A3420342034423454344E343A3492
:100BE8002034543445344D3450343A340034F4000D
:100BF80083120313091474080A128A116D260A1243
:100C08008A118312031389141A30F300F30B0A2E86
:100C1800000083120313891008000B1D142E152ED3
:100C28001A2E0B11643083120313810071088A0095
:100C3800700E8300FE0E7E0E0900831603138113C7
:100C48008112811101118114011064308312031380
:100C5800810008008B170B178B160B128B110B11C9
:100C68008B100B1083160313960108000230F60050
:100C78007608F20000300A128A11DB210A128A1162
:100C88000800831603130F178F160F128F110F11F9
:100C98008F140F100800F2007208831203139900D2
:100CA8000C1E572E582E542E080064008001840A0A
:100CB80004060319003404065A2E0A128A11AC25B8
:100CC8000A128A110800F2007208831203139300B3
:100CD8000800F200720883120313880008008312C8
:060CE800031313080800CD
:04400E00D420FF3F7C
:00000001FF
