:020000040000FA
:060000000A128A110C280F
:10000800FE00030EF0000A08F1000A128A11AF2C54
:100018000A128A110F28FA01FB0183132030840089
:1000280032300A128A11E8240A128A1183010A124C
:100038008A110C29F50083160313851205138513FD
:10004800871207168711522883120313941114116B
:100058009410141086288312031394111411941009
:100068001414862883120313941114119414141071
:1000780086288312031394111411941414148628D7
:1000880083120313941114159410141086288312E4
:100098000313941114159410141486287508F3008A
:1000A800F4017408003A03195A2886287308003A9C
:1000B80003192828013A03192F28033A0319362867
:1000C800013A03193D28073A03194428013A03194C
:1000D8004B288628831214128316031314139C28A2
:1000E800831214168316031314139C2883121412F4
:1000F8008316031314179C288312141683160313EC
:1001080014179C287208F300F4017408003A0319C4
:100118008E289C287308003A03196E28013A03199F
:100128007428033A03197A28013A031980289C286D
:10013800831603139413831203139416080083126F
:100148000313B301F31FA928AA28B128F209F30958
:10015800F20A0319F30AB301B30AF51FB428B52844
:10016800BE28F409F509F40A0319F50A0130F60066
:100178007608B306B401B501720873040319C528DB
:10018800C628FD28B201B20AD42801300310F20DA6
:10019800F30DFF3E031DCA280130F6007608B207AA
:1001A800F31FD728D828C92801300310B40DB50D7E
:1001B800FF3E031DD92873087502031DE528720840
:1001C8007402031CE828E928F0287208F40273086E
:1001D800031CF503F502341401300310F30CF20C80
:1001E800FF3E031DF1280130B202031DFC28FD2843
:1001F800D82833080319012902290729B409B509A0
:10020800B40A0319B50A3508F3003408F2000800E7
:100218000A128A11DC230A128A110A128A11D424BA
:100228000A128A110A128A11BD240A128A110A12A4
:100238008A1128220A128A110A128A11F0240A1233
:100248008A110A128A11C9240A128A118312031305
:100258008513BA013A080A128A11F6240A128A1179
:10026800033083120313B9008A30B8005530B70041
:10027800B70B3C29B80B3C29B90B3C290130831238
:100288000313B7003708BA0710303A02031C4D2988
:100298004E292E298517823083120313B800DD30CA
:1002A800B700B70B5529B80B55290A128A117423C0
:1002B8000A128A11831203132208013EB700370875
:1002C800A2002108013EB7003708A1002008013E1E
:1002D800B7003708A0002A290A128A110C288312AD
:1002E8000313AC01AB010A30F2000030F300003018
:1002F800F400F5000A128A11A3200A128A11720862
:10030800F900790883120313A9000A30F2000030BB
:10031800F3000030F400F5000A128A11CF210A1206
:100328008A117208F900790883120313AA002A08AF
:10033800F9007908A8002C08303E0A128A119A247C
:100348000A128A112E300A128A119A240A128A1164
:10035800831203132908303E0A128A119A240A12BA
:100368008A11831203132808303E0A128A119A242C
:100378000A128A1156300A128A119A240A128A110C
:100388000A128A11D4220A128A110A128A11B22375
:100398000A128A110800F801F51FD329D429DB298C
:1003A800F409F509F40A0319F50AF801F80AF31F24
:1003B800DE29DF29E429F209F309F20A0319F30A0D
:1003C800720873040319E929EA29192AF701F70AB7
:1003D800F82901300310F20DF30DFF3E031DEE293D
:1003E8000130F6007608F707F31FFB29FC29ED29F1
:1003F80073087502031D022A72087402031C052A79
:10040800062A0C2A7208F4027308031CF503F50285
:1004180001300310F30CF20CFF3E031D0D2A0130CE
:10042800F702031D182A192AFC29780803191D2A1E
:100438001E2A232AF409F509F40A0319F50A75088E
:10044800F3007408F200080000300A128A11FC2434
:100458000A128A111A30F700F830F600F60B322A21
:10046800F70B322A000030300A128A116A240A1265
:100478008A1183120313071087100730F7007D30A5
:10048800F600F60B452AF70B452A30300A128A1176
:100498006A240A128A1183120313071087100F3077
:1004A800F7004730F600F60B572AF70B572A5C2A55
:1004B80030300A128A116A240A128A11831203132D
:1004C8000710871038300A128A116A240A128A1112
:1004D8000C300A128A116A240A128A1101300A128F
:1004E8008A116A240A128A1106300A128A116A24A9
:1004F8000A128A110800FB01FA010A30F2000030E2
:10050800F3000030F400F5000A128A11A3200A1241
:100518008A117208F900790883120313AF000A30B0
:10052800F2000030F3000030F400F5000A128A11DE
:10053800CF210A128A117208F9007908831203136D
:10054800B0003008F9007908AE007B08303E0A1286
:100558008A119A240A128A112E300A128A119A24B0
:100568000A128A11831203132F08303E0A128A11C5
:100578009A240A128A11831203132E08303E0A1293
:100588008A119A240A128A1156300A128A119A2458
:100598000A128A110A128A1125230A128A110800DE
:1005A8001030831203132102031CDB2ADC2A242BBC
:1005B80053300A128A11DE240A128A1132300A12C2
:1005C8008A11DE240A128A113A300A128A11DE24AC
:1005D8000A128A11831203132C08303E0A128A1158
:1005E800DE240A128A112E300A128A11DE240A1217
:1005F8008A11831203132908303E0A128A11DE2455
:100608000A128A11831203132808303E0A128A112B
:10061800DE240A128A1156300A128A11DE240A12BE
:100628008A1120300A128A11DE240A128A11203017
:100638000A128A11DE240A128A1183120313A101F5
:1006480008001030831203132202031C2C2B2D2BBD
:10065800732B53300A128A11DE240A128A113130A0
:100668000A128A11DE240A128A113A300A128A11F1
:10067800DE240A128A117B08303E0A128A11DE240F
:100688000A128A112E300A128A11DE240A128A11DD
:10069800831203132F08303E0A128A11DE240A122D
:1006A8008A11831203132E08303E0A128A11DE249F
:1006B8000A128A1156300A128A11DE240A128A1185
:1006C80020300A128A11DE240A128A1120300A12F6
:1006D8008A11DE240A128A1183120313A201080068
:1006E800F601F60A01300A128A1128240A128A1120
:1006F80001300A128A1103240A128A11F601023003
:100708000A128A1128240A128A110A128A117F22CF
:100718000A128A11063083120313B6003608F6004F
:1007280002300A128A1128240A128A110A128A111E
:1007380073210A128A110E3083120313B600360889
:10074800F60002300A128A1128240A128A1130305F
:100758000A128A119A240A128A1108001030831288
:1007680003132002031CB92BBA2BDB2B43300A12CC
:100778008A11DE240A128A113A300A128A11DE24FA
:100788000A128A1130300A128A11DE240A128A11DA
:1007980030300A128A11DE240A128A110D300A1228
:1007A8008A11DE240A128A1183120313A001080099
:1007B8008316031788018316031385018312031315
:1007C8008501831603178901831603138601831293
:1007D8000313860183160313870107130716831271
:1007E80003138701831603138801831203138801F7
:1007F8008316031389018312031389010800F70084
:10080800F501F6011A2C7508770784000A128A1177
:1008180083240A128A110A128A119A240A128A1146
:100828000130F5070318F60A0030F6077508770750
:1008380084000A128A1183240A128A11003A031DBD
:10084800262C272C072C0800F8007803031D2D2CD4
:100858002E2C3A2C7608803EF7007708F9007908A4
:100868000A128A116A240A128A114B2C023078065D
:10087800031D3F2C402C4B2C7608C03EF700770810
:10088800F90079080A128A116A240A128A110800E2
:100898001930831603139900981318139816181211
:1008A8009811181598101810831203139817181315
:1008B8009812181698111811981018108C1283167F
:1008C80003138C16831203130C120800F50083120D
:1008D8000313071075080A128A11FC240A128A11D8
:1008E8008312031307150730F4007D30F300F30B70
:1008F8007B2CF40B7B2C83120313071108000430A4
:100908008A000408840A82070034533431343A34A4
:10091800203420342034533432343A3420342034D0
:100928002034533433343A3420340034F4008312FE
:100938000313071474080A128A11FC240A128A1174
:100948008312031307150D30F300F30BA92C831240
:10095800031307110800831203138C1EB42CB52C43
:10096800B62C8C1271088A00700E8300FE0E7E0E63
:1009780009008B170B178B120B128B110B118B1095
:100988000B1083160313960108000230F600760850
:10099800F20000300A128A111E200A128A11080079
:1009A800831603130F178F160F128F110F118F1441
:1009B8000F100800F20072088312031399000C1E2E
:1009C800E62CE72CE32C080064008001840A040666
:1009D800031900340406E92C0A128A114C240A125D
:1009E8008A110800F20072088312031393000800AA
:0C09F800F200720883120313880008004C
:04400E00D420FF3F7C
:00000001FF
