:020000040000FA
:060000000A128A110C280F
:10000800FE00030EF0000A08F1000A128A112D2ED4
:100018000A128A110F28FA01FB0183132030840089
:100028003A300A128A1175260A128A1183010A12B5
:100038008A111E280A128A114D250A128A110A12DB
:100048008A1161260A128A110A128A114A260A128C
:100058008A110A128A113D260A128A110A128A1175
:1000680019240A128A110A128A117D260A128A1183
:100078000A128A1156260A128A11831203130710CC
:10008800033083120313C5009730C400C40B4A28F9
:10009800C50B4A288312031321080A128A118326E2
:1000A8000A128A110A128A118F260A128A118312D9
:1000B8000313C4004408A100033083120313C500CE
:1000C8009730C400C40B6628C50B66288312031337
:1000D80007148710033083120313C5009730C40038
:1000E800C40B7428C50B74287A080A128A1183264F
:1000F8000A128A110A128A118F260A128A11831289
:100108000313C4004408FA00033083120313C50024
:100118009730C400C40B8E28C50B8E288312031396
:1001280087140711033083120313C5009730C400E6
:10013800C40B9C28C50B9C288312031320080A12A1
:100148008A1183260A128A110A128A118F260A1224
:100158008A1183120313C4004408A00003308312D9
:100168000313C5009730C400C40BB828C50BB828C2
:100178008312031307150A128A1110250A128A110D
:10018800831203132408013EC4004408A400230872
:10019800013EC4004408A3002208013EC4004408EC
:1001A800A20041280A128A110C280830831203136E
:1001B8002302031CE028E12877290A307A02031871
:1001C800E628E7282E2943300A128A116B260A12DC
:1001D8008A114F300A128A116B260A128A114E3080
:1001E8000A128A116B260A128A1154300A128A11CD
:1001F8006B260A128A113A300A128A116B260A12E1
:100208008A1130300A128A116B260A128A117A086A
:10021800303E0A128A116B260A128A1120300A12FD
:100228008A116B260A128A1120300A128A116B264B
:100238000A128A1120300A128A116B260A128A11B0
:1002480020300A128A116B260A128A1183120313AC
:10025800A301772943300A128A116B260A128A11E0
:100268004F300A128A116B260A128A114E300A126E
:100278008A116B260A128A1154300A128A116B26C7
:100288000A128A113A300A128A116B260A128A1146
:10029800831203132708303E0A128A116B260A12AA
:1002A8008A11831203132608303E0A128A116B261C
:1002B8000A128A1120300A128A116B260A128A1130
:1002C80020300A128A116B260A128A1120300A126B
:1002D8008A116B260A128A1120300A128A116B269B
:1002E8000A128A112A290800831203132108BE0062
:1002F8003E08B9003908BE00BF010310BE0DBF0D8E
:100308000310BE0DBF0D3E08C1003F08C200643097
:10031800F2000030F3004208F5004108F4000A1228
:100328008A1191220A128A11720883120313BE00DD
:100338003E08B8006430F2000030F3004208F500CF
:100348004108F4000A128A11C0230A128A1172089D
:1003580083120313BE003E08B7000A30F2000030D3
:10036800F3003708BE00BF013E08F4003F08F5005F
:100378000A128A1191220A128A117208831203132F
:10038800C0004008B5000A30F2000030F30037081A
:10039800BE00BF013E08F4003F08F5000A128A11AA
:1003A800C0230A128A11720883120313C00040087E
:1003B800B6003608BE003E08B4003808303E0A12BF
:1003C8008A1117260A128A112E300A128A11172644
:1003D8000A128A11831203133508303E0A128A1151
:1003E80017260A128A11831203133408303E0A12A0
:1003F8008A1117260A128A1156300A128A111726EC
:100408000A128A110A128A115D230A128A11080037
:10041800F5008316031307108710071187120716B4
:100428008711402A83120313941114119410141085
:10043800742A831203139411141194101414742A37
:10044800831203139411141194141410742A831230
:1004580003139411141194141414742A831203139B
:100468009411141594101410742A83120313941100
:10047800141594101414742A7508F300F401740800
:10048800003A0319482A742A7308003A0319162AED
:10049800013A03191D2A033A0319242A013A0319B8
:1004A8002B2A073A0319322A013A0319392A742ADE
:1004B800831214128316031314138A2A8312141630
:1004C8008316031314138A2A831214128316031330
:1004D80014178A2A831214168316031314178A2AE8
:1004E8007208F300F4017408003A03197C2A8A2A76
:1004F8007308003A03195C2A013A0319622A033A7D
:100508000319682A013A03196E2A8A2A83160313E3
:100518009413831203139416080083120313BB0168
:10052800F31F972A982A9F2AF209F309F20A031956
:10053800F30ABB01BB0AF51FA22AA32AAC2AF409B5
:10054800F509F40A0319F50A0130F6007608BB0626
:10055800BC01BD01720873040319B32AB42AEB2A3B
:10056800BA01BA0AC22A01300310F20DF30DFF3E98
:10057800031DB82A0130F6007608BA07F31FC52A0A
:10058800C62AB72A01300310BC0DBD0DFF3E031D5E
:10059800C72A73087502031DD32A72087402031C44
:1005A800D62AD72ADE2A7208F4027308031CF50338
:1005B800F5023C1401300310F30CF20CFF3E031D4E
:1005C800DF2A0130BA02031DEA2AEB2AC62A3B08B1
:1005D8000319EF2AF02AF52ABC09BD09BC0A031938
:1005E800BD0A3D08F3003C08F20008000A307A0210
:1005F8000318FF2A002B132B30300A128A111726F2
:100608000A128A117A08303E0A128A1117260A122B
:100618008A110A128A11D9200A128A115C2B0A300F
:100628007A02031C182B192B5C2B0A30F2000030BD
:10063800F3007A0883120313BE00BF013E08F400DA
:100648003F08F5000A128A1191220A128A117208CB
:1006580083120313C0004008A7000A30F2000030DC
:10066800F3007A08BE00BF013E08F4003F08F50019
:100678000A128A11C0230A128A11720883120313FC
:10068800C0004008A6002708303E0A128A11172623
:100698000A128A11831203132608303E0A128A119D
:1006A80017260A128A110A128A11D9200A128A11E7
:1006B80008000830831203132402031C642B652BE3
:1006C800BF2B41300A128A116B260A128A11443054
:1006D8000A128A116B260A128A1143300A128A11E9
:1006E8006B260A128A113A300A128A116B260A12EC
:1006F8008A11831203133808303E0A128A116B26B6
:100708000A128A112E300A128A116B260A128A11CD
:10071800831203133508303E0A128A116B260A1217
:100728008A11831203133408303E0A128A116B2689
:100738000A128A1156300A128A116B260A128A1175
:1007480020300A128A116B260A128A1120300A12E6
:100758008A116B260A128A1120300A128A116B2616
:100768000A128A1120300A128A116B260A128A117B
:1007780083120313A4010800F801F51FC42BC52B2D
:10078800CC2BF409F509F40A0319F50AF801F80A5B
:10079800F31FCF2BD02BD52BF209F309F20A03193B
:1007A800F30A720873040319DA2BDB2B0A2CF701FE
:1007B800F70AE92B01300310F20DF30DFF3E031D7C
:1007C800DF2B0130F6007608F707F31FEC2BED2B33
:1007D800DE2B73087502031DF32B72087402031CC9
:1007E800F62BF72BFD2B7208F4027308031CF50394
:1007F800F50201300310F30CF20CFF3E031DFE2B33
:100808000130F702031D092C0A2CED2B7808031977
:100818000E2C0F2C142CF409F509F40A0319F50A07
:100828007508F3007408F200080000300A128A11F3
:1008380089260A128A113430F700F130F600F60BD7
:10084800232CF70B232C282C30300A128A11E2258E
:100858000A128A1183120313091009110D30F700C7
:10086800FB30F600F60B362CF70B362C3B2C3030D1
:100878000A128A11E2250A128A1183120313091037
:1008880009111D30F7009130F600F60B492CF70BD3
:10089800492C30300A128A11E2250A128A11831271
:1008A80003130910091138300A128A11E2250A12B5
:1008B8008A110C300A128A11E2250A128A110130B3
:1008C8000A128A11E2250A128A1106300A128A11BE
:1008D800E2250A128A110800831203132008BE00B9
:1008E8003E08AD000A30F2000030F3002D08BE00CB
:1008F800BF013E08F4003F08F5000A128A11912250
:100908000A128A11720883120313C0004008FB0000
:100918000A30F2000030F3002D08BE00BF013E0887
:10092800F4003F08F5000A128A11C0230A128A113E
:10093800720883120313C0004008AC007B08303EE5
:100948000A128A1117260A128A11831203132C0815
:10095800303E0A128A1117260A128A11DF300A124B
:100968008A1117260A128A1143300A128A11172689
:100978000A128A110A128A11C4240A128A1108005A
:100988000830831203132202031CCB2CCC2C0F2D0E
:1009980054300A128A116B260A128A1145300A123B
:1009A8008A116B260A128A114D300A128A116B2697
:1009B8000A128A1150300A128A116B260A128A11F9
:1009C8003A300A128A116B260A128A117B08303EC5
:1009D8000A128A116B260A128A11831203132C0831
:1009E800303E0A128A116B260A128A11B0300A1296
:1009F8008A116B260A128A1143300A128A116B2651
:100A08000A128A110D300A128A116B260A128A11EB
:100A180083120313A2010800F601F60A00300A1235
:100A28008A11A0250A128A1101300A128A117B251F
:100A38000A128A11F60102300A128A11A0250A1236
:100A48008A110A128A1178210A128A110730831230
:100A58000313C3004308F60002300A128A11A025C6
:100A68000A128A110A128A11FA220A128A110C3001
:100A780083120313C3004308F60002300A128A11D6
:100A8800A0250A128A110A128A1170240A128A11E0
:100A98000800831603178801831603138501831240
:100AA800031385018316031789018316031386012F
:100AB800831203138601831603138701831203131A
:100AC80087018316031307130716831203130714EA
:100AD80087140715831603138801831203138801EB
:100AE8008316031389018312031389010800F70091
:100AF800F501F601922D7508770784000A128A110C
:100B080000260A128A110A128A1117260A128A1155
:100B18000130F5070318F60A0030F607750877075D
:100B280084000A128A1100260A128A11003A031D4B
:100B38009E2D9F2D7F2D0800F8007803031DA52DFD
:100B4800A62DB22D7608803EF7007708F9007908BF
:100B58000A128A11E2250A128A11C32D0230780678
:100B6800031DB72DB82DC32D7608C03EF7007708B2
:100B7800F90079080A128A11E2250A128A11080076
:100B8800193083160313990098131813981618121E
:100B98009811181598101810831203139817181322
:100BA8009812181698111811981018108C1283168C
:100BB80003138C16831203130C120800F50083121A
:100BC8000313091075080A128A1189260A128A1154
:100BD8008312031389140D30F400FB30F300F30B78
:100BE800F32DF40BF32DF82D83120313891008004D
:100C000006308A000408840A8207003441344434E0
:100C100043343A3420342034423454344E343A3459
:100C20002034543445344D3450343A340034F400D4
:100C300083120313091474080A128A1189260A12EE
:100C40008A118312031389141A30F300F30B262E32
:100C5000000083120313891008000B1D302E312E63
:100C6000362E0B11643083120313810071088A0041
:100C7000700E8300FE0E7E0E09008316031381138F
:100C80008112811101118114011064308312031348
:100C9000810008008B170B178B160B128B110B1191
:100CA0008B100B1083160313960108000230F60018
:100CB0007608F20000300A128A110C220A128A11F8
:100CC0000800831603130F178F160F128F110F11C1
:100CD0008F140F100800F20072088312031399009A
:100CE0000C1E732E742E702E080064008001840A7E
:100CF0000406031900340406762E0A128A11C4254C
:100D00000A128A110800F20072088312031393007A
:100D10000800F2007208831203138800080083128F
:060D200003131308080094
:04400E00D420FF3F7C
:00000001FF
