:020000040000FA
:060000000A128A110C280F
:10000800FE00030EF0000A08F1000A128A11AB2C58
:100018000A128A110F28FA01FB0183132030840089
:1000280035300A128A11E4240A128A1183010A124D
:100038008A110C29F500831603130710871007117E
:10004800871207168711522883120313941114116B
:100058009410141086288312031394111411941009
:100068001414862883120313941114119414141071
:1000780086288312031394111411941414148628D7
:1000880083120313941114159410141086288312E4
:100098000313941114159410141486287508F3008A
:1000A800F4017408003A03195A2886287308003A9C
:1000B80003192828013A03192F28033A0319362867
:1000C800013A03193D28073A03194428013A03194C
:1000D8004B288628831214128316031314139C28A2
:1000E800831214168316031314139C2883121412F4
:1000F8008316031314179C288312141683160313EC
:1001080014179C287208F300F4017408003A0319C4
:100118008E289C287308003A03196E28013A03199F
:100128007428033A03197A28013A031980289C286D
:10013800831603139413831203139416080083126F
:100148000313B601F31FA928AA28B128F209F30955
:10015800F20A0319F30AB601B60AF51FB428B5283E
:10016800BE28F409F509F40A0319F50A0130F60066
:100178007608B606B701B801720873040319C528D2
:10018800C628FD28B501B50AD42801300310F20DA0
:10019800F30DFF3E031DCA280130F6007608B507A7
:1001A800F31FD728D828C92801300310B70DB80D78
:1001B800FF3E031DD92873087502031DE528720840
:1001C8007402031CE828E928F0287208F40273086E
:1001D800031CF503F502371401300310F30CF20C7D
:1001E800FF3E031DF1280130B502031DFC28FD2840
:1001F800D82836080319012902290729B709B80997
:10020800B70A0319B80A3808F3003708F2000800DB
:100218000A128A11A7230A128A110A128A11D024F3
:100228000A128A110A128A11B9240A128A110A12A8
:100238008A111D220A128A110A128A11EC240A1242
:100248008A110A128A11C5240A128A118312031309
:100258000710C73083120313BA003229BA0B3129A9
:10026800352900300A128A11F2240A128A110A1258
:100278008A11FE240A128A11831203138500C730DB
:1002880083120313BA004829BA0B47294B29831252
:10029800031307140A128A1169230A128A11831296
:1002A80003132508013EBA003A08A5002408013EB8
:1002B800BA003A08A4002308013EBA003A08A3008D
:1002C8002A290A128A110C2883120313AF01AE01DE
:1002D8000A30F2000030F3000030F400F5000A1292
:1002E8008A11A3200A128A117208F9007908831268
:1002F8000313AC000A30F2000030F3000030F400C1
:10030800F5000A128A11C4210A128A117208F9002A
:10031800790883120313AD002D08F9007908AB00A2
:100328002F08303E0A128A1196240A128A112E309A
:100338000A128A1196240A128A11831203132C08AE
:10034800303E0A128A1196240A128A118312031364
:100358002B08303E0A128A1196240A128A11563046
:100368000A128A1196240A128A110A128A11C922BB
:100378000A128A110A128A11D5230A128A11080050
:10038800F801F51FC829C929D029F409F509F40A83
:100398000319F50AF801F80AF31FD329D429D92932
:1003A800F209F309F20A0319F30A7208730403192C
:1003B800DE29DF290E2AF701F70AED29013003109B
:1003C800F20DF30DFF3E031DE3290130F600760818
:1003D800F707F31FF029F129E22973087502031DB5
:1003E800F72972087402031CFA29FB29012A7208EA
:1003F800F4027308031CF503F50201300310F30C33
:10040800F20CFF3E031D022A0130F702031D0D2ADC
:100418000E2AF12978080319122A132A182AF4092E
:10042800F509F40A0319F50A7508F3007408F200CF
:10043800080000300A128A11F8240A128A111A30A8
:10044800F700F830F600F60B272AF70B272A0000EA
:1004580030300A128A1166240A128A118312031391
:10046800071087100730F7007D30F600F60B3A2AA0
:10047800F70B3A2A30300A128A1166240A128A11B6
:1004880083120313071087100F30F7004730F60068
:10049800F60B4C2AF70B4C2A512A30300A128A11D3
:1004A80066240A128A118312031307108710383042
:1004B8000A128A1166240A128A110C300A128A1149
:1004C80066240A128A1101300A128A1166240A1255
:1004D8008A1106300A128A1166240A128A11080043
:1004E800FB01FA010A30F2000030F3000030F4009A
:1004F800F5000A128A11A3200A128A117208F9005B
:10050800790883120313B2000A30F2000030F300B6
:100518000030F400F5000A128A11C4210A128A1167
:100528007208F900790883120313B3003308F9003D
:100538007908B1007B08303E0A128A1196240A1203
:100548008A112E300A128A1196240A128A118312ED
:1005580003133208303E0A128A1196240A128A11AD
:10056800831203133108303E0A128A1196240A12A4
:100578008A1156300A128A1196240A128A110A120E
:100588008A111A230A128A110800103083120313E1
:100598002402031CD02AD12A192B53300A128A119B
:1005A800DA240A128A1132300A128A11DA240A125B
:1005B8008A113A300A128A11DA240A128A1183122D
:1005C80003132F08303E0A128A11DA240A128A11FC
:1005D8002E300A128A11DA240A128A11831203139E
:1005E8002C08303E0A128A11DA240A128A11831260
:1005F80003132B08303E0A128A11DA240A128A11D0
:1006080056300A128A11DA240A128A1120300A1284
:100618008A11DA240A128A1120300A128A11DA247D
:100628000A128A1183120313A401080010308312DE
:1006380003132502031C212B222B682B53300A128B
:100648008A11DA240A128A1131300A128A11DA243C
:100658000A128A113A300A128A11DA240A128A1105
:100668007B08303E0A128A11DA240A128A112E30C7
:100678000A128A11DA240A128A1183120313320821
:10068800303E0A128A11DA240A128A1183120313DD
:100698003108303E0A128A11DA240A128A115630B9
:1006A8000A128A11DA240A128A1120300A128A11CF
:1006B800DA240A128A1120300A128A11DA240A125C
:1006C8008A1183120313A5010800F601F60A013006
:1006D8000A128A1124240A128A1101300A128A1174
:1006E800FF230A128A11F60102300A128A11242401
:1006F8000A128A110A128A1174220A128A11063001
:1007080083120313B9003908F60002300A128A115D
:1007180024240A128A110A128A1168210A128A11DB
:100728000E3083120313B9003908F60002300A129A
:100738008A1124240A128A1130300A128A11962446
:100748000A128A11080083160317880183160313F7
:100758008501831203138501831603178901831604
:10076800031386018312031386018316031387017B
:1007780083120313870183160313071307168312C3
:1007880003130714871407158316031388018312AC
:100798000313880183160313890183120313890144
:1007A80008001030831203132302031CDC2BDD2BFB
:1007B800FE2B43300A128A11DA240A128A113A30BF
:1007C8000A128A11DA240A128A1130300A128A119E
:1007D800DA240A128A1130300A128A11DA240A122B
:1007E8008A110D300A128A11DA240A128A11831228
:1007F8000313A3010800F700F501F601162C75088C
:10080800770784000A128A117F240A128A110A12B1
:100818008A1196240A128A110130F5070318F60A7C
:100828000030F6077508770784000A128A117F24BA
:100838000A128A11003A031D222C232C032C0800CB
:10084800F8007803031D292C2A2C362C7608803EC4
:10085800F7007708F90079080A128A1166240A1243
:100868008A11472C02307806031D3B2C3C2C472C60
:100878007608C03EF7007708F90079080A128A114D
:1008880066240A128A110800193083160313990086
:1008980098131813981618129811181598101810FC
:1008A8008312031398171813981218169811181111
:1008B800981018108C12831603138C1683120313C6
:1008C8000C120800F50083120313071075080A12AA
:1008D8008A11F8240A128A118312031307150730A4
:1008E800F4007D30F300F30B772CF40B772C831294
:1008F80003130711080004308A000408840A8207D9
:100908000034533431343A342034203420345334CE
:1009180032343A34203420342034533433343A34A3
:1009280020340034F40083120313071474080A12E5
:100938008A11F8240A128A118312031307150D303D
:10094800F300F30BA52C831203130711080083127D
:1009580003138C1EB02CB12CB22C8C1271088A0097
:10096800700E8300FE0E7E0E09008B170B178B127C
:100978000B128B110B118B100B108316031396019E
:1009880008000230F6007608F20000300A128A11D8
:100998001E200A128A110800831603130F178F16D8
:1009A8000F128F110F118F140F100800F200720828
:1009B8008312031399000C1EE22CE32CDF2C080091
:1009C80064008001840A0406031900340406E52C37
:1009D8000A128A1148240A128A110800F2007208C1
:1009E8008312031393000800F200720883120313A2
:0C09F80088000800831203131308080095
:04400E00D420FF3F7C
:00000001FF
