:020000040000FA
:100000000A128A11F32F8316031389018312031333
:1000100089018316031788018901073083160313AA
:10002000860083120313860183160313870183124C
:1000300003138701831603138801831203138801B6
:1000400083160313850183120313850108007708C3
:100050008039F800780883120313A4007708F800A9
:100060007807F9007908AB00F61F372838283928B7
:100070002B142B0803193D283E284E282B0A031D5C
:10008000422843284B280030F7000030F6000030AB
:10009000F5000030F400F617F70156280030F7009D
:1000A0000030F6000030F5000030F40073088039AD
:1000B000F8007808A4067308F8007807F9007908B2
:1000C000AC00F21F6428652866282C142C0803193C
:1000D0006A286B287B282C0A031D6F287028782833
:1000E0000030F3000030F2000030F1000030F0008A
:1000F000F217F30183280030F3000030F2000030E3
:10010000F1000030F0007308720471047004031DE4
:100110008A288B28A4280030F7000030F600003031
:10012000F5000030F4008030F6047F30F704240836
:10013000F8007808F7047708F3007608F2007508ED
:10014000F1007408F000092A2B08031DA828A9282B
:10015000B2280030F3000030F2000030F10000302F
:10016000F000092A2B08F800F9017908FB002C0897
:100170007802FA00031CFB037A087F3EA5007B0887
:100180000318013E003EA6007708A3007608A200EF
:100190007508A1007408A0000030F7000030F600D8
:1001A0000030F5000030F4000030AA000030A90053
:1001B0000030A8000030A700AC012E292C0803193C
:1001C000E228E32803290130F8000310A00DA10D57
:1001D000A20DA30DF80BE5280130F8000310F40D73
:1001E000F50DF60DF70DF80BEE28AA1FF828F928E3
:1001F000FA2874140130F8000310A70DA80DA90DFA
:10020000AA0DF80BFC2873082302031D112972089C
:100210002202031D112971082102031D11297008F2
:100220002002031C142915292A292A177008A00264
:100230007108031C710F1D291E29A1027208031CDD
:10024000720F23292429A2027308031C730F292982
:100250002A29A3020130F8007808AC071A302C02D2
:10026000031C33293429DE28230822042104200416
:1002700003193B293C295B2927145B290130F8002D
:100280000310F40DF50DF60DF70DF80B4029AA1F1C
:100290004A294B294C2974140130F8000310A70D8A
:1002A000A80DA90DAA0DF80B4E29FF30A5070318BC
:1002B000A60AFF30A607F61F5E295F293E29AC017A
:1002C000AA1F632964298029FF302705F800FF3021
:1002D0002805F900FF302905FA007F302A05FB00C8
:1002E0007B087A04790478040319772978297B2913
:1002F000AC01AC0A8029741C7E297F2980297829C9
:100300002C08031984298529B6290130F407003007
:1003100003180130F507003003180130F6070030EC
:1003200003180130F707771C96299729B629740816
:10033000F8007508F9007608FA007708FB0001302C
:10034000FC007B0DFB0CFA0CF90CF80CFC0BA12942
:100350007B08F7007A08F6007908F5007808F400C1
:100360000130A5070318A60A0030A6072608803A20
:10037000FF0080307F02031DBF29FF302502031CD0
:10038000C229C329D129FF3083120313A5000030ED
:10039000A6000030F7000030F6000030F500003015
:1003A000F400831203132608803AFF0080307F0296
:1003B000031DDC29013025020318DF29E029ED297E
:1003C00083120313A501A6010030F7000030F600E8
:1003D0000030F5000030F400A40183120313250857
:1003E000F8007808AB002B1CF629F729F929F61735
:1003F000FD297F30F8007808F6052B08F800031077
:10040000780CF9007908F7002408F8007808F70458
:100410009B2808008312031350088039D500550823
:10042000DD005008D5005507D6005608DF00CF1F65
:100430001A2A1B2A1C2A5F145F080319202A212A62
:10044000312A5F0A031D252A262A2E2A0030D000D1
:100450000030CF000030CE000030CD00CF17D001EB
:10046000392A0030D0000030CF000030CE000030FC
:10047000CD0054088039D5005508DE005E085D06C1
:100480000319432A442A452A5D175408D500550705
:10049000D6005608DE00D31F4E2A4F2A502A5E147B
:1004A0005E080319542A552A652A5E0A031D592A33
:1004B0005A2A622A0030D4000030D3000030D20023
:1004C0000030D100D317D4016D2A0030D4000030A1
:1004D000D3000030D2000030D1005F085E02031864
:1004E000722A732AB72A5D1F762A772A7B2A8030E0
:1004F000D5005508DD065F08D5005508E0005E0808
:10050000D5005508DF006008D5005508DE004D080D
:10051000D5005508E0005108D5005508CD00600809
:10052000D5005508D1004E08D5005508E000520806
:10053000D5005508CE006008D5005508D2004F08F8
:10054000D5005508E0005308D5005508CF006008D5
:10055000D5005508D3005008D5005508E0005408D0
:10056000D5005508D0006008D5005508D400E0013A
:100570005E08D500D6015608D8005F085502D7009E
:10058000031CD8035808803AFF0080307F02031D07
:10059000CB2A1A305702031CCE2ACF2A0C2B8312E7
:1005A000031350084F044E044D04031DD82ADA2AC1
:1005B0000130DB2A0030D5005508E0000030D000C3
:1005C0000030CF000030CE000030CD005E08D500F6
:1005D0005508DF00142B601CEE2AEF2AF82A600869
:1005E000D5000310550C0138D6005608E000FA2A51
:1005F0000310E00C4D1CFD2AFE2AFF2AE0170130F3
:10060000D500500DD00CCF0CCE0CCD0CD50B012B42
:100610000130D5005508DF07831203135E085F021F
:10062000031C132B142BEB2A5D1B172B182B632B8E
:100630005F08031D1C2B1D2B262B0030D000003023
:10064000CF000030CE000030CD00912C5108CD07F6
:10065000520803110318013E03192F2BCE0753082C
:1006600003110318013E0319362BCF075408031159
:100670000318013E03193D2BD007501C402B412B82
:10068000172C601C442B452B4E2B6008D500031003
:10069000550C0138D6005608E000502B0310E00C32
:1006A0004D1C532B542B552BE0170130D500500D0A
:1006B000D00CCF0CCE0CCD0CD50B572B0130D50068
:1006C0005508DF07172C5008803AFF005408803A7D
:1006D0007F02031D752B53084F02031D752B520813
:1006E0004E02031D752B51084D020318782B792BF0
:1006F000D12BFF30D500FF30D600FF30D700FF30C0
:10070000D8005108D9005208DA005308DB00540819
:10071000DC004D08D9024E08031C4E0F902B912B84
:10072000DA024F08031C4F0F962B972BDB02500861
:10073000031C500F9C2B9D2BDC025908D5075A082F
:1007400003185A0FA42BA52BD6075B0803185B0FC1
:10075000AA2BAB2BD7075C0803185C0AD8075808EC
:10076000D0005708CF005608CE005508CD00803085
:10077000D5005508DD06E009E00A6008031DC12B1D
:10078000C22BDF2B0130CD07003003180130CE071C
:10079000003003180130CF07003003180130D007B4
:1007A000DF2B5108CD025208031C520FCE02530812
:1007B000031C530FCF025408031C540FD0025008DF
:1007C0004F044E044D04031DE62BE72B132C600849
:1007D000031DEB2BEC2B132C0030D0000030CF008E
:1007E0000030CE000030CD00912C0130D500031038
:1007F000CD0DCE0DCF0DD00DD50BF72BE01F012C5D
:10080000022C032C4D14601C062C072C0A2C0314FC
:10081000E00D0C2C0310E00D5F080319102C112CB7
:10082000132C0130DF02CF1F162C172CF52BDE0105
:10083000E01F1B2C1C2C2A2C60087F390319212C4B
:10084000222C252CDE01DE0A2A2C4D1C282C292CDA
:100850002A2C222C5E0803192E2C2F2C632C0130FD
:10086000CD07003003180130CE07003003180130E7
:10087000CF07003003180130D007501C402C412C0A
:10088000632C4D08D5004E08D6004F08D7005008FD
:10089000D8000130D900580DD80CD70CD60CD50C87
:1008A000D90B4B2C5808D0005708CF005608CE0063
:1008B0005508CD005F0A03195E2C5F2C632C0130B4
:1008C000D5005508DF075F0A0319672C682C6D2CCB
:1008D0005F08031D6C2C6D2C7B2C0030D000003089
:1008E000CF000030CE000030CD005F08031D792C12
:1008F0007A2C7B2CDD015F1C7E2C7F2C812CCF176A
:10090000852C7F30D5005508CF055F08D500031032
:10091000550CD6005608D000DD1F8F2C902C912C42
:10092000D01708008312031336088039BB003B0838
:10093000C0003608BB003B07BC003C08C600B51F22
:10094000A22CA32CA42C461446080319A82CA92CCD
:10095000B82C460A031DAD2CAE2CB62C0030B600C8
:100960000030B5000030B4000030B300B517C02C23
:100970000030B6000030B5000030B4000030B300E5
:100980003A088039BB003B08C0063A08BB003B0769
:10099000BC003C08C100B91FCE2CCF2CD02C411478
:1009A00041080319D42CD52CE42C410A031DD92C61
:1009B000DA2CE22C0030BA000030B9000030B80068
:1009C0000030B700B917EC2C0030BA000030B90085
:1009D0000030B8000030B70041080319F02CF12CAA
:1009E000F62C4608031DF52CF62CFF2C0030B60023
:1009F0000030B5000030B4000030B300F22F3308EF
:100A0000BB003B08F00039080A168A1156230A1267
:100A10008A11710883120313CC007008CB004B08B5
:100A2000BB00BC01BD01BE013E08C5003D08C400BD
:100A30003C08C3003B08C2004C08BB00BC01BD0120
:100A4000BE013E08CA003D08C9003C08C8003B087A
:100A5000C7003408BB003B08F00038080A168A11AA
:100A600056230A128A11710883120313CC007008EE
:100A7000CB004B08BB00BC01BD01BE013B08C20757
:100A80003C0803110318013E0319472DC3073D0815
:100A900003110318013E03194E2DC4073E0803112C
:100AA0000318013E0319552DC5074C08BB00BC01B6
:100AB000BD01BE013B08C7073C0803110318013EF6
:100AC0000319632DC8073D0803110318013E0319DC
:100AD0006A2DC9073E0803110318013E0319712D41
:100AE000CA073508BB003B08F00037080A168A1110
:100AF00056230A128A11710883120313CC0070085E
:100B0000CB004B08BB00BC01BD01BE013B08C207C6
:100B10003C0803110318013E03198F2DC3073D083C
:100B200003110318013E0319962DC4073E08031153
:100B30000318013E03199D2DC5074C08BB00BC01DD
:100B4000BD01BE013B08C7073C0803110318013E65
:100B50000319AB2DC8073D0803110318013E031903
:100B6000B22DC9073E0803110318013E0319B92D20
:100B7000CA070830BB000310C20DC30DC40DC50D5C
:100B8000BB0BBB2D3408BB003B08F00037080A162E
:100B90008A1156230A128A11710883120313CC009A
:100BA0007008CB004B08BB004C08BC00BD01BE0167
:100BB0003B08C2073C0803110318013E0319E12D4D
:100BC000C3073D0803110318013E0319E82DC407AC
:100BD0003E0803110318013E0319EF2DC507330822
:100BE000BB003B08F00038080A168A1156230A1287
:100BF0008A11710883120313CC007008CB004B08D4
:100C0000BB004C08BC00BD01BE013B08C2073C084C
:100C100003110318013E03190E2EC3073D080311EB
:100C20000318013E0319152EC4073E0803110318CB
:100C3000013E03191C2EC5070830BB000310C20D6E
:100C4000C30DC40DC50DBB0B1E2E3308BB003B08E6
:100C5000F00037080A168A1156230A128A11710801
:100C600083120313CC007008CB004B08BB004C0868
:100C7000BC00BD01BE013B08C2073C0803110318BC
:100C8000013E0319442EC3073D0803110318013E1A
:100C900003194B2EC4073E0803110318013E031924
:100CA000522EC5073408BB003B08F00039080A166D
:100CB0008A1156230A128A11710883120313CC0079
:100CC0007008CB004B08BB004C08BC00BD01BE0146
:100CD0003B08C7073C0803110318013E0319712E96
:100CE000C8073D0803110318013E0319782EC907F0
:100CF0003E0803110318013E03197F2ECA07350869
:100D0000BB003B08F00038080A168A1156230A1265
:100D10008A11710883120313CC007008CB004B08B2
:100D2000BB004C08BC00BD01BE013B08C7073C0826
:100D300003110318013E03199E2EC8073D08031135
:100D40000318013E0319A52EC9073E080311031815
:100D5000013E0319AC2ECA073508BB003B08F00062
:100D600039080A168A1156230A128A117108831249
:100D70000313CC007008CB004B08BB004C08BC0030
:100D8000BD01BE0108300310BB0DBC0DBD0DBE0D75
:100D9000FF3E031DC32E3B08C7073C080311031881
:100DA000013E0319D42EC8073D0803110318013E64
:100DB0000319DB2EC9073E0803110318013E03196E
:100DC000E22ECA074208BB004308BC004408BD002D
:100DD0004508BE0018300310BE0CBD0CBC0CBB0C8B
:100DE000FF3E031DEB2E3B08C7073C080311031809
:100DF000013E0319FC2EC8073D0803110318013EEC
:100E00000319032FC9073E0803110318013E0319F4
:100E10000A2FCA070830BB000310C20DC30DC40D52
:100E2000C50DBB0B0C2F46084107BB00BC01BC0D18
:100E30003B08823ECB003C080318013EFF3ECC003D
:100E40003E2F0130BB000310C70DC80DC90DCA0DE0
:100E5000BB0B232FC51F2D2F2E2F2F2F47140130F3
:100E6000BB000310C20DC30DC40DC50DBB0B312F4C
:100E7000FF30CB070318CC0AFF30CC07C91F412F26
:100E8000422F212FC101C51F462F472F632FFF304F
:100E90004205BB00FF304305BC00FF304405BD00E8
:100EA0007F304505BE003E083D043C043B04031969
:100EB0005A2F5B2F5E2FC101C10A632F471C612F80
:100EC000622F632F5B2F41080319672F682F992F1B
:100ED0000130C707003003180130C807003003187D
:100EE0000130C907003003180130CA074A1C792FA6
:100EF0007A2F992F4708BB004808BC004908BD005D
:100F00004A08BE000130BF003E0DBE0CBD0CBC0C3B
:100F1000BB0CBF0B842F3E08CA003D08C9003C082B
:100F2000C8003B08C7000130CB070318CC0A0030CB
:100F3000CC074C08803AFF0080307F02031DA22FAF
:100F4000FF304B02031CA52FA62FB12F7F30831239
:100F50000313CA008030C9000030C8000030C70049
:100F6000E62F831203134C08803AFF0080307F0283
:100F7000031DBC2F01304B020318BF2FC02FCC2FF5
:100F8000003083120313CA000030C9000030C800CB
:100F90000030C700C001E62F831203134B08BB00CB
:100FA0003B08C600FF30C705FF30C8057F30C905C4
:100FB0000030CA05461CDD2FDE2FDF2FC91746087B
:100FC000BB0003103B0CBC003C08CA004008BB003F
:100FD0003B08CA044A08B6004908B5004808B400EE
:100FE0004708B30008008313D4308400E6300A16A3
:100FF0008A1120230A128A1183010A168A117D2B75
:10100000803083120313E4066808D0006708CF001D
:101010006608CE006508CD006408D4006308D300DC
:101020006208D2006108D1000A128A110A220A124B
:101030008A15831203135008E4004F08E3004E089A
:10104000E2004D08E1000800031083120313220D93
:10105000230DA4002408AA002A08031D30283128E3
:101060003A280030A3000030A2000030A100003078
:10107000A0009F282008A4002108A5002208A6009F
:101080002308A7001F300310A70CA60CA50CA40C66
:10109000FF3E031D43282408A8002808A900A21722
:1010A000FF30A005FF30A105FF30A2050030A305E9
:1010B0009630AA02AA1F5D285E2878282A08803A5E
:1010C000973E0318642865286628312801300310EC
:1010D000A30CA20CA10CA00CFF3E031D672801303D
:1010E000A4002408AA07031D7628772866288F28DD
:1010F00020302A02031C7D287E288A2831280130CE
:10110000A4000310A00DA10DA20DA30DA40B812816
:101110000130AA022A08031D8E288F287F2829085B
:101120000319932894289F28A009A109A209A309BB
:10113000A00A0319A10A0319A20A0319A30A0800A5
:10114000831203136608E80001300310E80DFF3E28
:10115000031DA5280310680D650784000A168A116F
:1011600000200A128A15E9000A168A1100200A12C4
:101170008A15EA000A168A1100200A128A15EB0065
:101180000A168A1100200A128A15EC006C088316D0
:101190000313A300831203136B0883160313A20027
:1011A000831203136A0883160313A1008312031327
:1011B000690883160313A0005B29FF30E6070318B4
:1011C000E70AFF30E7076608E80001300310E80D82
:1011D000FF3E031DE6280310680D650784000A160C
:1011E0008A1100200A128A15E9000A168A110020C5
:1011F0000A128A15EA000A168A1100200A128A15B4
:10120000EB000A168A1100200A128A15EC006C08FD
:10121000D0006B08CF006A08CE006908CD008316A5
:101220000313230883120313B60083160313220843
:1012300083120313B50083160313210883120313CB
:10124000B40083160313200883120313B300640849
:10125000BA006308B9006208B8006108B7000A1252
:101260008A1192240A128A15831203133608D400B5
:101270003508D3003408D2003308D1000A128A118D
:101280000A220A128A1583120313500883160313C5
:10129000A300831203134F0883160313A2008312C3
:1012A00003134E0883160313A100831203134D0882
:1012B00083160313A0008312031366086704031D3B
:1012C00062296329DD28831603132308831203137D
:1012D000E40083160313220883120313E30083162A
:1012E0000313210883120313E2008316031320085B
:1012F00083120313E10008008316031327088312E7
:101300000313A30083160313260883120313A200FA
:1013100083160313250883120313A10083160313F6
:10132000240883120313A0000030A7000030A60099
:101330000030A5000030A4000A168A11BB230A124F
:101340008A15031CA429A529B0290030831603138C
:10135000A7000030A6000030A5000030A400592AE4
:101360008316031327087F3983120313ED00EE0160
:101370000310ED0DEE0D6D0883160313A807031877
:10138000A90A831203136E0883160313A907260DF7
:10139000260D013983120313ED00EE016D0883164B
:1013A0000313A8070318A90A831203136E088316F0
:1013B0000313A907A91FDD29DE29EB292230D40058
:1013C0000030D5000030A7000030A6000030A50096
:1013D0000030A400592A2908803AFF0081307F029A
:1013E000031DF42900302802031CF729F8292D2AAF
:1013F000223083160313D4000030D5002708F300F1
:101400002608F2002508F1002408F0000030F7005B
:101410000030F6000030F5000030F4000A168A11A2
:1014200067240A128A150318162A172A222AFF305F
:1014300083160313A7007F30A600FF30A500FF30FE
:10144000A400592A7F3083160313A7007F30A6001B
:10145000FF30A500FF30A400592A83160313290882
:1014600083120313EE008316031328088312031359
:10147000ED006E0DEE0CED0C83160313270883129E
:1014800003136D0680396D0683160313A700280821
:10149000013983120313ED00ED0CED0C83160313D9
:1014A0002608831203136D067F396D068316031316
:1014B000A6000800831603132708F3002608F2008D
:1014C0002508F1002408F0000030F7000030F60095
:1014D0000030F5000030F4000A168A1167240A1261
:1014E0008A150318742A752A842A21308316031357
:1014F000D4000030D5000030A7000030A600003036
:10150000A5000030A400CD2B8316031327088312F7
:101510000313A30083160313260883120313A200E8
:1015200083160313250883120313A10083160313E4
:10153000240883120313A0000030A7000030A60087
:101540000030A5000030A4000A168A11BB230A123D
:101550008A15031CAC2AAD2ABC2A22308316031339
:10156000D4000030D5000030A7000030A6000030C5
:10157000A5000030A400CD2BBF3083120313D00090
:101580008030CF000030CE000030CD004030B600BB
:101590000030B5000030B4000030B3006E30ED0014
:1015A0006D08B00083160313270883120313AF00DE
:1015B00083160313260883120313AE008316031346
:1015C000250883120313AD00831603132408831226
:1015D0000313AC000A168A110B240A128A1583120F
:1015E00003132F08BA002E08B9002D08B8002C08E4
:1015F000B7000A128A1192240A128A158312031361
:101600003608D4003508D3003408D2003308D1009E
:101610000A128A110A220A128A1583120313500829
:1016200083160313A700831203134F0883160313B3
:10163000A600831203134E0883160313A50083121A
:1016400003134D0883160313A400FF308312031302
:10165000EE070318EF0AFF30EF078316031327087E
:1016600083120313E4008316031326088312031363
:10167000E30083160313250883120313E200831685
:101680000313240883120313E1002930ED006D08D1
:10169000E5000830E6000030E7000A128A15A020B5
:1016A0000A128A1583120313640883160313A70012
:1016B00083120313630883160313A6008312031314
:1016C000620883160313A5008312031361088316AF
:1016D0000313A400270883120313D00083160313F7
:1016E000260883120313CF008316031325088312E1
:1016F0000313CE0083160313240883120313CD00B3
:101700003F30B6003130B5007230B4001830B3004D
:101710006E08F0006F08F1000030F11BFF30F2009E
:10172000F30001300A168A1109250A128A15730876
:1017300083120313BA007208B9007108B800700868
:10174000B7000A128A1192240A128A15831203130F
:101750003608D4003508D3003408D2003308D1004D
:101760000A128A110A220A128A15831203135008D8
:1017700083160313A700831203134F088316031362
:10178000A600831203134E0883160313A5008312C9
:1017900003134D0883160313A400080083160313D4
:1017A000C701390883120313A300831603133808F3
:1017B00083120313A2008316031337088312031343
:1017C000A10083160313360883120313A000003010
:1017D000A7000030A6000030A5000030A4000A16C3
:1017E0008A11BB230A128A15031CF72BF82B242C11
:1017F0000030F3000030F2000030F1000030F00063
:10180000831603133D08F7003C08F6003B08F5007B
:101810003A08F4000A168A1167240A128A15031C72
:10182000122C132C192C213083160313D4000030F2
:10183000D500003083160313B9000030B800003023
:10184000B7000030B600A62D831603133D0883129F
:101850000313A300831603133C0883120313A2008F
:10186000831603133B0883120313A100831603138B
:101870003A0883120313A0000030A7000030A6002E
:101880000030A5000030A4000A168A11BB230A12FA
:101890008A15031C4C2C4D2C582C3F3083160313F7
:1018A000B9008030B8000030B7000030B600A62D77
:1018B000831603133908F3003808F2003708F100E3
:1018C0003608F0000030F7000030F6000030F50078
:1018D0000030F4000A168A1167240A128A150318C8
:1018E000722C732C0E2D831603133D0883120313E1
:1018F000A300831603133C0883120313A20083166C
:1019000003133B0883120313A100831603133A0841
:1019100083120313A0000A128A1524200A128A15C2
:1019200083120313230883160313CB0083120313BC
:10193000220883160313CA00831203132108831697
:101940000313C90083120313200883160313C8006E
:101950004B08F3004A08F2004908F1004808F0007B
:1019600000300A168A1109250A128A157308831293
:101970000313A3007208A2007108A1007008A00060
:10198000831603133D0883120313A7008316031362
:101990003C0883120313A600831603133B0883122B
:1019A0000313A500831603133A0883120313A4003C
:1019B0000A168A11BB230A128A150318E02CE12C9F
:1019C000F02C213083160313D4000030D5000030F2
:1019D000B9000030B8000030B7000030B600A62DC6
:1019E0008316031348080139BE003E08C7003908B2
:1019F000F3003808F2003708F1003608F0000A1644
:101A00008A1128230A128A15730883160313B90052
:101A10007208B8007108B7007008B6008316031387
:101A20003908A7003808A6003708A5003608A40022
:101A30000A128A155A220A128A15831603132708D6
:101A4000C2002608C1002508C0002408BF003D08C8
:101A500083120313B600831603133C088312031387
:101A6000B500831603133B0883120313B4008316D7
:101A700003133A0883120313B300831603134208B7
:101A800083120313BA00831603134108831203134E
:101A9000B90083160313400883120313B80083169A
:101AA00003133F0883120313B7000A128A1192240A
:101AB0000A128A1583120313360883160313C6000D
:101AC00083120313350883160313C500831203130F
:101AD000340883160313C4008312031333088316D8
:101AE0000313C3004608AD004508AC004408AB0032
:101AF0004308AA000A128A15A7250A128A15831616
:101B000003132D08B9002C08B8002B08B7002A08C9
:101B1000B600470803198D2D8E2DA62D3908F30028
:101B20003808F2003708F1003608F0000A168A116A
:101B300028230A128A15730883160313B900720842
:101B4000B8007108B7007008B600A62D080083160B
:101B500003132D0883120313A300831603132C0809
:101B600083120313A200831603132B08831203139B
:101B7000A100831603132A0883120313A000003068
:101B8000A7000030A6000030A5000030A4000A160F
:101B90008A11BB230A128A15031CCF2DD02DDB2DF1
:101BA0003F3083160313AD008030AC000030AB0033
:101BB0000030AA00FF2F4430F3003130F2007230C1
:101BC000F1001830F000831603132D08F7002C08DD
:101BD000F6002B08F5002A08F4000A168A1167247B
:101BE0000A128A150318F52DF62D052E22308316BC
:101BF0000313D4000030D5007F30AD007F30AC003F
:101C0000FF30AB00FF30AA00FF2F831603132D080F
:101C1000F3002C08F2002B08F1002A08F000C43071
:101C2000F7003A30F6004830F5008730F4000A1625
:101C30008A1167240A128A1503181F2E202E2F2EB0
:101C4000223083160313D4000030D5000030AD00DD
:101C50000030AC000030AB000030AA00FF2F83162C
:101C600003132D08F3002C08F2002B08F1002A08BA
:101C7000F0000030F7000030F6000030F5000030D2
:101C8000F4000A168A1167240A128A15031C492EC9
:101C90004B2E01304C2E003083160313AE002E085D
:101CA000B50035080319552E562E6D2E2D08F3005C
:101CB0002C08F2002B08F1002A08F0000A168A11FD
:101CC00028230A128A15730883160313AD007208BD
:101CD000AC007108AB007008AA003F3083120313F8
:101CE000B600B830B500AA30B4003B30B30083165C
:101CF00003132D0883120313BA00831603132C0851
:101D000083120313B900831603132B0883120313E2
:101D1000B800831603132A0883120313B7000A12AC
:101D20008A1192240A128A15831203133608831625
:101D30000313AD0083120313350883160313AC009D
:101D400083120313340883160313AB0083120313A7
:101D5000330883160313AA002D0883120313E4002B
:101D6000831603132C0883120313E3008316031353
:101D70002B0883120313E200831603132A0883122D
:101D80000313E1000A168A11C3250A128A15831269
:101D90000313640883160313B2008312031363084A
:101DA00083160313B100831203136208831603130F
:101DB000B00083120313610883160313AF003208C7
:101DC00083120313A3008316031331088312031332
:101DD000A20083160313300883120313A100831695
:101DE00003132F0883120313A0000A128A1524205C
:101DF0000A128A1583120313210883160313B400F1
:101E000083120313200883160313B3003308F00072
:101E10003408F1000030F11BFF30F200F300013014
:101E20000A168A1109250A128A15730883120313E8
:101E3000E4007208E3007108E2007008E100831614
:101E400003132D0883120313E800831603132C08D1
:101E500083120313E700831603132B088312031363
:101E6000E600831603132A0883120313E5000A12FF
:101E70008A1500200A128A15831203136408831638
:101E80000313AD0083120313630883160313AC001E
:101E900083120313620883160313AB008312031328
:101EA000610883160313AA002D0883120313E400AC
:101EB000831603132C0883120313E3008316031302
:101EC0002B0883120313E200831603132A088312DC
:101ED0000313E100013083160313AE002E088312B2
:101EE0000313E5000930E6000030E7000A128A1506
:101EF000A0200A128A1583120313640883160313A1
:101F0000A70083120313630883160313A60083122A
:101F10000313620883160313A500831203136108D9
:101F200083160313A4003408A9003308A8000A127A
:101F30008A157C210A128A15831603132708AD001F
:101F40002608AC002508AB002408AA0035080319B0
:101F5000AA2FAB2FFF2F2D0883120313A300831684
:101F600003132C0883120313A200831603132B08F8
:101F700083120313A100831603132A088312031389
:101F8000A0007F30A7007F30A600FF30A500FF3003
:101F9000A4000A168A11BB230A128A15031CD12F2A
:101FA000D22FDD2F003083160313AD000030AC00BC
:101FB0000030AB000030AA00FF2F831603132D085A
:101FC000F3002C08F2002B08F1002A08F0003F3043
:101FD000F7008030F6000030F5000030F4000A12FF
:101FE0008A1127200A128A15730883160313AD007D
:101FF0007208AC007108AB007008AA00FF2F08003F
:1020000010308A000408840A820700340034003447
:1020100080343F341834723431343F34F034FD347A
:1020200075343E344734583463343D345834953431
:102030001D343C348234C434AE343A34A834783459
:1020400021343934EF34933480343734A03492342B
:10205000A73435344634563415343434003400341F
:1020600000340034C434FF347F343F348034EF34E0
:10207000FF34BE349034E134A9343E34EC3482343D
:102080007634BE348234AD342B343E340E343C349A
:10209000C334BD348734D13413343D3441347834BF
:0420A000D334BB3446
:10263400831203130915091089100800640080012E
:10264400840A0406031900340406212B7308720457
:102654007104700403192F2B302B322B8030F306B6
:1026640008008312031309140830F2001B30F10030
:102674002730F000F00B3C2BF10B3C2BF20B3C2BE6
:1026840083120313091089140830F2001B30F1007F
:102694002730F000F00B4C2BF10B4C2BF20B4C2B96
:1026A4008312031389100800F800F401F50170087F
:1026B400F200F3017208F6007308F700781C632B2C
:1026C400642B6A2B7608F4070318F50A7708F507D4
:1026D40001300310F60DF70DFF3E031D6B2B0310A5
:1026E400F80C7808031D772B782B602B7508F10004
:1026F4007408F00008000A128A1103200A168A11CD
:10270400831203130618872B882B992B05198B2BFF
:102714008C2B992B0A168A1133230A168A110A164E
:102724008A111A230A168A11831203130515051830
:102734009C2B9D2B822B8518A02BA12B822B051C57
:10274400A42BA52BA72B0611822B851CAA2BAB2B04
:10275400AD2B8610822B0A168A1182260A168A113C
:102764000A168A1141270A168A11822B0A128A1123
:1027740000280030831203132005A800003021052F
:10278400A90080302205AA007F302305AB002B0866
:102794002A0429042804031DD02BD12BD92B003063
:1027A400A3000030A2000030A1000030A0000030DF
:1027B4002405A80000302505A90080302605AA00BC
:1027C4007F302705AB002B082A0429042804031DA5
:1027D400EC2BED2BF52B0030A7000030A6000030C9
:1027E400A5000030A40027082306031D032C260897
:1027F4002206031D032C25082106031D032C24088F
:1028040020060319062C072C092C03100A2C031488
:102814000800831203132F08A3002E08A2002D081A
:10282400A1002C08A0000030A7000030A600003052
:10283400A5000030A4000A168A11BB230A168A11C7
:10284400031C252C262C372C8312031330088400F8
:1028540083138001840A80010030AF000030AE0091
:102864000030AD000030AC00662C831203132F0837
:102874007F39B100B2010310B10DB20D30088400EC
:10288400310883138000840A320880002E0D2E0D37
:102894000139B100B2013008840031088004840A8F
:1028A400320880043008840082308007840F0008D6
:1028B4000318000AFF00FF307F07800084032F08FD
:1028C40080393F38AF00AE13080000307005F800BF
:1028D40000307105F90080307205FA007F3073050D
:1028E400FB007B087A0479047804031D7A2C7B2C82
:1028F400832C0030F3000030F2000030F10000308F
:10290400F00000307405F80000307505F9008030DF
:102914007605FA007F307705FB007B087A0479049A
:102924007804031D962C972C9F2C0030F700003060
:10293400F6000030F5000030F400F31FA22CA32CA5
:10294400C72C0030F8000030F9000030FA00803065
:10295400FB007008F8027108031C710FB22CB32C31
:10296400F9027208031C720FB82CB92CFA0273080E
:10297400031C730FBE2CBF2CFB027B08F3007A08E8
:10298400F2007908F1007808F000F71FCA2CCB2C6C
:10299400EF2C0030F8000030F9000030FA008030ED
:1029A400FB007408F8027508031C750FDA2CDB2C85
:1029B400F9027608031C760FE02CE12CFA02770862
:1029C400031C770FE62CE72CFB027B08F7007A0840
:1029D400F6007908F5007808F4008030F3068030BA
:1029E400F70677087302031D012D76087202031D92
:1029F400012D75087102031D012D7408700203185E
:102A0400042D052D072D0310082D03140800F800CC
:102A1400780803190E2D0F2D232DF31F122D132DBE
:102A2400232D7009FA007109FB007209FC00730977
:102A3400FD00FA0A0319FB0A0319FC0A0319FD0A2B
:102A44002B2D7308FD007208FC007108FB00700850
:102A5400FA007308720471047004031D322D332DBF
:102A64003C2D0030F3000030F2000030F100003063
:102A7400F000C22D9630F4007408F9004E2D013098
:102A8400F4007408F90701300310FD0CFC0CFB0C76
:102A9400FA0CFF3E031D462DFE307D05031D532D0C
:102AA400542D412D702D0130F4007408F9070130C4
:102AB400FA07003003180130FB0700300318013017
:102AC400FC07003003180130FD0701300310FD0C32
:102AD400FC0CFB0CFA0CFF3E031D682DFF307D053A
:102AE400031D752D762D552D822D0130F9020130EF
:102AF400F4000310FA0DFB0DFC0DFD0DF40B7B2D02
:102B0400FC1B852D862D8C2D0230790203188B2D0C
:102B14008C2D772D79188F2D902D982DFF30FA0557
:102B2400FF30FB057F30FC05FF30FD050310F90C79
:102B34007908F400F501F601F70118300310F40DDB
:102B4400F50DF60DF70DFF3E031DA02D7408FA04D4
:102B54007508FB047608FC047708FD04780803195B
:102B6400B42DB52DBA2DF31FB82DB92DBA2DFD17DF
:102B74007D08F3007C08F2007B08F1007A08F0007D
:102B84000800831203136408AF006308AE006208F0
:102B9400AD006108AC006A30E5006508B0000A16B3
:102BA4008A110B240A168A1183120313EB1FDB2DDF
:102BB400DC2D0B2E6408F3006308F2006208F100B8
:102BC4006108F0000030F7000030F6000030F50036
:102BD4000030F4000A168A1167240A168A110318B1
:102BE400F42DF52D002EBF3083120313E400803042
:102BF400E3000030E2000030E100812E0030831257
:102C04000313E4000030E3000030E2000030E10090
:102C1400812E00306B021D3003196A02031C132E2F
:102C2400142E152E812E6408A3006308A2006208E6
:102C3400A1006108A0000A128A1524200A168A112C
:102C4400831203132308F3002208F2002108F10081
:102C54002008F00001300A168A1109250A168A1183
:102C6400730883120313E9007208E8007108E7008F
:102C74007008E6006408F3006308F2006208F100DB
:102C84006108F0006908F7006808F6006708F500B5
:102C94006608F4000A168A1167240A168A110318B2
:102CA400542E552E772EBF3083120313D00080305C
:102CB400CF000030CE000030CD006908D400680891
:102CC400D3006708D2006608D1000A128A110A22CA
:102CD4000A168A11831203135008E4004F08E30014
:102CE4004E08E2004D08E100812E831203136908A7
:102CF400E4006808E3006708E2006608E1000800F1
:102D040083120313051D872E882E402F86188B2EC1
:102D14008C2E212F831603136408013EE4006508FA
:102D24000318013E003EE500E201E3016508803A34
:102D3400FF0081307F02031DA12EF5306402031CC5
:102D4400A42EA52E402F8316031360086104031DCF
:102D5400AC2EAD2E1C2F5E08F0005F08F100003091
:102D6400F11BFF30F200F30001300A168A11092525
:102D74000A168A11730883160313CF007208CE0053
:102D84007108CD007008CC004F08BD004E08BC008F
:102D94004D08BB004C08BA004030B9000030B80000
:102DA4000030B7000030B6000A128A15CE230A1686
:102DB4008A11831603133908D3003808D200370860
:102DC400D1003608D000530883120313A3008316DE
:102DD4000313520883120313A2008316031351082A
:102DE40083120313A10083160313500883120313E1
:102DF400A0000A128A1524200A168A1183120313CA
:102E040020088700831603135E08013EDE005F0876
:102E14000318013E003EDF000130E0000030E10015
:102E240008305E065F04031D182F192F1C2F831210
:102E34000313051483160313E401E501402F8316DD
:102E440003136208013EE20063080318013E003EDA
:102E5400E300E401E5016308803AFF0081307F026A
:102E6400031D362FF5306202031C392F3A2F402FF1
:102E740083160313E001E101E201E3010800831278
:102E84000313051D462F472FFF2F06194A2F4B2FDB
:102E9400E02F831603135C08013EDC005D08031871
:102EA400013E003EDD00DA01DB015D08803AFF00EF
:102EB40081307F02031D602FF5305C02031C632FF9
:102EC400642FFF2F8316031358085904031D6B2F17
:102ED4006C2FDB2F5608F0005708F1000030F11B6F
:102EE400FF30F200F30001300A168A1109250A1690
:102EF4008A11730883160313CF007208CE00710879
:102F0400CD007008CC004F08BD004E08BC004D0831
:102F1400BB004C08BA004030B9000030B8000030A3
:102F2400B7000030B6000A128A15CE230A168A1199
:102F3400831603133908D3003808D2003708D100A8
:102F44003608D000530883120313A3008316031317
:102F5400520883120313A200831603135108831229
:102F64000313A10083160313500883120313A00054
:102F74000A128A1524200A168A11831203132008C0
:102F84008800831603135608013ED6005708031819
:102F9400013E003ED7000130D8000030D90008308F
:102FA40056065704031DD72FD82FDB2F8312031384
:102FB400851483160313DC01DD01FF2F831603132D
:102FC4005A08013EDA005B080318013E003EDB00AC
:102FD400DC01DD015B08803AFF0081307F02031DC4
:102FE400F52FF5305A02031CF82FF92FFF2F831603
:0C2FF4000313D801D901DA01DB01080049
:04400E00D120FF3F7F
:00000001FF
