:020000040000FA
:060000000A128A11F52F1F
:10000A0083160313890183120313890183160317C5
:10001A0088018901073083160313860083120313AC
:10002A00860183160313870183120313870183163C
:10003A0003138801831203138801831603138501AE
:10004A00831203138501080077088039F8007808BD
:10005A0083120313A4007708F8007807F9007908D7
:10006A00AB00F61F39283A283B282B142B08031912
:10007A003F28402850282B0A031D442845284D288C
:10008A000030F7000030F6000030F5000030F400D0
:10009A00F617F70158280030F7000030F600003054
:1000AA00F5000030F40073088039F8007808A406D7
:1000BA007308F8007807F9007908AC00F21F66287F
:1000CA00672868282C142C0803196C286D287D28A9
:1000DA002C0A031D712872287A280030F300003098
:1000EA00F2000030F1000030F000F217F301852829
:1000FA000030F3000030F2000030F1000030F00070
:10010A007308720471047004031D8C288D28A628B4
:10011A000030F7000030F6000030F5000030F4003F
:10012A008030F6047F30F7042408F8007808F704D2
:10013A007708F3007608F2007508F1007408F000F9
:10014A000B2A2B08031DAA28AB28B4280030F30079
:10015A000030F2000030F1000030F0000B2A2B08CA
:10016A00F800F9017908FB002C087802FA00031C50
:10017A00FB037A087F3EA5007B080318013E003E78
:10018A00A6007708A3007608A2007508A1007408E3
:10019A00A0000030F7000030F6000030F500003013
:1001AA00F4000030AA000030A9000030A800003096
:1001BA00A700AC0130292C080319E428E5280529F1
:1001CA000130F8000310A00DA10DA20DA30DF80B2C
:1001DA00E7280130F8000310F40DF50DF60DF70DC0
:1001EA00F80BF028AA1FFA28FB28FC2874140130FF
:1001FA00F8000310A70DA80DA90DAA0DF80BFE28EB
:10020A0073082302031D132972082202031D1329EE
:10021A0071082102031D132970082002031C1629E4
:10022A0017292C292A177008A0027108031C710FBC
:10023A001F292029A1027208031C720F25292629C9
:10024A00A2027308031C730F2B292C29A302013065
:10025A00F8007808AC071A302C02031C3529362915
:10026A00E028230822042104200403193D293E29F9
:10027A005D2927145D290130F8000310F40DF50DEE
:10028A00F60DF70DF80B4229AA1F4C294D294E29C4
:10029A0074140130F8000310A70DA80DA90DAA0DBA
:1002AA00F80B5029FF30A5070318A60AFF30A60746
:1002BA00F61F602961294029AC01AA1F6529662910
:1002CA008229FF302705F800FF302805F900FF30A2
:1002DA002905FA007F302A05FB007B087A04790495
:1002EA007804031979297A297D29AC01AC0A822973
:1002FA00741C8029812982297A292C0803198629C4
:10030A008729B8290130F407003003180130F507AE
:10031A00003003180130F607003003180130F707E0
:10032A00771C98299929B8297408F8007508F900E2
:10033A007608FA007708FB000130FC007B0DFB0C05
:10034A00FA0CF90CF80CFC0BA3297B08F7007A08C5
:10035A00F6007908F5007808F4000130A5070318BB
:10036A00A60A0030A6072608803AFF0080307F02DE
:10037A00031DC129FF302502031CC429C529D3291D
:10038A00FF3083120313A5000030A6000030F700E7
:10039A000030F6000030F5000030F4008312031339
:1003AA002608803AFF0080307F02031DDE290130D3
:1003BA0025020318E129E229EF2983120313A50173
:1003CA00A6010030F7000030F6000030F5000030DA
:1003DA00F400A401831203132508F8007808AB007F
:1003EA002B1CF829F929FB29F617FF297F30F80079
:1003FA007808F6052B08F8000310780CF90079083C
:10040A00F7002408F8007808F7049D2808008312EA
:10041A00031350088039D5005508DD005008D5006F
:10042A005507D6005608DF00CF1F1C2A1D2A1E2A90
:10043A005F145F080319222A232A332A5F0A031D3D
:10044A00272A282A302A0030D0000030CF00003076
:10045A00CE000030CD00CF17D0013B2A0030D000AB
:10046A000030CF000030CE000030CD005408803973
:10047A00D5005508DE005E085D060319452A462A9E
:10048A00472A5D175408D5005507D6005608DE00DE
:10049A00D31F502A512A522A5E145E080319562A7B
:1004AA00572A672A5E0A031D5B2A5C2A642A0030DF
:1004BA00D4000030D3000030D2000030D100D3176E
:1004CA00D4016F2A0030D4000030D3000030D200AB
:1004DA000030D1005F085E020318742A752AB92A0F
:1004EA005D1F782A792A7D2A8030D5005508DD06D5
:1004FA005F08D5005508E0005E08D5005508DF0002
:10050A006008D5005508DE004D08D5005508E00002
:10051A005108D5005508CD006008D5005508D1000E
:10052A004E08D5005508E0005208D5005508CE00FF
:10053A006008D5005508D2004F08D5005508E000DC
:10054A005308D5005508CF006008D5005508D300D8
:10055A005008D5005508E0005408D5005508D000C9
:10056A006008D5005508D400E0015E08D500D60120
:10057A005608D8005F085502D700031CD80358084C
:10058A00803AFF0080307F02031DCD2A1A305702BD
:10059A00031CD02AD12A0E2B8312031350084F04AE
:1005AA004E044D04031DDA2ADC2A0130DD2A00300C
:1005BA00D5005508E0000030D0000030CF000030F0
:1005CA00CE000030CD005E08D5005508DF00162B9E
:1005DA00601CF02AF12AFA2A6008D5000310550C8B
:1005EA000138D6005608E000FC2A0310E00C4D1C26
:1005FA00FF2A002B012BE0170130D500500DD00C3B
:10060A00CF0CCE0CCD0CD50B032B0130D5005508E1
:10061A00DF07831203135E085F02031C152B162BD8
:10062A00ED2A5D1B192B1A2B652B5F08031D1E2B48
:10063A001F2B282B0030D0000030CF000030CE0016
:10064A000030CD00932C5108CD075208031103182E
:10065A00013E0319312BCE07530803110318013E3B
:10066A000319382BCF07540803110318013E031945
:10067A003F2BD007501C422B432B192C601C462BB6
:10068A00472B502B6008D5000310550C0138D600B3
:10069A005608E000522B0310E00C4D1C552B562B2C
:1006AA00572BE0170130D500500DD00CCF0CCE0CD3
:1006BA00CD0CD50B592B0130D5005508DF07192C65
:1006CA005008803AFF005408803A7F02031D772BB6
:1006DA0053084F02031D772B52084E02031D772B36
:1006EA0051084D0203187A2B7B2BD32BFF30D500F0
:1006FA00FF30D600FF30D700FF30D8005108D900AC
:10070A005208DA005308DB005408DC004D08D9020D
:10071A004E08031C4E0F922B932BDA024F08031C30
:10072A004F0F982B992BDB025008031C500F9E2B5E
:10073A009F2BDC025908D5075A0803185A0FA62B13
:10074A00A72BD6075B0803185B0FAC2BAD2BD7077B
:10075A005C0803185C0AD8075808D0005708CF006D
:10076A005608CE005508CD008030D5005508DD0664
:10077A00E009E00A6008031DC32BC42BE12B0130FA
:10078A00CD07003003180130CE07003003180130BE
:10079A00CF07003003180130D007E12B5108CD02F2
:1007AA005208031C520FCE025308031C530FCF02E8
:1007BA005408031C540FD00250084F044E044D0431
:1007CA00031DE82BE92B152C6008031DED2BEE2BDE
:1007DA00152C0030D0000030CF000030CE000030A1
:1007EA00CD00932C0130D5000310CD0DCE0DCF0DC9
:1007FA00D00DD50BF92BE01F032C042C052C4D141E
:10080A00601C082C092C0C2C0314E00D0E2C031070
:10081A00E00D5F080319122C132C152C0130DF028E
:10082A00CF1F182C192CF72BDE01E01F1D2C1E2CB4
:10083A002C2C60087F390319232C242C272CDE0149
:10084A00DE0A2C2C4D1C2A2C2B2C2C2C242C5E083A
:10085A000319302C312C652C0130CD0700300318D8
:10086A000130CE07003003180130CF0700300318DB
:10087A000130D007501C422C432C652C4D08D50062
:10088A004E08D6004F08D7005008D8000130D900CA
:10089A00580DD80CD70CD60CD50CD90B4D2C5808A2
:1008AA00D0005708CF005608CE005508CD005F0A81
:1008BA000319602C612C652C0130D5005508DF071F
:1008CA005F0A0319692C6A2C6F2C5F08031D6E2CB2
:1008DA006F2C7D2C0030D0000030CF000030CE00CD
:1008EA000030CD005F08031D7B2C7C2C7D2CDD01A4
:1008FA005F1C802C812C832CCF17872C7F30D5004E
:10090A005508CF055F08D5000310550CD6005608C8
:10091A00D000DD1F912C922C932CD0170800831243
:10092A00031336088039BB003B08C0003608BB00F9
:10093A003B07BC003C08C600B51FA42CA52CA62C5E
:10094A00461446080319AA2CAB2CBA2C460A031DD6
:10095A00AF2CB02CB82C0030B6000030B5000030F7
:10096A00B4000030B300B517C22C0030B600003016
:10097A00B5000030B4000030B3003A088039BB003B
:10098A003B08C0063A08BB003B07BC003C08C50050
:10099A00B91FD02CD12CD22C451445080319D62CBA
:1009AA00D72CE62C450A031DDB2CDC2CE42C00306A
:1009BA00BA000030B9000030B8000030B700B917EB
:1009CA00EE2C0030BA000030B9000030B800003018
:1009DA00B70045080319F22CF32CF82C4608031D1E
:1009EA00F72CF82C012D0030B6000030B50000308D
:1009FA00B4000030B300F42F3308BB003B08F0000A
:100A0A0039080A168A1165240A128A117108831292
:100A1A000313CC007008CB004B08BB00BC01BD011E
:100A2A00BE013E08C4003D08C3003C08C2003B08A2
:100A3A00C1004C08BB00BC01BD01BE013E08CA0092
:100A4A003D08C9003C08C8003B08C7003408BB0081
:100A5A003B08F00038080A168A1165240A128A111E
:100A6A00710883120313CC007008CB004B08BB003B
:100A7A00BC01BD01BE013B08C1073C0803110318B4
:100A8A00013E0319492DC2073D0803110318013E0F
:100A9A000319502DC3073E0803110318013E031919
:100AAA00572DC4074C08BB00BC01BD01BE013B0861
:100ABA00C7073C0803110318013E0319652DC8072F
:100ACA003D0803110318013E03196C2DC9073E089E
:100ADA0003110318013E0319732DCA073508BB0019
:100AEA003B08F00037080A168A1165240A128A118F
:100AFA00710883120313CC007008CB004B08BB00AB
:100B0A00BC01BD01BE013B08C1073C080311031823
:100B1A00013E0319912DC2073D0803110318013E36
:100B2A000319982DC3073E0803110318013E031940
:100B3A009F2DC4074C08BB00BC01BD01BE013B0888
:100B4A00C7073C0803110318013E0319AD2DC80756
:100B5A003D0803110318013E0319B42DC9073E08C5
:100B6A0003110318013E0319BB2DCA070830BB0045
:100B7A000310C10DC20DC30DC40DBB0BBD2D34082E
:100B8A00BB003B08F00037080A168A1165240A12CE
:100B9A008A11710883120313CC007008CB004B082A
:100BAA00BB004C08BC00BD01BE013B08C1073C08A4
:100BBA0003110318013E0319E32DC2073D0803116F
:100BCA000318013E0319EA2DC3073E08031103184F
:100BDA00013E0319F12DC4073308BB003B08F0009E
:100BEA0038080A168A1165240A128A1171088312B2
:100BFA000313CC007008CB004B08BB004C08BC00A8
:100C0A00BD01BE013B08C1073C0803110318013EA0
:100C1A000319102EC2073D0803110318013E0319D8
:100C2A00172EC3073E0803110318013E03191E2E8F
:100C3A00C4070830BB000310C10DC20DC30DC40D9B
:100C4A00BB0B202E3308BB003B08F00037080A16FE
:100C5A008A1165240A128A11710883120313CC00BF
:100C6A007008CB004B08BB004C08BC00BD01BE019C
:100C7A003B08C1073C0803110318013E0319462E1D
:100C8A00C2073D0803110318013E03194D2EC3077D
:100C9A003E0803110318013E0319542EC4073408F1
:100CAA00BB003B08F00039080A168A1165240A12AB
:100CBA008A11710883120313CC007008CB004B0809
:100CCA00BB004C08BC00BD01BE013B08C7073C087D
:100CDA0003110318013E0319732EC8073D080311B7
:100CEA000318013E03197A2EC9073E080311031897
:100CFA00013E0319812ECA073508BB003B08F000E4
:100D0A0038080A168A1165240A128A117108831290
:100D1A000313CC007008CB004B08BB004C08BC0086
:100D2A00BD01BE013B08C7073C0803110318013E79
:100D3A000319A02EC8073D0803110318013E031921
:100D4A00A72EC9073E0803110318013E0319AE2E48
:100D5A00CA073508BB003B08F00039080A168A1191
:100D6A0065240A128A11710883120313CC007008D1
:100D7A00CB004B08BB004C08BC00BD01BE010830CB
:100D8A000310BB0DBC0DBD0DBE0DFF3E031DC52ED0
:100D9A003B08C7073C0803110318013E0319D62E66
:100DAA00C8073D0803110318013E0319DD2EC907C0
:100DBA003E0803110318013E0319E42ECA0741082D
:100DCA00BB004208BC004308BD004408BE001830FE
:100DDA000310BE0CBD0CBC0CBB0CFF3E031DED2E5C
:100DEA003B08C7073C0803110318013E0319FE2EEE
:100DFA00C8073D0803110318013E0319052FC90747
:100E0A003E0803110318013E03190C2FCA070830C4
:100E1A00BB000310C10DC20DC30DC40DBB0B0E2FB9
:100E2A0046084507BB00BC01BC0D3B08823ECB000F
:100E3A003C080318013EFF3ECC00402F0130BB00A6
:100E4A000310C70DC80DC90DCA0DBB0B252FC41F32
:100E5A002F2F302F312F47140130BB000310C10D43
:100E6A00C20DC30DC40DBB0B332FFF30CB070318C4
:100E7A00CC0AFF30CC07C91F432F442F232FC501AB
:100E8A00C41F482F492F652FFF304105BB00FF3093
:100E9A004205BC00FF304305BD007F304405BE005B
:100EAA003E083D043C043B0403195C2F5D2F602F70
:100EBA00C501C50A652F471C632F642F652F5D2F57
:100ECA0045080319692F6A2F9B2F0130C707003085
:100EDA0003180130C807003003180130C907003071
:100EEA0003180130CA074A1C7B2F7C2F9B2F470807
:100EFA00BB004808BC004908BD004A08BE000130D2
:100F0A00BF003E0DBE0CBD0CBC0CBB0CBF0B862F2C
:100F1A003E08CA003D08C9003C08C8003B08C70093
:100F2A000130CB070318CC0A0030CC074C08803AB2
:100F3A00FF0080307F02031DA42FFF304B02031CE9
:100F4A00A72FA82FB32F7F3083120313CA00803034
:100F5A00C9000030C8000030C700E82F831203130D
:100F6A004C08803AFF0080307F02031DBE2F0130FB
:100F7A004B020318C12FC22FCE2F00308312031346
:100F8A00CA000030C9000030C8000030C700C001E4
:100F9A00E82F831203134B08BB003B08C600FF303F
:100FAA00C705FF30C8057F30C9050030CA05461C91
:100FBA00DF2FE02FE12FC9174608BB0003103B0CB7
:100FCA00BC003C08CA004008BB003B08CA044A08E7
:100FDA00B6004908B5004808B4004708B30008003D
:100FEA0083120313EF0183160313D601D70183017A
:100FFA000A168A11B42C00307005F8000030710509
:10100A00F90080307205FA007F307305FB007B0817
:10101A007A0479047804031D132814281C28003044
:10102A00F3000030F2000030F1000030F000003030
:10103A007405F80000307505F90080307605FA006D
:10104A007F307705FB007B087A0479047804031D56
:10105A002F28302838280030F7000030F6000030FA
:10106A00F5000030F400F31F3B283C2860280030CC
:10107A00F8000030F9000030FA008030FB007008F8
:10108A00F8027108031C710F4B284C28F9027208E8
:10109A00031C720F51285228FA027308031C730F9B
:1010AA0057285828FB027B08F3007A08F2007908CF
:1010BA00F1007808F000F71F6328642888280030B8
:1010CA00F8000030F9000030FA008030FB007408A4
:1010DA00F8027508031C750F73287428F90276083C
:1010EA00031C760F79287A28FA027708031C770FEF
:1010FA007F288028FB027B08F7007A08F600790827
:10110A00F5007808F4008030F3068030F706770897
:10111A007302031D9A2876087202031D9A2875081D
:10112A007102031D9A287408700203189D289E28CC
:10113A00A0280310A12803140800831203136608C9
:10114A00E80001300310E80DFF3E031DA728031035
:10115A00680D650784000A168A1100200A128A158A
:10116A00E9000A168A1100200A128A15EA000A16EC
:10117A008A1100200A128A15EB000A168A11002029
:10118A000A128A15EC006C0883160313A300831253
:10119A0003136B0883160313A200831203136A084E
:1011AA0083160313A100831203136908831603131A
:1011BA00A0005D29FF30E6070318E70AFF30E707BA
:1011CA006608E80001300310E80DFF3E031DE82819
:1011DA000310680D650784000A168A1100200A1296
:1011EA008A15E9000A168A1100200A128A15EA00ED
:1011FA000A168A1100200A128A15EB000A168A11A9
:10120A0000200A128A15EC006C08D0006B08CF0087
:10121A006A08CE006908CD008316031323088312D7
:10122A000313B60083160313220883120313B500AF
:10123A0083160313210883120313B40083160313BE
:10124A00200883120313B3006408BA006308B900C4
:10125A006208B8006108B7000A128A1194240A12B7
:10126A008A15831203133608D4003508D3003408CC
:10127A00D2003308D1000A128A110C220A128A15E6
:10128A0083120313500883160313A3008312031354
:10129A004F0883160313A200831203134E08831602
:1012AA000313A100831203134D0883160313A0002E
:1012BA008312031366086704031D64296529DF285E
:1012CA0083160313230883120313E40083160313FC
:1012DA00220883120313E3008316031321088312DF
:1012EA000313E20083160313200883120313E10099
:1012FA00080083160313270883120313A300831617
:10130A000313260883120313A20083160313250866
:10131A0083120313A10083160313240883120313F1
:10132A00A0000030A7000030A6000030A500003061
:10133A00A4000A168A11DE240A128A15031CA62999
:10134A00A729B229003083160313A7000030A6008C
:10135A000030A5000030A4005B2A83160313270877
:10136A007F3983120313ED00EE010310ED0DEE0D2C
:10137A006D0883160313A8070318A90A8312031317
:10138A006E0883160313A907260D260D0139831249
:10139A000313ED00EE016D0883160313A807031863
:1013AA00A90A831203136E0883160313A907A91F38
:1013BA00DF29E029ED292230D6000030D70000309D
:1013CA00A7000030A6000030A5000030A4005B2A68
:1013DA002908803AFF0081307F02031DF629003078
:1013EA002802031CF929FA292F2A2230831603130B
:1013FA00D6000030D7002708F3002608F200250897
:10140A00F1002408F0000030F7000030F600003048
:10141A00F5000030F4000A128A1500200A128A1513
:10142A000318182A192A242AFF3083160313A7003F
:10143A007F30A600FF30A500FF30A4005B2A7F3072
:10144A0083160313A7007F30A600FF30A500FF30E4
:10145A00A4005B2A83160313290883120313EE00E0
:10146A0083160313280883120313ED006E0DEE0C86
:10147A00ED0C831603132708831203136D068039B4
:10148A006D0683160313A700280801398312031374
:10149A00ED00ED0CED0C83160313260883120313DB
:1014AA006D067F396D0683160313A600080083169E
:1014BA0003132708F3002608F2002508F100240880
:1014CA00F0000030F7000030F6000030F500003080
:1014DA00F4000A128A1500200A128A150318762ABD
:1014EA00772A862A213083160313D6000030D700C4
:1014FA000030A7000030A6000030A5000030A4008C
:10150A00CD2B83160313270883120313A300831614
:10151A000313260883120313A20083160313250854
:10152A0083120313A10083160313240883120313DF
:10153A00A0000030A7000030A6000030A50000304F
:10154A00A4000A168A11DE240A128A15031CAE2A7E
:10155A00AF2ABE2A223083160313D6000030D700E2
:10156A000030A7000030A6000030A5000030A4001B
:10157A00CD2BBF3083120313D0008030CF00003050
:10158A00CE000030CD004030B6000030B50000304B
:10159A00B4000030B300A830ED006D08B000831627
:1015AA000313270883120313AF00831603132608B5
:1015BA0083120313AE008316031325088312031341
:1015CA00AD0083160313240883120313AC000A1612
:1015DA008A112E250A128A15831203132F08BA00BC
:1015EA002E08B9002D08B8002C08B7000A128A1173
:1015FA0094240A128A15831203133608D400350874
:10160A00D3003408D2003308D1000A128A110C22FE
:10161A000A128A1583120313500883160313A700AC
:10162A00831203134F0883160313A60083120313AE
:10163A004E0883160313A500831203134D0883165D
:10164A000313A400FF30A8070318A90AFF30A9074B
:10165A00270883120313E400831603132608831250
:10166A000313E30083160313250883120313E2000E
:10167A0083160313240883120313E1002930ED00B3
:10168A006D08E5000830E6000030E7000A128A1506
:10169A00A2200A128A1583120313640883160313FD
:1016AA00A70083120313630883160313A600831289
:1016BA000313620883160313A50083120313610838
:1016CA0083160313A400270883120313D00083167A
:1016DA000313260883120313CF0083160313250866
:1016EA0083120313CE0083160313240883120313F1
:1016FA00CD003F30B6003130B5007230B40018303A
:10170A00B300831603132808F0002908F1000030FB
:10171A00F11BFF30F200F30001300A168A11872606
:10172A000A128A15730883120313BA007208B900E1
:10173A007108B8007008B7000A128A1194240A12B4
:10174A008A15831203133608D4003508D3003408E7
:10175A00D2003308D1000A128A110C220A128A1501
:10176A0083120313500883160313A700831203136B
:10177A004F0883160313A600831203134E08831619
:10178A000313A500831203134D0883160313A40041
:10179A00080083160313C701390883120313A30031
:1017AA0083160313380883120313A2008316031344
:1017BA00370883120313A100831603133608831212
:1017CA000313A0000030A7000030A6000030A500D7
:1017DA000030A4000A168A11DE240A128A15031C94
:1017EA00F72BF82B242C0030F3000030F2000030E5
:1017FA00F1000030F000831603133D08F7003C089F
:10180A00F6003B08F5003A08F4000A128A1500208F
:10181A000A128A15031C122C132C192C2130831638
:10182A000313D6000030D700003083160313B90023
:10183A000030B8000030B7000030B600A62D83167D
:10184A0003133D0883120313A300831603133C08F2
:10185A0083120313A200831603133B088312031394
:10186A00A100831603133A0883120313A000003061
:10187A00A7000030A6000030A5000030A4000A1618
:10188A008A11DE240A128A15031C4C2C4D2C582C62
:10189A003F3083160313B9008030B8000030B70018
:1018AA000030B600A62D831603133908F300380852
:1018BA00F2003708F1003608F0000030F700003077
:1018CA00F6000030F5000030F4000A128A150020F4
:1018DA000A128A150318722C732C0E2D8316031301
:1018EA003D0883120313A300831603133C088312D3
:1018FA000313A200831603133B0883120313A100E8
:10190A00831603133A0883120313A0000A168A11D6
:10191A008A250A128A1583120313230883160313CE
:10192A00CB0083120313220883160313CA008312FF
:10193A000313210883160313C90083120313200813
:10194A0083160313C8004B08F3004A08F20049083B
:10195A00F1004808F00000300A168A1187260A1298
:10196A008A15730883120313A3007208A200710870
:10197A00A1007008A000831603133D088312031305
:10198A00A700831603133C0883120313A6008316C9
:10199A0003133B0883120313A500831603133A08A3
:1019AA0083120313A4000A168A11DE240A128A1566
:1019BA000318E02CE12CF02C213083160313D600F7
:1019CA000030D7000030B9000030B8000030B7004E
:1019DA000030B600A62D8316031348080139BE004D
:1019EA003E08C7003908F3003808F2003708F1004A
:1019FA003608F0000A168A1113240A128A15730887
:101A0A0083160313B9007208B8007108B70070088A
:101A1A00B600831603133908A7003808A60037084A
:101A2A00A5003608A4000A128A155C220A128A1531
:101A3A00831603132708C2002608C1002508C00020
:101A4A002408BF003D0883120313B600831603134C
:101A5A003C0883120313B500831603133B08831251
:101A6A000313B400831603133A0883120313B30053
:101A7A0083160313420883120313BA00831603134F
:101A8A00410883120313B900831603134008831213
:101A9A000313B800831603133F0883120313B70016
:101AAA000A128A1194240A128A1583120313360819
:101ABA0083160313C6008312031335088316031310
:101ACA00C50083120313340883160313C400831258
:101ADA000313330883160313C3004608AD004508F1
:101AEA00AC004408AB004308AA000A128A15A725CD
:101AFA000A128A15831603132D08B9002C08B80098
:101B0A002B08B7002A08B600470803198D2D8E2D19
:101B1A00A62D3908F3003808F2003708F100360814
:101B2A00F0000A168A1113240A128A1573088316FA
:101B3A000313B9007208B8007108B7007008B6003C
:101B4A00A62D0800831603132D0883120313A3007E
:101B5A00831603132C0883120313A200831603139C
:101B6A002B0883120313A100831603132A08831276
:101B7A000313A0000030A7000030A6000030A50023
:101B8A000030A4000A168A11DE240A128A15031CE0
:101B9A00CF2DD02DDB2D3F3083160313AD008030BF
:101BAA00AC000030AB000030AA00FF2F4430F30035
:101BBA003130F2007230F1001830F000831603134E
:101BCA002D08F7002C08F6002B08F5002A08F40067
:101BDA000A128A1500200A128A150318F52DF62D05
:101BEA00052E223083160313D6000030D7007F302B
:101BFA00AD007F30AC00FF30AB00FF30AA00FF2FF2
:101C0A00831603132D08F3002C08F2002B08F100A9
:101C1A002A08F000C430F7003A30F6004830F500E0
:101C2A008730F4000A128A1500200A128A1503184E
:101C3A001F2E202E2F2E223083160313D60000309B
:101C4A00D7000030AD000030AC000030AB000030EF
:101C5A00AA00FF2F831603132D08F3002C08F200A5
:101C6A002B08F1002A08F0000030F7000030F600D7
:101C7A000030F5000030F4000A128A1500200A121A
:101C8A008A15031C492E4B2E01304C2E0030831628
:101C9A000313AE002E08B50035080319552E562E2B
:101CAA006D2E2D08F3002C08F2002B08F1002A08EB
:101CBA00F0000A168A1113240A128A157308831669
:101CCA000313AD007208AC007108AB007008AA00DB
:101CDA003F3083120313B600B830B500AA30B400FF
:101CEA003B30B300831603132D0883120313BA0083
:101CFA00831603132C0883120313B90083160313E4
:101D0A002B0883120313B800831603132A088312BD
:101D1A000313B7000A128A1194240A128A1583122D
:101D2A000313360883160313AD0083120313350811
:101D3A0083160313AC0083120313340883160313A8
:101D4A00AB0083120313330883160313AA002D086A
:101D5A0083120313E400831603132C08831203135C
:101D6A00E300831603132B0883120313E20083167E
:101D7A0003132A0883120313E1000A168A11412762
:101D8A000A128A1583120313640883160313B20016
:101D9A0083120313630883160313B1008312031318
:101DAA00620883160313B0008312031361088316B3
:101DBA000313AF00320883120313A300831603131D
:101DCA00310883120313A200831603133008831207
:101DDA000313A100831603132F0883120313A00011
:101DEA000A168A118A250A128A15831203132108F0
:101DFA0083160313B40083120313200883160313F4
:101E0A00B3003308F0003408F1000030F11BFF3052
:101E1A00F200F30001300A168A1187260A128A157F
:101E2A00730883120313E4007208E3007108E200E6
:101E3A007008E100831603132D0883120313E800C8
:101E4A00831603132C0883120313E7008316031364
:101E5A002B0883120313E600831603132A0883123E
:101E6A000313E5000A168A1141240A128A158312FD
:101E7A000313640883160313AD0083120313630864
:101E8A0083160313AC008312031362088316031329
:101E9A00AB0083120313610883160313AA002D08EB
:101EAA0083120313E400831603132C08831203130B
:101EBA00E300831603132B0883120313E20083162D
:101ECA0003132A0883120313E10001308316031354
:101EDA00AE002E0883120313E5000930E600003035
:101EEA00E7000A128A15A2200A128A15831203131E
:101EFA00640883160313A700831203136308831667
:101F0A000313A60083120313620883160313A500A2
:101F1A0083120313610883160313A4003408A9006B
:101F2A003308A8000A128A157E210A128A15831616
:101F3A0003132708AD002608AC002508AB002408C7
:101F4A00AA0035080319AA2FAB2FFF2F2D088312D9
:101F5A000313A300831603132C0883120313A2008E
:101F6A00831603132B0883120313A100831603138A
:101F7A002A0883120313A0007F30A7007F30A6002F
:101F8A00FF30A500FF30A4000A168A11DE240A12C7
:101F9A008A15031CD12FD22FDD2F0030831603138D
:101FAA00AD000030AC000030AB000030AA00FF2FBB
:101FBA00831603132D08F3002C08F2002B08F100F6
:101FCA002A08F0003F30F7008030F6000030F500B4
:101FDA000030F4000A128A1129200A128A1573089D
:101FEA0083160313AD007208AC007108AB007008C9
:101FFA00AA00FF2F080010308A000408840A82070A
:10200A0000340034003480343F34183472343134AC
:10201A003F34F034FD3475343E3447345834633435
:10202A003D34583495341D343C348234C434AE348F
:10203A003A34A834783421343934EF349334803440
:10204A003734A0349234A7343534463456341534F0
:10205A0034340034003400340034C434FF347F3460
:10206A003F348034EF34FF34BE349034E134A93441
:10207A003E34EC3482347634BE348234AD342B347C
:10208A003E340E343C34C334BD348734D134133433
:0A209A003D3441347834D334BB34B4
:10281A00831203130915091089100800730872043A
:10282A007104700403191A2C1B2C1D2C8030F3061A
:10283A0008008312031309140830F2001B30F10058
:10284A002730F000F00B272CF10B272CF20B272C4A
:10285A0083120313091089140830F2001B30F100A7
:10286A002730F000F00B372CF10B372CF20B372CFA
:10287A008312031389100800803083120313E406BD
:10288A006808D0006708CF006608CE006508CD004A
:10289A006408D4006308D3006208D2006108D1003A
:1028AA000A128A110C220A168A118312031350087B
:1028BA00E4004F08E3004E08E2004D08E10008007A
:1028CA00F800F401F5017008F200F3017208F6004D
:1028DA007308F700781C722C732C792C7608F4078D
:1028EA000318F50A7708F50701300310F60DF70DFE
:1028FA00FF3E031D7A2C0310F80C7808031D862C62
:10290A00872C6F2C7508F1007408F00008008312F8
:10291A00031305080619922C932CB32CF001F1012C
:10292A00803083120313880080300802031C9E2C17
:10293A009F2CA02C85140130F0070318F10A0030EF
:10294A00F1077108803AFF0080307F02031DAF2C27
:10295A0007307002031CB22CB32C952C08000A1203
:10296A008A1105200A168A11831203130618BE2C2F
:10297A00BF2CB92C0519C22CC32CD02C0A168A11CB
:10298A001E240A168A110A168A110D240A168A1199
:10299A008312031305150A168A1106260A168A11C6
:1029AA000A168A118C240A168A11B92C0A128A115B
:1029BA0000280030831203132005A80000302105E7
:1029CA00A90080302205AA007F302305AB002B081E
:1029DA002A0429042804031DF32CF42CFC2C0030AF
:1029EA00A3000030A2000030A1000030A000003097
:1029FA002405A80000302505A90080302605AA0074
:102A0A007F302705AB002B082A0429042804031D5C
:102A1A000F2D102D182D0030A7000030A600003011
:102A2A00A5000030A40027082306031D262D26082A
:102A3A002206031D262D25082106031D262D2408FE
:102A4A0020060319292D2A2D2C2D03102D2D0314B0
:102A5A000800831203132F08A3002E08A2002D08D2
:102A6A00A1002C08A0000030A7000030A60000300A
:102A7A00A5000030A4000A168A11DE240A168A115B
:102A8A00031C482D492D5A2D831203133008840044
:102A9A0083138001840A80010030AF000030AE0049
:102AAA000030AD000030AC00892D831203132F08CB
:102ABA007F39B100B2010310B10DB20D30088400A4
:102ACA00310883138000840A320880002E0D2E0DEF
:102ADA000139B100B2013008840031088004840A47
:102AEA00320880043008840082308007840F00088E
:102AFA000318000AFF00FF307F07800084032F08B5
:102B0A0080393F38AF00AE13080003108312031355
:102B1A00220D230DA4002408AA002A08031D962DBD
:102B2A00972DA02D0030A3000030A2000030A10094
:102B3A000030A000052E2008A4002108A5002208C4
:102B4A00A6002308A7001F300310A70CA60CA50C8B
:102B5A00A40CFF3E031DA92D2408A8002808A900DB
:102B6A00A217FF30A005FF30A105FF30A2050030F3
:102B7A00A3059630AA02AA1FC32DC42DDE2D2A084A
:102B8A00803A973E0318CA2DCB2DCC2D972D0130B4
:102B9A000310A30CA20CA10CA00CFF3E031DCD2D0B
:102BAA000130A4002408AA07031DDC2DDD2DCC2D3D
:102BBA00F52D20302A02031CE32DE42DF02D972D4C
:102BCA000130A4000310A00DA10DA20DA30DA40BAA
:102BDA00E72D0130AA022A08031DF42DF52DE52D53
:102BEA0029080319F92DFA2D052EA009A109A20910
:102BFA00A309A00A0319A10A0319A20A0319A30A1D
:102C0A00080083120313050886180C2E0D2E862E33
:102C1A0083160313D401D501831603135408F00055
:102C2A005508F1000030F11BFF30F200F3000130CB
:102C3A000A168A1187260A168A117308831603133D
:102C4A00CF007208CE007108CD007008CC004F0882
:102C5A00BD004E08BC004D08BB004C08BA0040300D
:102C6A00B9000030B8000030B7000030B6000A12D0
:102C7A008A15CE230A168A11831603133908D3003C
:102C8A003808D2003708D1003608D000530883121A
:102C9A000313A30083160313520883120313A2001B
:102CAA0083160313510883120313A1008316031317
:102CBA00500883120313A0000A168A118A250A16DD
:102CCA008A11831203132008870080300702031C2D
:102CDA006F2E702E712E0514013083160313D4073C
:102CEA000318D50A0030D5075508803AFF0080300E
:102CFA007F02031D822E07305402031C852E862E66
:102D0A00112E0800F800780803198C2E8D2EA12E9A
:102D1A00F31F902E912EA12E7009FA007109FB0063
:102D2A007209FC007309FD00FA0A0319FB0A031968
:102D3A00FC0A0319FD0AA92E7308FD007208FC009B
:102D4A007108FB007008FA007308720471047004B9
:102D5A00031DB02EB12EBA2E0030F3000030F2005F
:102D6A000030F1000030F000402F9630F400740873
:102D7A00F900CC2E0130F4007408F9070130031071
:102D8A00FD0CFC0CFB0CFA0CFF3E031DC42EFE309E
:102D9A007D05031DD12ED22EBF2EEE2E0130F4005A
:102DAA007408F9070130FA07003003180130FB07ED
:102DBA00003003180130FC07003003180130FD070A
:102DCA0001300310FD0CFC0CFB0CFA0CFF3E031D3A
:102DDA00E62EFF307D05031DF32EF42ED32E002F91
:102DEA000130F9020130F4000310FA0DFB0DFC0D5D
:102DFA00FD0DF40BF92EFC1B032F042F0A2F0230B2
:102E0A0079020318092F0A2FF52E79180D2F0E2F84
:102E1A00162FFF30FA05FF30FB057F30FC05FF3027
:102E2A00FD050310F90C7908F400F501F601F70124
:102E3A0018300310F40DF50DF60DF70DFF3E031DC6
:102E4A001E2F7408FA047508FB047608FC04770838
:102E5A00FD0478080319322F332F382FF31F362F2A
:102E6A00372F382FFD177D08F3007C08F2007B0806
:102E7A00F1007A08F0000800831203136408AF0017
:102E8A006308AE006208AD006108AC006A30E50074
:102E9A006508B0000A168A112E250A168A118312AD
:102EAA000313EB1F592F5A2F892F6408F300630865
:102EBA00F2006208F1006108F0000030F70000300B
:102ECA00F6000030F5000030F4000A128A150020DE
:102EDA000A168A110318722F732F7E2FBF3083129E
:102EEA000313E4008030E3000030E2000030E10028
:102EFA00FF2F003083120313E4000030E300003098
:102F0A00E2000030E100FF2F00306B021D30031990
:102F1A006A02031C912F922F932FFF2F6408A3009C
:102F2A006308A2006208A1006108A0000A168A11BB
:102F3A008A250A168A11831203132308F30022082A
:102F4A00F2002108F1002008F00001300A168A1167
:102F5A0087260A168A11730883120313E900720876
:102F6A00E8007108E7007008E6006408F3006308E7
:102F7A00F2006208F1006108F0006908F7006808C9
:102F8A00F6006708F5006608F4000A128A150020A0
:102F9A000A168A110318D22FD32FF52FBF308312A6
:102FAA000313D0008030CF000030CE000030CD00B7
:102FBA006908D4006808D3006708D2006608D100FF
:102FCA000A128A110C220A168A1183120313500854
:102FDA00E4004F08E3004E08E2004D08E100FF2F2D
:102FEA00831203136908E4006808E3006708E20033
:062FFA006608E10008007A
:04400E00D120FF3F7F
:00000001FF
