:020000040000FA
:060000000A128A1110280B
:10000800FE00030EF4000A08F500831203137F08AC
:10001800F6000A128A11E7290A128A111328F70131
:10002800F801F901FA01FB01FC0183120313A00195
:10003800A101A201A301A401A501A601A701A8018C
:10004800A901AA0183010A128A11B629831203138E
:10005800AE008316031385168712071687155228D4
:1000680094111411941014108428941114119410DC
:1000780014148428941114119414141084289411BD
:100088001411941414148428941114159410141031
:1000980084289411141594101414842883120313BB
:1000A8002E08AC00AD012D08003A03195C288428FD
:1000B8002C08003A03193428013A03193928033A5D
:1000C80003193E28013A03194328073A0319482817
:1000D800013A03194D2884281412831603131413A4
:1000E8009A2814168316031314139A2814128316C5
:1000F800031314179A2814168316031314179A282F
:100108002B08AC00AD012D08003A03198C289A2859
:100118002C08003A03197028013A03197528033A84
:1001280003197A28013A03197F289A28831603139A
:100138009413831203139416080083120313861D65
:10014800A628A728E128F001F1017708013EF70069
:1001580078080318013E003EF8000130F007031844
:10016800F10A0030F1077108803AFF0080307F0201
:10017800031DC02806307002031CC328C428A92800
:1001880083120313A201A301003078020630031979
:100198007702031CD028D128DE2820082104031D5B
:1001A800D628D728DE280808FF3E88000130A0009E
:1001B8000030A100F701F8011129F201F3018312BF
:1001C80003132208013EA20023080318013E003E43
:1001D800A3000130F2070318F30A0030F30773088D
:1001E800803AFF0080307F02031DFC28063072022F
:1001F800031CFF280029E328F701F80100308312C7
:1002080003132302063003192202031C0C290D29AB
:100218001129A001A101F901FA01080083120313B1
:10022800061D172918295229F001F1017B08013E02
:10023800FB007C080318013E003EFC000130F0077B
:100248000318F10A0030F1077108803AFF00803086
:100258007F02031D312906307002031C3429352919
:100268001A29F901FA0100307C02063003197B02D1
:10027800031C3F2940294F2983120313260827040A
:10028800031D472948294F290808013E88000130E5
:10029800A6000030A700FB01FC018029F201F30150
:1002A8007908013EF9007A080318013E003EFA0079
:1002B8000130F2070318F30A0030F3077308803A95
:1002C800FF0080307F02031D6B2906307202031C79
:1002D8006E296F295429FB01FC0100307A0206308F
:1002E80003197902031C79297A29802983120313B7
:1002F800A601A701F901FA0108008316031788016E
:1003080083160313850183120313850183160313D0
:10031800851683160317881283120313851683160E
:1003280003178901831603138601061586158312A0
:10033800031386010611861183160313870183129E
:10034800031387018316031387150716871288017D
:10035800831203138801831603138901831203137D
:10036800890108000A128A1181210A128A110A12C7
:100378008A111C220A128A110A128A1102220A12EE
:100388008A110A128A110F220A128A118312031380
:100398008C1DCF29D029CA290A128A112C220A12A7
:1003A8008A1183120313B0003008AA0008080A1241
:1003B8008A1126220A128A11831203138C11CA2960
:1003C8000A128A1110280B1CEA29EB29F7290608BA
:1003D8000A128A1112210A128A110A128A11A120FC
:1003E8000A128A110B10760883120313FF0075088E
:1003F8008A00740E8300FE0E7E0E09008B170B1701
:100408008B120B128B150B118B100B10FC308316F3
:10041800031396000800023083120313AF002F085D
:10042800AB0004300A128A112A200A128A11080025
:10043800831603130F178F160F128F110F118F14B6
:100448000F10080083120313AB002B089300080059
:080458008312031313080800CE
:04400E00D420FF3F7C
:00000001FF
