:020000040000FA
:060000000A128A11122809
:10000800FE00030E83120313B6000408B7000A08A3
:10001800B8007F08B9000A128A110D2B0A128A113A
:100028001528FC0183132030840036300A128A1107
:10003800AF230A128A1183010A128A11CE2AF2000A
:1000480079283F30831203138700B32806308312C0
:1000580003138700B3285B30831203138700B32888
:100068004F30831203138700B328663083120313BB
:100078008700B3286D30831203138700B3287D30BF
:10008800831203138700B3280730831203138700F2
:10009800B3287F30831203138700B3286F3083128D
:1000A80003138700B3287730831203138700B3281C
:1000B8007C30831203138700B3283930831203136B
:1000C8008700B3285E30831203138700B328793082
:1000D800831203138700B328713083120313870038
:1000E800B328831203138701B3287208F000F101C3
:1000F8007108003A0319812875287008003A031915
:100108002528013A03192A28033A03192F28013A06
:1001180003193428073A03193928013A03193E28E4
:10012800033A03194328013A031948280F3A0319D7
:100138004D28013A03195228033A03195728013A5E
:1001480003195C28073A03196128013A031966283C
:10015800033A03196B28013A031970287528080017
:1001680083120313BC0003299F121F129F111F1132
:1001780037299F121F129F111F1537299F121F120F
:100188009F151F1137299F121F129F151F153729F9
:100198009F121F169F111F1137299F121F169F119B
:1001A8001F1537299F121F169F151F1137299F12D8
:1001B8001F169F151F1537299F161F129F111F11F4
:1001C80037299F161F129F111F1537299F161F12B7
:1001D8009F151F1137299F161F129F151F153729A5
:1001E8009F161F169F111F1137299F161F169F1143
:1001F8001F1537299F161F169F151F1137293C08F1
:10020800BA00BB013B08003A03190B29FE283A083B
:10021800003A0319B828013A0319BD28033A03190B
:10022800C228013A0319C728073A0319CC28013A0A
:100238000319D128033A0319D628013A0319DB28F0
:100248000F3A0319E028013A0319E528033A03197C
:10025800EA28013A0319EF28073A0319F428013A62
:100268000319F928FE289F171F139F101F148316C0
:1002780003139F179F121F12080083120313061CF3
:10028800462947298329F001F101831203132E0817
:10029800013EAE002F080318013E003EAF000130BA
:1002A800F0070318F10A0030F1077108803AFF00DF
:1002B80080307F02031D62290B307002031C652900
:1002C8006629492983120313AC01AD0100302F02BE
:1002D8000B3003192E02031C7229732980292A085E
:1002E8002B04031D7829792980290808013E8800F4
:1002F8000130AA000030AB00AE01AF01B329F20112
:10030800F301831203132C08013EAC002D080318D7
:10031800013E003EAD000130F2070318F30A003039
:10032800F3077308803AFF0080307F02031D9E297F
:100338000B307202031CA129A229852983120313F9
:10034800AE01AF0100302D020B3003192C02031C43
:10035800AE29AF29B329AA01AB01AC01AD01080050
:1003680083120313861CB929BA29F629F001F10171
:10037800831203132608013EA60027080318013E2E
:10038800003EA7000130F0070318F10A0030F1071A
:100398007108803AFF0080307F02031DD5290B3099
:1003A8007002031CD829D929BC2983120313A4017C
:1003B800A501003027020B3003192602031CE5298A
:1003C800E629F32922082304031DEB29EC29F32944
:1003D8000808FF3E88000130A2000030A300A601F3
:1003E800A701262AF201F301831203132408013E10
:1003F800A40025080318013E003EA5000130F207BD
:100408000318F30A0030F3077308803AFF008030BE
:100418007F02031D112A0B307202031C142A152AAD
:10042800F82983120313A601A701003025020B3017
:1004380003192402031C212A222A262AA201A30125
:10044800AC01AD010800F601F11F2B2A2C2A332A32
:10045800F009F109F00A0319F10AF601F60AF31F87
:10046800362A372A402AF209F309F20A0319F30A4D
:100478000130F4007408F606F701F80170087104F9
:100488000319472A482A7F2AF501F50A562A013016
:100498000310F00DF10DFF3E031D4C2A0130F4004E
:1004A8007408F507F11F592A5A2A4B2A01300310FC
:1004B800F70DF80DFF3E031D5B2A71087302031D3B
:1004C800672A70087202031C6A2A6B2A722A70084B
:1004D800F2027108031CF303F302771401300310CE
:1004E800F10CF00CFF3E031D732A0130F502031DC9
:1004F8007E2A7F2A5A2A76080319832A842A892A77
:10050800F709F809F70A0319F80A7808F1007708D3
:10051800F000080083120313091089101030F0004E
:100528000030F1007C08F900FA017908F2007A0835
:10053800F3000A128A1127220A128A117008FB0096
:100548007B0883120313B3007C080F39F90079087C
:10055800B4003208031DB12AB22AC02A3308F900B0
:100568007908B50035080A128A1123200A128A115F
:10057800831203130914CD2A3408F9007908B50049
:1005880035080A128A1123200A128A1183120313CA
:10059800891408000A128A1138230A128A110A12C9
:1005A8008A11A5230A128A110A128A1180230A12B3
:1005B8008A110A128A1173230A128A110A128A11DD
:1005C800B7230A128A11831203139F141A30831255
:1005D8000313BE00F730BD00BD0BF02ABE0BF02A96
:1005E800F52A831203139F18FA2AFB2A042B9F1457
:1005F800831603131E0883120313BD003D08FC0075
:100608000A128A118D230A128A11E72A0A128A11FC
:1006180012280B1D102B112B192B0B110A308100DE
:100628000A128A1160230A128A110B1C1C2B1D2B1B
:100638002B2B8312031306080A128A1141210A126E
:100648008A110A128A11B4210A128A110B10831214
:1006580003133908FF0038088A0037088400360E6B
:100668008300FE0E7E0E09000130831603178800F2
:100678000130831603138500831203138501831643
:1006880003178901033083160313860083120313AB
:1006980086018316031387018312031387018316C8
:1006A8000313880183120313880183160313890136
:1006B80083120313890108000A128A118E220A1272
:1006C8008A110A128A1199230A128A1183120313B2
:1006D80035080A128A1123200A128A110800831683
:1006E80003138117811281110111811401100A303D
:1006F80083120313810008008B170B138B160B1240
:100708008B150B118B100B100330831603139600F7
:1007180008007C088312031308020318942B952BF6
:10072800972B0915982B0911080083120313320817
:10073800031D9F2BA02BA32BB201B20AA42BB2013D
:100748000800831603130F178F160F138F110F113D
:100758008F140F10080064008001840A040603192E
:1007680000340406B02B00300A128A11B4200A1291
:040778008A110800DA
:04400E00D420FF3F7C
:00000001FF
