:020000040000FA
:060000000A128A110C280F
:10000800FE00030EF1000A08F2000A128A11E92D17
:100018000A128A110F28F801F901FA018313203016
:10002800840034300A128A115A260A128A1183016E
:100038000A128A119E2CF5008A28831203139F1234
:100048001F129F111F11BE28831203139F121F1224
:100058009F111F15BE28831203139F121F129F158D
:100068001F11BE28831203139F121F129F151F15FD
:10007800BE28831203139F121F169F111F11BE283B
:10008800831203139F121F169F111F15BE28831278
:1000980003139F121F169F151F11BE2883120313E7
:1000A8009F121F169F151F15BE28831203139F1634
:1000B8001F129F111F11BE28831203139F161F12B0
:1000C8009F111F15BE28831203139F161F129F1519
:1000D8001F11BE28831203139F161F129F151F1589
:1000E800BE28831203139F161F169F111F11BE28C7
:1000F800831203139F161F169F111F15BE28831204
:1001080003139F161F169F151F11BE287508F300AD
:10011800F4017408003A0319922883287308003AF6
:1001280003192128013A03192828033A03192F280B
:10013800013A03193628073A03193D28013A0319E9
:100148004428033A03194B28013A031952280F3A55
:1001580003195928013A03196028033A0319672833
:10016800013A03196E28073A03197528013A031949
:100178007C2883289F171F139F101F1483160313AF
:100188009F139F121F120800F701F70A01300A1285
:100198008A1140250A128A1101300A128A1117257C
:1001A8000A128A11F70102300A128A1140250A122E
:1001B8008A110A128A11F7210A128A11063083124B
:1001C8000313BB003B08F70002300A128A114025CE
:1001D8000A128A110A128A1163210A128A110A1252
:1001E8008A1184250A128A110A3078020318FD2818
:1001F800FE2812290E3083120313BB003B08F700B8
:1002080002300A128A1140250A128A117808303EF3
:100218000A128A1118260A128A1162290A307802EB
:10022800031C1729182962290A30F3000030F4004A
:10023800780883120313BB00BC013B08F5003C0897
:10024800F6000A128A1186220A128A11730883128A
:100258000313BD003D08A5000A30F3000030F40088
:100268007808BB00BC013B08F5003C08F6000A1200
:100278008A114C230A128A11730883120313BD00D2
:100288003D08A4000D30BB003B08F70002300A12FD
:100298008A1140250A128A11831203132508303E59
:1002A8000A128A1118260A128A11831203132408C3
:1002B800303E0A128A1118260A128A11080083127F
:1002C80003133108B8003807B9003908AC006430A6
:1002D800F3000030F4002C08B800B9013808F50024
:1002E8003908F6000A128A1186220A128A1173083E
:1002F80083120313BA003A08AB006430F3000030ED
:10030800F4002C08B800B9013808F5003908F600DF
:100318000A128A114C230A128A11730883120313D2
:10032800BA003A08AA000A30F3000030F4002A089C
:10033800B800B9013808F5003908F6000A128A1120
:1003480086220A128A11730883120313BA003A0824
:10035800A8000A30F3000030F4002A08B800B901F8
:100368003808F5003908F6000A128A114C230A12D7
:100378008A11730883120313BA003A08A9002908DE
:10038800B8003808A7002B08303E0A128A11182630
:100398000A128A112E300A128A1118260A128A1194
:1003A800831203132808303E0A128A1118260A12EB
:1003B8008A11831203132708303E0A128A1118265D
:1003C8000A128A1156300A128A1118260A128A113C
:1003D8000A128A11FE230A128A110A128A11A72305
:1003E8000A128A110800831203133208B80038076A
:1003F800B9003908FA006430F3000030F4007A08D4
:10040800B800B9013808F5003908F6000A128A114F
:1004180086220A128A11730883120313BA003A0853
:10042800F9006430F3000030F4007A08B800B9012C
:100438003808F5003908F6000A128A114C230A1206
:100448008A11730883120313BA003A08B0000A30FD
:10045800F3000030F4003008B800B9013808F5009E
:100468003908F6000A128A1186220A128A117308BC
:1004780083120313BA003A08AE000A30F3000030C2
:10048800F4003008B800B9013808F5003908F6005A
:100498000A128A114C230A128A1173088312031351
:1004A800BA003A08AF002F08B8003808AD0079083C
:1004B800303E0A128A1118260A128A112E300A12A0
:1004C8008A1118260A128A11831203132E08303E45
:1004D8000A128A1118260A128A11831203132D0888
:1004E800303E0A128A1118260A128A1156300A1248
:1004F8008A1118260A128A110A128A114F240A121E
:100508008A11080083120313B501F41F8C2A8D2A5F
:10051800942AF309F409F30A0319F40AB501B50A90
:10052800F61F972A982AA12AF509F609F50A031948
:10053800F60A0130F7007708B506B601B701730867
:1005480074040319A82AA92AE02AB401B40AB72A0C
:1005580001300310F30DF40DFF3E031DAD2A0130E9
:10056800F7007708B407F41FBA2ABB2AAC2A01306F
:100578000310B60DB70DFF3E031DBC2A74087602A2
:10058800031DC82A73087502031CCB2ACC2AD32A58
:100598007308F5027408031CF603F60236140130DA
:1005A8000310F40CF30CFF3E031DD42A0130B402EF
:1005B800031DDF2AE02ABB2A35080319E42AE52AA5
:1005C800EA2AB609B709B60A0319B70A3708F400C0
:1005D8003608F300080000300A128A116F260A1242
:1005E8008A111A3083120313B500F730B400B40B24
:1005F800FB2AB50BFB2A002B30300A128A11A025E2
:100608000A128A1183120313071087100730831206
:100618000313B5007C30B400B40B102BB50B102BB2
:10062800000030300A128A11A0250A128A1183129A
:100638000313071087100F3083120313B5004730D8
:10064800B400B40B252BB50B252B30300A128A11B8
:10065800A0250A128A118312031307108710383055
:100668000A128A11A0250A128A110C300A128A115C
:10067800A0250A128A1101300A128A11A0250A122D
:100688008A1106300A128A11A0250A128A11080056
:1006980083120313B501F61F522B532B5A2BF5095E
:1006A800F609F50A0319F60AB501B50AF41F5D2B18
:1006B8005E2B632BF309F409F30A0319F40A730890
:1006C80074040319682B692B982BB401B40A772B8F
:1006D80001300310F30DF40DFF3E031D6D2B0130A7
:1006E800F7007708B407F41F7A2B7B2B6C2B740860
:1006F8007602031D812B73087502031C842B852B3E
:100708008B2B7308F5027408031CF603F6020130FC
:100718000310F40CF30CFF3E031D8C2B0130B402C4
:10072800031D972B982B7B2B350803199C2B9D2B8E
:10073800A22BF509F609F50A0319F60A7608F4005A
:100748007508F30008001030831203132002031CFD
:10075800AE2BAF2BFD2B0A3078020318B42BB52B28
:10076800D82B43300A128A1150260A128A113A30BD
:100778000A128A1150260A128A1130300A128A1176
:1007880050260A128A117808303E0A128A11502619
:100798000A128A110D300A128A1150260A128A1179
:1007A80083120313A001FD2B43300A128A1150262D
:1007B8000A128A113A300A128A1150260A128A112C
:1007C800831203132508303E0A128A1150260A1292
:1007D8008A11831203132408303E0A128A11502604
:1007E8000A128A110D300A128A1150260A128A1129
:1007F800D42B08001030831203132102031C052C8C
:10080800062C4E2C53300A128A1150260A128A11CD
:1008180032300A128A1150260A128A113A300A1204
:100828008A1150260A128A11831203132B08303EAC
:100838000A128A1150260A128A112E300A128A11B7
:1008480050260A128A11831203132808303E0A120E
:100858008A1150260A128A11831203132708303E80
:100868000A128A1150260A128A1156300A128A115F
:1008780050260A128A1120300A128A1150260A12AA
:100888008A1120300A128A1150260A128A118312FC
:100898000313A10108001030831203132202031C62
:1008A800562C572C9D2C53300A128A1150260A12A6
:1008B8008A1131300A128A1150260A128A113A30E6
:1008C8000A128A1150260A128A117908303E0A1231
:1008D8008A1150260A128A112E300A128A115026BD
:1008E8000A128A11831203132E08303E0A128A1143
:1008F80050260A128A11831203132D08303E0A1259
:100908008A1150260A128A1156300A128A11502664
:100918000A128A1120300A128A1150260A128A11E4
:1009280020300A128A1150260A128A1183120313E0
:10093800A20108000A128A11EC240A128A110A126A
:100948008A1146260A128A110A128A113A260A12AE
:100958008A110A128A11EF220A128A110A128A11BE
:1009680062260A128A110A128A1169260A128A1143
:100978000A128A11C8200A128A1183120313220844
:10098800013EBE003E08A2002108013EBE003E080E
:10099800A1002008013EBE003E08A00000300A1257
:1009A8008A111F200A128A110A128A11D1250A12E5
:1009B8008A1101300A128A111F200A128A110A129A
:1009C8008A11B9250A128A11BC2C0A128A110C281C
:1009D800831603170814881401308316031385003F
:1009E80005148514831203138501831603178901DF
:1009F80083160313860183120313860183160313D8
:100A080087010713871783120313870183160313BC
:100A18008801831203138801831603138901831243
:100A280003138901080083120313B400B501B6014A
:100A3800322D3508340784000A128A1101260A1259
:100A48008A110A128A1118260A128A110130831291
:100A58000313B5070318B60A0030B607350834077C
:100A680084000A128A1101260A128A11003A031D0B
:100A78003E2D3F2D1D2D080083120313B5003503AD
:100A8800031D472D482D542D7708803EB4003408A7
:100A9800B60036080A128A11A0250A128A11652D95
:100AA80002303506031D592D5A2D652D7708C03E95
:100AB800B4003408B60036080A128A11A0250A12B2
:100AC8008A11080019308316031399009813181314
:100AD80098161812981118159810181083120313E5
:100AE80098171813981218169811181198101810AA
:100AF8008C12831603138C16831203130C1208002E
:100B08002B30831203132606031D8B2D8C2D932D5A
:100B18007808013EF3007308F800A6019F2D2D30D8
:100B28002606031D982D992D9F2D7808FF3EF3006A
:100B38007308F800912D0800F600831203130710BC
:100B480076080A128A116F260A128A118312031371
:100B580007150730F5007D30F400F40BB12DF50BC7
:100B6800B12D8312031307110800831203139F1476
:100B78000D30F400FB30F300F30BC02DF40BC02D47
:100B8800C52D831203139F18CA2DCB2DD02D9F146A
:100B98001E08F3007308B1000800831203139F14A2
:100BA8000D30F400FB30F300F30BD82DF40BD82DE7
:100BB800DD2D831203139F18E22DE32DE82D9F14DA
:100BC8001E08F3007308B2000800831203138C1E7A
:100BD800EE2DEF2DFA2D0A128A112D260A128A11EE
:100BE800F000700883120313A6008C1272088A00A2
:100BF800710E8300FE0E7E0E090006308A0004087E
:100C0800840A82070034533431343A34203420348F
:100C18002034533432343A3420342034203453349A
:100C280033343A3420340034F500831203130714A4
:100C380075080A128A116F260A128A118312031381
:100C480007150D30F400F40B272E83120313071138
:100C58000800831203139818322E332E382E1812D8
:100C680000008312031318161A0808008B170B17B5
:100C78008B120B128B110B118B100B108316031395
:100C880096010800831603130F178F160F128F1182
:100C98000F118F140F100800F30073088312031349
:100CA80099000C1E582E592E552E080064008001FC
:100CB800840A04060319003404065B2E00300A1265
:100CC8008A111F200A128A1108000A128A11662541
:100CD8000A128A110800F3007308831203138800AC
:020CE800080002
:04400E00D420FF3F7C
:00000001FF
