:020000040000FA
:060000000A128A110C280F
:10000800FE00030EF1000A08F2000A128A11182DE8
:100018000A128A110F28F801F901FA018313203016
:10002800840037300A128A1120260A128A118301A5
:100038000A128A11F72BF5008A28831203139F12DC
:100048001F129F111F11BE28831203139F121F1224
:100058009F111F15BE28831203139F121F129F158D
:100068001F11BE28831203139F121F129F151F15FD
:10007800BE28831203139F121F169F111F11BE283B
:10008800831203139F121F169F111F15BE28831278
:1000980003139F121F169F151F11BE2883120313E7
:1000A8009F121F169F151F15BE28831203139F1634
:1000B8001F129F111F11BE28831203139F161F12B0
:1000C8009F111F15BE28831203139F161F129F1519
:1000D8001F11BE28831203139F161F129F151F1589
:1000E800BE28831203139F161F169F111F11BE28C7
:1000F800831203139F161F169F111F15BE28831204
:1001080003139F161F169F151F11BE287508F300AD
:10011800F4017408003A0319922883287308003AF6
:1001280003192128013A03192828033A03192F280B
:10013800013A03193628073A03193D28013A0319E9
:100148004428033A03194B28013A031952280F3A55
:1001580003195928013A03196028033A0319672833
:10016800013A03196E28073A03197528013A031949
:100178007C2883289F171F139F101F1483160313AF
:100188009F139F121F120800F701F70A01300A1285
:100198008A11F2240A128A1101300A128A11C9241A
:1001A8000A128A11F70102300A128A11F2240A127D
:1001B8008A110A128A11F2210A128A110630831250
:1001C8000313BE003E08F70002300A128A11F22417
:1001D8000A128A110A128A1163210A128A110A1252
:1001E8008A1155250A128A110A30831203132A022A
:1001F8000318FF28002914290E30BE003E08F70016
:1002080002300A128A11F2240A128A118312031385
:100218002A08303E0A128A11D1250A128A11622947
:100228000A302A02031C19291A2962290A30F30004
:100238000030F4002A08BE00BF013E08F5003F0860
:10024800F6000A128A1181220A128A11730883128F
:100258000313C0004008C1000A30F3000030F40066
:100268002A08BE00BF013E08F5003F08F6000A1242
:100278008A1147230A128A11730883120313C000D4
:100288004008C2000D30BE003E08F70002300A12D6
:100298008A11F2240A128A11831203134108303E8C
:1002A8000A128A11D1250A128A11831203134208ED
:1002B800303E0A128A11D1250A128A1108008312C7
:1002C80003133508BB003B07BC003C08B100643091
:1002D800F3000030F4003108BB00BC013B08F50016
:1002E8003C08F6000A128A1181220A128A11730840
:1002F80083120313BD003D08B0006430F3000030E2
:10030800F4003108BB00BC013B08F5003C08F600CE
:100318000A128A1147230A128A11730883120313D7
:10032800BD003D08AF000A30F3000030F4002F088C
:10033800BB00BC013B08F5003C08F6000A128A1114
:1003480081220A128A11730883120313BD003D0823
:10035800AD000A30F3000030F4002F08BB00BC01E8
:100368003B08F5003C08F6000A128A1147230A12D6
:100378008A11730883120313BD003D08AE002E08CE
:10038800BB003B08AC003008303E0A128A11D12568
:100398000A128A112E300A128A11D1250A128A11DC
:1003A800831203132D08303E0A128A11D1250A122E
:1003B8008A11831203132C08303E0A128A11D125A0
:1003C8000A128A1156300A128A11D1250A128A1184
:1003D8000A128A11A2230A128A110800831203132F
:1003E8003608BB003B07BC003C08FA006430F30049
:1003F8000030F4007A08BB00BC013B08F5003C085B
:10040800F6000A128A1181220A128A1173088312CD
:100418000313BD003D08F9006430F3000030F40018
:100428007A08BB00BC013B08F5003C08F6000A123C
:100438008A1147230A128A11730883120313BD0015
:100448003D08F8000A30F3000030F4007808BB00DB
:10045800BC013B08F5003C08F6000A128A1181220B
:100468000A128A11730883120313BD003D08B300F2
:100478000A30F3000030F4007808BB00BC013B08E8
:10048800F5003C08F6000A128A1147230A128A115D
:10049800730883120313BD003D08B4003408BB0081
:1004A8003B08B2007908303E0A128A11D1250A1297
:1004B8008A112E300A128A11D1250A128A11831242
:1004C80003133308303E0A128A11D1250A128A1101
:1004D800831203133208303E0A128A11D1250A12F8
:1004E8008A1156300A128A11D1250A128A110A1263
:1004F8008A114B240A128A11080083120313B801C7
:10050800F41F872A882A8F2AF309F409F30A0319A2
:10051800F40AB801B80AF61F922A932A9C2AF50908
:10052800F609F50A0319F60A0130F7007708B80644
:10053800B901BA01730874040319A32AA42ADB2A8F
:10054800B701B70AB22A01300310F30DF40DFF3ECC
:10055800031DA82A0130F7007708B707F41FB52A4A
:10056800B62AA72A01300310B90DBA0DFF3E031DA4
:10057800B72A74087602031DC32A73087502031C80
:10058800C62AC72ACE2A7308F5027408031CF60384
:10059800F602391401300310F40CF30CFF3E031D6E
:1005A800CF2A0130B702031DDA2ADB2AB62A380817
:1005B8000319DF2AE02AE52AB909BA09B90A031991
:1005C800BA0A3A08F4003908F300080000300A12A1
:1005D8008A1135260A128A111A3083120313B800B9
:1005E800F730B700B70BF62AB80BF62AFB2A3030DB
:1005F8000A128A1171250A128A118312031307102D
:100608008710073083120313B8007C30B700B70B8C
:100618000B2BB80B0B2B000030300A128A117125F6
:100628000A128A1183120313071087100F308312DE
:100638000313B8004730B700B70B202BB80B202B9B
:1006480030300A128A1171250A128A118312031393
:100658000710871038300A128A1171250A128A1178
:100668000C300A128A1171250A128A1101300A12F5
:100678008A1171250A128A1106300A128A11712507
:100688000A128A11080083120313B801F61F4D2BB2
:100698004E2B552BF509F609F50A0319F60AB80188
:1006A800B80AF41F582B592B5E2BF309F409F30AE7
:1006B8000319F40A730874040319632B642B932B2E
:1006C800B701B70A722B01300310F30DF40DFF3E8A
:1006D800031D682B0130F7007708B707F41F752B47
:1006E800762B672B74087602031D7C2B7308750222
:1006F800031C7F2B802B862B7308F5027408031CC0
:10070800F603F60201300310F40CF30CFF3E031D50
:10071800872B0130B702031D922B932B762B3808B9
:100728000319972B982B9D2BF509F609F50A031940
:10073800F60A7608F4007508F30008000030831202
:10074800031323021A3003192202031CAC2BAD2B0E
:10075800F62B53300A128A1116260A128A113230E1
:100768000A128A1116260A128A113A300A128A11B6
:1007780016260A128A11831203133008303E0A1211
:100788008A1116260A128A112E300A128A11162682
:100798000A128A11831203132D08303E0A128A1195
:1007A80016260A128A11831203132C08303E0A12E5
:1007B8008A1116260A128A1156300A128A1116262A
:1007C8000A128A1120300A128A1116260A128A1170
:1007D80020300A128A1116260A128A11831203136C
:1007E800A201A30108000A128A119E240A128A1182
:1007F8000A128A110C260A128A110A128A11002674
:100808000A128A110A128A11E6250A128A110A1294
:100818008A11EA220A128A110A128A1128260A1251
:100828008A110A128A112F260A128A110A128A11AB
:10083800C8200A128A11831203132008013EA0005F
:1008480021080318013E003EA1002208013EA20033
:1008580023080318013E003EA30000300A128A1143
:100868001F200A128A110A128A11A2250A128A1155
:1008780001300A128A111F200A128A110A128A11DB
:100888008A250A128A111A2C0A128A110C28003099
:100898008312031321021A3003192002031C552C5A
:1008A800562C9D2C53300A128A1116260A128A11C8
:1008B80031300A128A1116260A128A113A300A129F
:1008C8008A1116260A128A117908303E0A128A11EC
:1008D80016260A128A112E300A128A1116260A12B0
:1008E8008A11831203133308303E0A128A1116261E
:1008F8000A128A11831203133208303E0A128A112F
:1009080016260A128A1156300A128A1116260A1257
:100918008A1120300A128A1116260A128A112030EA
:100928000A128A1116260A128A1183120313A001C9
:10093800A1010800831603170814881401308316D0
:100948000313850005148514831203138501831688
:100958000317890183160313860183120313860183
:10096800831603138701071387178312031387015D
:100978008316031388018312031388018316031354
:100988008901831203138901080083120313B70036
:10099800B801B901E42C3808370784000A128A1113
:1009A800BA250A128A110A128A11D1250A128A1145
:1009B800013083120313B8070318B90A0030B907C6
:1009C8003808370784000A128A11BA250A128A11D0
:1009D800003A031DF02CF12CCF2C080083120313CE
:1009E800B8003803031DF92CFA2C062D7708803E31
:1009F800B7003708B90039080A128A1171250A1296
:100A08008A11172D02303806031D0B2D0C2D172DBA
:100A18007708C03EB7003708B90039080A128A11AA
:100A280071250A128A110800831203138C1E1D2DCA
:100A38001E2D292D0A128A11F3250A128A11F00097
:100A4800700883120313AB008C120B1D2C2D2D2D57
:100A5800302D0B110A30810072088A00710E830054
:100A6800FE0E7E0E090019308316031399009813A1
:100A78001813981618129811181598101810831230
:100A8800031398171813981218169811181198101C
:100A980018108C12831603138C16831203130C126E
:100AA80008002B30831203132B06031D5C2D5D2DCC
:100AB800642D2A08013EF3007308AA00AB01702DCB
:100AC8002D302B06031D692D6A2D702D2A08FF3E37
:100AD800F3007308AA00622D0800F60083120313BE
:100AE800071076080A128A1135260A128A1183120B
:100AF800031307150730F5007D30F400F40B822D41
:100B0800F50B822D831203130711080083120313B8
:100B18009F140D30F400FB30F300F30B912DF40B10
:100B2800912D962D831203139F189B2D9C2DA12D7B
:100B38009F141E08F3007308B500080083120313FE
:100B48009F140D30F400FB30F300F30BA92DF40BC8
:100B5800A92DAE2D831203139F18B32DB42DB92DD3
:100B68009F141E08F3007308B600080005308A00B9
:100B78000408840A82070034533431343A34203468
:100B880020342034533432343A342034203420345E
:100B9800533433343A3420340034F50083120313C9
:100BA800071475080A128A1135260A128A11831247
:100BB800031307150D30F400F40BE02D8312031313
:100BC800071108008316031381178112811101117F
:100BD80081140110C83083120313810008008312A6
:100BE80003139818F82DF92DFE2D18120000831202
:100BF800031318161A0808008B170B178B160B12FD
:100C08008B110B118B100B10831603139601080020
:100C1800831603130F178F160F128F110F118F14CE
:100C28000F100800F30073088312031399000C1EB9
:100C38001E2E1F2E1B2E080064008001840A040645
:100C4800031900340406212E00300A128A111F20CD
:100C58000A128A1108000A128A1137250A128A1103
:0E0C68000800F30073088312031388000800CD
:04400E00D420FF3F7C
:00000001FF
