:020000040000FA
:060000000A128A110C280F
:10000800FE00030EF1000A08F2000A128A11C9293B
:100018000A128A110F28F901FA0183010A128A11BA
:1000280015280A128A1144210A128A110A128A1101
:1000380046220A128A110A128A1116220A128A11F3
:100048000A128A110A220A128A110A128A11F02146
:100058000A128A110A128A113D220A128A11503094
:10006800F3000030F4000A128A112A220A128A11B7
:100078000630F3000030F4000A128A112A220A120C
:100088008A110A128A1134220A128A1141300A127C
:100098008A1120220A128A110A300A128A11202291
:1000A8000A128A11033083120313B2000830B10018
:1000B8007630B000B00B5E28B10B5E28B20B5E281C
:1000C80000000A128A113D220A128A115130F300E7
:1000D8000030F4000A128A112A220A128A1100300A
:1000E800F300F4000A128A117D210A128A1173089A
:1000F8008312031388000A128A1134220A128A1101
:10010800033083120313B2000830B1007630B00018
:10011800B00B8C28B10B8C28B20B8C280000013056
:1001280083120313B000300886070A128A11DE21F1
:100138000A128A112E280A128A110C280030F70098
:100148000030F6000030F5000030F400831203138D
:1001580023082204210420040319B328B428012900
:10016800F801F80AC4280130F3000310A00DA10D0E
:10017800A20DA30DF30BB9280130F3007308F8079B
:10018800A31FC728C828B7280130F3000310F40DAF
:10019800F50DF60DF70DF30BCA2823082702031DEA
:1001A800DF2822082602031DDF2821082502031D57
:1001B800DF2820082402031CE228E328F22820086C
:1001C800A4022108031C210FA5022208031C220FE8
:1001D800A6022308031C230FA7027414013003107E
:1001E800A30CA20CA10CA00CFF3E031DF3280130A8
:1001F800F802031D00290129C8287708A3007608FA
:10020800A2007508A1007408A00008008316031353
:100218009101831203132808AC002908AD002A08AD
:10022800AE002B08AF0002300310AC0DAD0DAE0DC3
:10023800AF0DFF3E031D18292F08A3002E08A200AA
:100248002D08A1002C08A0000030A7007A30A600D5
:100258001230A5000030A4000A128A11A2200A1246
:100268008A11831203132008FF3E83160313930099
:100278009401871507162830831203139400080089
:10028800831603178801831603138501831203134A
:1002980085018316031789018316031386018312C8
:1002A800031386018316031387018312031387013F
:1002B8008316031307138801831203138801831617
:1002C8000313890183120313890183160313091089
:1002D8008911003083120313AB000130AA00863065
:1002E800A900A030A8000A128A110A210A128A114C
:1002F80008000A128A11FD210A128A1183160313B3
:1003080091150A128A11FD210A128A118312031308
:100318001308F500F6017508F7007608F8000A12C8
:100328008A11FD210A128A1173037404031D9D2981
:100338009E29A229831603139112A5298316031354
:10034800911611167808F4007708F30008001930A0
:1003580083160313990098131813981618129811F6
:100368001815981018108312031398171813981259
:10037800181698111811981018108C128316031358
:100388008C16831203130C1208000B1DCC29CD29DF
:10039800D7290B1164308312031381007908013EB9
:1003A800F0007008F90072088A00710E8300FE0ED2
:1003B8007E0E090033307902031CE329E429EF2972
:1003C80083120313091CE929EA29ED290910F90107
:1003D800EF290914EB2908008316031381138112EE
:1003E80081110111811401106430831203138100FB
:1003F8000800831603131419022A032AFD29110879
:100408001F39031D082A092AFD2908008B170B1715
:100418008B160B128B110B118B100B1083160313F9
:1004280096010800831603130F178F160F128F11EA
:100438000F118F140F100800F300730883120313B1
:1004480099000C1E282A292A252A08000A128A112E
:10045800FD210A128A1173088312031393000800FE
:100468000A128A11FD210A128A1183160313111523
:1004780008000A128A11FD210A128A118316031331
:10048800111408000A128A11AB210A128A110800F5
:04400E00D420FF3F7C
:00000001FF
