:020000040000FA
:060000000A128A110C280F
:10000800FE00030EF0000A08F1000A128A157E2B82
:100018000A128A110F28FA01FB0183120313E70160
:10002800E80183010A128A1119280A128A11CF27B6
:100038000A128A110A128A11F5270A128A110A125B
:100048008A15B2220A128A110A128A15BE220A12C7
:100058008A110A128A1588220A128A110A128A1526
:10006800A6250A128A110A128A15D9220A128A1199
:10007800003083120313E2000030E1002530E00075
:100088008030DF000A128A1563240A128A110A12C4
:100098008A1549230A128A1100300A128A15E523A3
:1000A8000A128A1183120313E300E40100300A12D2
:1000B8008A15E5230A128A1183120313E500E60163
:1000C8006508E600E5016308650483160313A800C4
:1000D800831203136408660483160313A90000300F
:1000E8000A128A15E5230A128A1183120313E30000
:1000F800E40100300A128A15E5230A128A118312D4
:100108000313E500E6016508E600E50163086504F8
:1001180083160313AA008312031364086604831664
:100128000313AB0000300A128A15E5230A128A115C
:1001380083120313E300E40100300A128A15E52351
:100148000A128A1183120313E500E6016508E60026
:10015800E5016308650483160313AC0083120313D7
:100168006408660483160313AD0000300A128A156A
:10017800E5230A128A1100300A128A15E5230A12A9
:100188008A1100300A128A15E5230A128A1183128D
:100198000313E300E40100300A128A15E5230A126A
:1001A8008A1183120313E500E6016508E600E501FC
:1001B8006308650483160313A200831203136408FB
:1001C800660483160313A30000300A128A15E52378
:1001D8000A128A1183120313E300E40100300A12A1
:1001E8008A15E5230A128A1183120313E500E60132
:1001F8006508E600E5016308650483160313A40097
:10020800831203136408660483160313A5000130E0
:100218000A128A15E5230A128A1183120313E300CE
:10022800E40100300A128A15E5230A128A118312A2
:100238000313E500E6016508E600E50163086504C7
:1002480083160313A6008312031364086604831637
:100258000313A7000A128A15CB220A128A1100304A
:10026800F2000130F300831603132908F50028086B
:10027800F4000A128A15C1240A128A11720883121C
:100288000313E300630883160313AE000030F20083
:100298000130F3002B08F5002A08F4000A128A1529
:1002A800C1240A128A11720883120313E300630837
:1002B80083160313AF000030F2000130F3002D085D
:1002C800F5002C08F4000A128A15C1240A128A11B2
:1002D800720883120313E300630883160313B00044
:1002E8002E0883120313E30001300310E30DFF3ED1
:1002F800031D79290310630DE400640883160313B2
:10030800AE002F0883120313E30001300310E30D3E
:10031800FF3E031D8A290310630DE4006408831659
:100328000313AF00300883120313E30001300310F6
:10033800E30DFF3E031D9B290310630DE4006408D1
:1003480083160313B000E830F2000330F3002E08E0
:1003580083120313E300E4016308F4006408F50062
:100368000A128A15C1240A128A1172088312031309
:10037800E500650883160313B100E830F200033086
:10038800F3002E0883120313E300E4016308F4006A
:100398006408F5000A128A150A240A128A117208DA
:1003A80083120313E500650883160313B60064304F
:1003B800F2000030F300360883120313E300E4016F
:1003C8006308F4006408F5000A128A15C1240A12A9
:1003D8008A11720883120313E50065088316031354
:1003E800B2006430F2000030F300360883120313C1
:1003F800E300E4016308F4006408F5000A128A15B2
:100408000A240A128A11720883120313E500650888
:1004180083160313B7000A30F2000030F3003708E0
:1004280083120313E300E4016308F4006408F50091
:100438000A128A15C1240A128A1172088312031338
:10044800E500650883160313B3000A30F200003094
:10045800F300370883120313E300E4016308F40090
:100468006408F5000A128A150A240A128A11720809
:1004780083120313E500650883160313B4003408D8
:1004880083120313E300630883160313B500413096
:100498000A128A15A8220A128A1178300A128A15B5
:1004A800A8220A128A113D300A128A15A8220A12B5
:1004B8008A1120300A128A15A8220A128A11831674
:1004C80003133108303E0A128A15A8220A128A112B
:1004D800831603133208303E0A128A15A8220A121C
:1004E8008A112E300A128A15A8220A128A11831636
:1004F80003133308303E0A128A15A8220A128A11F9
:10050800831603133508303E0A128A15A8220A12E8
:100518008A1120300A128A15A8220A128A1120305C
:100528000A128A15A8220A128A11E830F20003304A
:10053800F300831603132F0883120313E300E40167
:100548006308F4006408F5000A128A15C1240A1227
:100558008A11720883120313E500650883160313D2
:10056800B100E830F2000330F3002F0883120313C0
:10057800E300E4016308F4006408F5000A128A1530
:100588000A240A128A11720883120313E500650807
:1005980083160313B6006430F2000030F300360807
:1005A80083120313E300E4016308F4006408F50010
:1005B8000A128A15C1240A128A11720883120313B7
:1005C800E500650883160313B2006430F2000030BA
:1005D800F300360883120313E300E4016308F40010
:1005E8006408F5000A128A150A240A128A11720888
:1005F80083120313E500650883160313B7000A3056
:10060800F2000030F300370883120313E300E4011B
:100618006308F4006408F5000A128A15C1240A1256
:100628008A11720883120313E50065088316031301
:10063800B3000A30F2000030F300370883120313C6
:10064800E300E4016308F4006408F5000A128A155F
:100658000A240A128A11720883120313E500650836
:1006680083160313B400340883120313E3006308EA
:1006780083160313B50041300A128A15A8220A12FC
:100688008A1179300A128A15A8220A128A113D3075
:100698000A128A15A8220A128A1120300A128A150B
:1006A800A8220A128A11831603133108303E0A124F
:1006B8008A15A8220A128A11831603133208303EBB
:1006C8000A128A15A8220A128A112E300A128A15CD
:1006D800A8220A128A11831603133308303E0A121D
:1006E8008A15A8220A128A11831603133508303E88
:1006F8000A128A15A8220A128A1120300A128A15AB
:10070800A8220A128A1120300A128A15A8220A126F
:100718008A11E830F2000330F3008316031330081F
:1007280083120313E300E4016308F4006408F5008E
:100738000A128A15C1240A128A1172088312031335
:10074800E500650883160313B100E830F2000330B2
:10075800F300300883120313E300E4016308F40094
:100768006408F5000A128A150A240A128A11720806
:1007780083120313E500650883160313B60064307B
:10078800F2000030F300360883120313E300E4019B
:100798006308F4006408F5000A128A15C1240A12D5
:1007A8008A11720883120313E50065088316031380
:1007B800B2006430F2000030F300360883120313ED
:1007C800E300E4016308F4006408F5000A128A15DE
:1007D8000A240A128A11720883120313E5006508B5
:1007E80083160313B7000A30F2000030F30037080D
:1007F80083120313E300E4016308F4006408F500BE
:100808000A128A15C1240A128A1172088312031364
:10081800E500650883160313B3000A30F2000030C0
:10082800F300370883120313E300E4016308F400BC
:100838006408F5000A128A150A240A128A11720835
:1008480083120313E500650883160313B400340804
:1008580083120313E300630883160313B5004130C2
:100868000A128A15A8220A128A117A300A128A15DF
:10087800A8220A128A113D300A128A15A8220A12E1
:100888008A1120300A128A15A8220A128A118316A0
:1008980003133108303E0A128A15A8220A128A1157
:1008A800831603133208303E0A128A15A8220A1248
:1008B8008A112E300A128A15A8220A128A11831662
:1008C80003133308303E0A128A15A8220A128A1125
:1008D800831603133508303E0A128A15A8220A1215
:1008E8008A1120300A128A15A8220A128A11203089
:1008F8000A128A15A8220A128A110A300A128A15BF
:10090800A8220A128A114B280A128A110C2883126B
:10091800031343088039C8004808D0004308C800BA
:100928004807C9004908D200C21F9B2C9C2C9D2C4B
:10093800521452080319A12CA22CB22C520A031DDE
:10094800A62CA72CAF2C0030C3000030C20000300A
:10095800C1000030C000C217C301BA2C0030C30068
:100968000030C2000030C1000030C00047088039A4
:10097800C8004808D100510850060319C42CC52CDA
:10098800C62C50174708C8004807C9004908D100B5
:10099800C61FCF2CD02CD12C511451080319D52C9B
:1009A800D62CE62C510A031DDA2CDB2CE32C003064
:1009B800C7000030C6000030C5000030C400C617AC
:1009C800C701EE2C0030C7000030C6000030C5005B
:1009D8000030C400520851020318F32CF42C382DAF
:1009E800501FF72CF82CFC2C8030C8004808D00683
:1009F8005208C8004808D3005108C8004808D20067
:100A08005308C8004808D1004008C8004808D30067
:100A18004408C8004808C0005308C8004808C40073
:100A28004108C8004808D3004508C8004808C10064
:100A38005308C8004808C5004208C8004808D30041
:100A48004608C8004808C2005308C8004808C6003D
:100A58004308C8004808D3004708C8004808C3002E
:100A68005308C8004808C700D3015108C800C90185
:100A78004908CB0052084802CA00031CCB034B08A4
:100A8800803AFF0080307F02031D4C2D1A304A0245
:100A9800031C4F2D502D8D2D831203134308420440
:100AA80041044004031D592D5B2D01305C2D00309D
:100AB800C8004808D3000030C3000030C20000302E
:100AC800C1000030C0005108C8004808D200952D68
:100AD800531C6F2D702D792D5308C8000310480C36
:100AE8000138C9004908D3007B2D0310D30C401CE2
:100AF8007E2D7F2D802DD3170130C800430DC30CE8
:100B0800C20CC10CC00CC80B822D0130C8004808AB
:100B1800D2078312031351085202031C942D952DFA
:100B28006C2D501B982D992DE42D5208031D9D2DD9
:100B38009E2DA72D0030C3000030C2000030C10038
:100B48000030C000122F4408C007450803110318DD
:100B5800013E0319B02DC107460803110318013ED1
:100B68000319B72DC207470803110318013E0319DB
:100B7800BE2DC307431CC12DC22D982E531CC52D55
:100B8800C62DCF2D5308C8000310480C0138C900E2
:100B98004908D300D12D0310D30C401CD42DD52DDA
:100BA800D62DD3170130C800430DC30CC20CC10C9D
:100BB800C00CC80BD82D0130C8004808D207982EA1
:100BC8004308803AFF004708803A7F02031DF62D4C
:100BD80046084202031DF62D45084102031DF62D65
:100BE800440840020318F92DFA2D522EFF30C80090
:100BF800FF30C900FF30CA00FF30CB004408CC00EA
:100C08004508CD004608CE004708CF004008CC0272
:100C18004108031C410F112E122ECD024208031C5D
:100C2800420F172E182ECE024308031C430F1D2E09
:100C38001E2ECF024C08C8074D0803184D0F252E4D
:100C4800262EC9074E0803184E0F2B2E2C2ECA0726
:100C58004F0803184F0ACB074B08C3004A08C200C5
:100C68004908C1004808C0008030C8004808D006BC
:100C7800D309D30A5308031D422E432E602E013098
:100C8800C007003003180130C107003003180130D5
:100C9800C207003003180130C307602E4408C002A1
:100CA8004508031C450FC1024608031C460FC20233
:100CB8004708031C470FC302430842044104400489
:100CC800031D672E682E942E5308031D6C2E6D2E5F
:100CD800942E0030C3000030C2000030C100003044
:100CE800C000122F0130C8000310C00DC10DC20D85
:100CF800C30DC80B782ED31F822E832E842E40144A
:100D0800531C872E882E8B2E0314D30D8D2E031083
:100D1800D30D52080319912E922E942E0130D2022F
:100D2800C21F972E982E762ED101D31F9C2E9D2E52
:100D3800AB2E53087F390319A22EA32EA62ED1015C
:100D4800D10AAB2E401CA92EAA2EAB2EA32E5108D9
:100D58000319AF2EB02EE42E0130C007003003185F
:100D68000130C107003003180130C20700300318F2
:100D78000130C307431CC12EC22EE42E4008C80010
:100D88004108C9004208CA004308CB000130CC0022
:100D98004B0DCB0CCA0CC90CC80CCC0BCC2E4B0879
:100DA800C3004A08C2004908C1004808C000520AE6
:100DB8000319DF2EE02EE42E0130C8004808D207C0
:100DC800520A0319E82EE92EEE2E5208031DED2EC5
:100DD800EE2EFC2E0030C3000030C2000030C100EF
:100DE8000030C0005208031DFA2EFB2EFC2ED00145
:100DF800521CFF2E002F022FC217062F7F30C8006B
:100E08004808C2055208C8000310480CC900490820
:100E1800C300D01F102F112F122FC31708008312E1
:100E28000313A000200803191A2F1B2F2F2FF51FBB
:100E38001E2F1F2F2F2F7209A2007309A3007409F8
:100E4800A4007509A500A20A0319A30A0319A40A94
:100E58000319A50A372F7508A5007408A40073089C
:100E6800A3007208A2007508740473047204031DB9
:100E78003E2F3F2F482F0030F5000030F40000309F
:100E8800F3000030F200CE2F9630F6007608A1006D
:100E98005A2F0130F6007608A10701300310A50C7F
:100EA800A40CA30CA20CFF3E031D522FFE302505F7
:100EB800031D5F2F602F4D2F7C2F0130F600760821
:100EC800A1070130A207003003180130A307003042
:100ED80003180130A407003003180130A5070130BA
:100EE8000310A50CA40CA30CA20CFF3E031D742F29
:100EF800FF302505031D812F822F612F8E2F013092
:100F0800A1020130F6000310A20DA30DA40DA50D3A
:100F1800F60B872FA41B912F922F982F02302102B6
:100F28000318972F982F832F21189B2F9C2FA42FBE
:100F3800FF30A205FF30A3057F30A405FF30A505CB
:100F48000310A10C2108F600F701F801F901183087
:100F58000310F60DF70DF80DF90DFF3E031DAC2F2C
:100F68007608A2047708A3047808A4047908A504DD
:100F780020080319C02FC12FC62FF51FC42FC52F56
:100F8800C62FA5172508F5002408F4002308F30048
:100F98002208F2000800831603178801831603133A
:100FA80085018312031385018316031789018316AC
:100FB8000313860183120313860183160313870123
:100FC80083120313870183160313071388018312FF
:100FD80003138801831603138901831203138901FC
:100FE8000800831603130F178F160F168F110F1192
:060FF8008F140F10080029
:101510000A128A1562230A128A150800831203131D
:101520008C1D932A942A8E2A8C110800831603138B
:1015300091121116111A9D2A9E2A9A2A08008316C2
:10154000031391161116111AA62AA72AA32A080016
:10155000F20072088312031399000C1EB02AB12AFC
:10156000AD2A08008B170B178B160B128B110B1162
:101570008B100B10831603139601080083160313B8
:1015800081138112811101118114011064308312C1
:101590000313810008008316031311151119D12AB2
:1015A000D22ACE2A831203138C1183160313140834
:1015B0000800831603130614861450309400283054
:1015C00083120313940083160313910113309300C5
:1015D0008C15831203138C110800F2007208831219
:1015E000031393000A128A158E220A128A15831693
:1015F0000313111FFC2AFD2AFF2A0130002B0230A1
:1016000008000330831203136802E93003196702EC
:10161000031C0B2B0C2B162B091C0F2B102B142B24
:101620000910E701E801162B0914112B0800F3003B
:1016300083160313911491181E2B1F2B1B2B83123F
:1016400003138C11831603139419272B282B292B92
:101650002F2B73080A128A15ED220A128A15080028
:10166000F3008316031311141118372B382B342B66
:10167000831203138C11831603139419402B412BEF
:10168000422B482B73080A128A15ED220A128A157A
:101690000800D0300A128A1530230A128A153B300E
:1016A0000A128A15ED220A128A15D1300A128A15F9
:1016B00017230A128A1500300A128A15E5230A1226
:1016C0008A15080083160313981318139816181216
:1016D00098111811981018108312031398171813E3
:1016E0009812181698111811981018108C12831649
:1016F00003138C16831203130C1208000B1D812B8D
:10170000822B942B0B116430831203138100670822
:10171000013EE70068080318013E003EE8000A1297
:101720008A1501230A128A1571088A00700E830037
:10173000FE0E7E0E0900F300831603131114111818
:10174000A22BA32B9F2B831203138C11831603133D
:101750009419AB2BAC2BAD2B9C2B73080A128A155A
:10176000ED220A128A1583160313111FB82BB92B09
:10177000BF2B0A128A15CB220A128A159C2B08004D
:10178000F401F501DA2BF601F7010130F607031831
:10179000F70A0030F70700307702A5300319760208
:1017A000031CD32BD42BC52B0130F4070318F50AE7
:1017B0000030F50775087302031DE02B74087202F0
:1017C0000318E32BE42BC32B0800F3008316031349
:1017D0009115141CEC2BED2BE92B8312031313082A
:1017E000F2007208F4007308031DF72BF82BFE2B90
:1017F0000A128A1596220A128A15032C0A128A15D1
:101800009F220A128A150A128A158E220A128A1536
:1018100074080800F801F51F0E2C0F2C162CF40983
:10182000F509F40A0319F50AF801F80AF31F192C4F
:101830001A2C1F2CF209F309F20A0319F30A720891
:1018400073040319242C252C542CF701F70A332C8C
:1018500001300310F20DF30DFF3E031D292C013062
:10186000F6007608F707F31F362C372C282C730860
:101870007502031D3D2C72087402031C402C412C80
:10188000472C7208F4027308031CF503F5020130BB
:101890000310F30CF20CFF3E031D482C0130F7023D
:1018A000031D532C542C372C78080319582C592C11
:1018B0005E2CF409F509F40A0319F50A7508F3001A
:1018C0007408F200080083160313071387174730C4
:1018D00083120313AD00F430AC002430AB000030B1
:1018E000AA006208F5006108F4006008F3005F08D0
:1018F000F20001300A128A1113270A128A1575089C
:1019000083120313A9007408A8007308A7007208C3
:10191000A6000A128A1523260A128A1583120313B7
:101920002908C7002808C6002708C5002608C400E3
:10193000BF30C3008030C2000030C1000030C000A2
:101940000A128A118B240A128A1583120313430880
:10195000D7004208D6004108D5004008D4000A123A
:101960008A152A250A128A1583120313540883162E
:1019700003139900203098009030831203139800CD
:10198000080083120313A101F31FC72CC82CCF2C0E
:10199000F209F309F20A0319F30AA101A10AF51FDA
:1019A000D22CD32CDC2CF409F509F40A0319F50A1E
:1019B0000130F6007608A106A201A30172087304A3
:1019C0000319E32CE42C1B2DA001A00AF22C0130FA
:1019D0000310F20DF30DFF3E031DE82C0130F6005D
:1019E0007608A007F31FF52CF62CE72C0130031026
:1019F000A20DA30DFF3E031DF72C73087502031DF6
:101A0000032D72087402031C062D072D0E2D72087B
:101A1000F4027308031CF503F502221401300310CD
:101A2000F30CF20CFF3E031D0F2D0130A002031D2D
:101A30001A2D1B2DF62C210803191F2D202D252DC5
:101A4000A209A309A20A0319A30A2308F300220882
:101A5000F2000800031083120313560D570DD8002F
:101A60005808DE005E08031D362D372D402D00304E
:101A7000D7000030D6000030D5000030D400A52DAE
:101A80005408D8005508D9005608DA005708DB007A
:101A90001F300310DB0CDA0CD90CD80CFF3E031DF1
:101AA000492D5808DC005C08DD00D617FF30D4054E
:101AB000FF30D505FF30D6050030D7059630DE0261
:101AC000DE1F632D642D7E2D5E08803A973E03183D
:101AD0006A2D6B2D6C2D372D01300310D70CD60CD1
:101AE000D50CD40CFF3E031D6D2D0130D8005808D5
:101AF000DE07031D7C2D7D2D6C2D952D20305E0283
:101B0000031C832D842D902D372D0130D800031018
:101B1000D40DD50DD60DD70DD80B872D0130DE0293
:101B20005E08031D942D952D852D5D080319992DB3
:101B30009A2DA52DD409D509D609D709D40A031998
:101B4000D50A0319D60A0319D70A08009630F200FD
:101B50000030F3000A128A15C0230A128A15D03009
:101B60000A128A159B230A128A1519300A128A153D
:101B7000ED220A128A1507300A128A15ED220A127E
:101B80008A150A128A15CB220A128A15D0300A1237
:101B90008A159B230A128A156B300A128A15ED22C8
:101BA0000A128A1501300A128A15ED220A128A15C4
:101BB0000A128A15CB220A128A15D0300A128A1507
:101BC0009B230A128A151A300A128A15ED220A126C
:101BD0008A1500300A128A15ED220A128A150A1295
:101BE0008A15CB220A128A15D0300A128A159B2335
:101BF0000A128A151B300A128A15ED220A128A155A
:101C000018300A128A15ED220A128A150A128A154C
:101C1000CB220A128A15D0300A128A159B230A1287
:101C20008A1538300A128A15ED220A128A150130F7
:101C30000A128A15ED220A128A150A128A15CB2277
:101C40000A128A150800831203132D088039AE008A
:101C50002E08B7002D08AE002E07AF002F08BE00DB
:101C6000AC1F332E342E352E3E143E080319392E68
:101C70003A2E4A2E3E0A031D3E2E3F2E472E00309E
:101C8000AD000030AC000030AB000030AA00AC1753
:101C9000AD01522E0030AD000030AC000030AB0082
:101CA0000030AA0029088039AE002E08B70629089E
:101CB000AE002E07AF002F08BF00A81F602E612EB8
:101CC000622E3F143F080319662E672E772E3F0AB7
:101CD000031D6B2E6C2E742E0030A9000030A8005E
:101CE0000030A7000030A600A817A9017F2E003001
:101CF000A9000030A8000030A7000030A600290885
:101D0000280427042604031D862E872EA02E0030CB
:101D1000AD000030AC000030AB000030AA008030D5
:101D2000AC047F30AD043708AE002E08AD042D089A
:101D3000A9002C08A8002B08A7002A08A600FF2F3E
:101D40003E08031DA42EA52EAE2E0030A9000030A3
:101D5000A8000030A7000030A600FF2F3E08AE000C
:101D6000AF012F08B1003F082E02B000031CB103E1
:101D700030087F3EB80031080318013E003EB9002C
:101D80002D08B6002C08B5002B08B4002A08B300B3
:101D90000030AD000030AC000030AB000030AA00D5
:101DA0000030BD000030BC000030BB000030BA0085
:101DB000BF01242F3F080319DE2EDF2EFF2E013036
:101DC000AE000310B30DB40DB50DB60DAE0BE12E84
:101DD0000130AE000310AA0DAB0DAC0DAD0DAE0B76
:101DE000EA2EBD1FF42EF52EF62E2A140130AE0079
:101DF0000310BA0DBB0DBC0DBD0DAE0BF82E29089E
:101E00003602031D0D2F28083502031D0D2F27084C
:101E10003402031D0D2F26083302031C102F112F2F
:101E2000202F3D172608B3022708031C270FB402F2
:101E30002808031C280FB5022908031C290FB60225
:101E40000130AE002E08BF071A303F02031C292FB5
:101E50002A2FDA2E36083504340433040319312FBF
:101E6000322F512F3A14512F0130AE000310AA0D1A
:101E7000AB0DAC0DAD0DAE0B362FBD1F402F412F5E
:101E8000422F2A140130AE000310BA0DBB0DBC0D59
:101E9000BD0DAE0B442FFF30B8070318B90AFF3051
:101EA000B907AC1F542F552F342FBF01BD1F592F19
:101EB0005A2F762FFF303A05AE00FF303B05AF00BA
:101EC000FF303C05B0007F303D05B10031083004E3
:101ED0002F042E0403196D2F6E2F712FBF01BF0A1F
:101EE000762F2A1C742F752F762F6E2F3F0803191B
:101EF0007A2F7B2FAC2F0130AA0700300318013056
:101F0000AB07003003180130AC0700300318013074
:101F1000AD072D1C8C2F8D2FAC2F2A08AE002B085F
:101F2000AF002C08B0002D08B1000130B200310D17
:101F3000B10CB00CAF0CAE0CB20B972F3108AD004A
:101F40003008AC002F08AB002E08AA000130B807FB
:101F50000318B90A0030B9073908803AFF00803009
:101F60007F02031DB52FFF303802031CB82FB92F95
:101F7000C72FFF3083120313B8000030B9000030C0
:101F8000AD000030AC000030AB000030AA0083127E
:101F900003133908803AFF0080307F02031DD22FDF
:101FA000013038020318D52FD62FE32F83120313E5
:101FB000B801B9010030AD000030AC000030AB001A
:101FC0000030AA00B701831203133808AE002E08B0
:101FD000BE003E1CEC2FED2FEF2FAC17F32F7F3000
:101FE000AE002E08AC053E08AE0003102E0CAF006C
:101FF0002F08AD003708AE002E08AD04972E08005C
:04400E00D420FF3F7C
:00000001FF
