:020000040000FA
:100000000A128A11FC2F8316031391161116111A66
:100010000A280B2807280800D0300A128A151A244B
:100020000A128A113B300A128A15ED230A128A112C
:10003000D1300A128A1501240A128A1100300A12DC
:100040008A1564240A128A1108009630F0000030E4
:10005000F1000A128A153F240A128A11D0300A12BE
:100060008A151A240A128A1119300A128A15ED23E8
:100070000A128A1107300A128A15ED230A128A1110
:100080000A128A15CB230A128A11D0300A128A1555
:100090001A240A128A116B300A128A15ED230A12E9
:1000A0008A1101300A128A15ED230A128A110A12E6
:1000B0008A15CB230A128A11D0300A128A151A2403
:1000C0000A128A111A300A128A15ED230A128A11AD
:1000D00000300A128A15ED230A128A110A128A15B3
:1000E000CB230A128A11D0300A128A151A240A1256
:1000F0008A111B300A128A15ED230A128A11183050
:100100000A128A15ED230A128A110A128A15CB23C4
:100110000A128A11D0300A128A151A240A128A1178
:1001200038300A128A15ED230A128A1101300A1298
:100130008A15ED230A128A110A128A15CB230A1294
:100140008A110800F80078080319A728A828BC28F5
:10015000F31FAB28AC28BC287009FA007109FB001A
:100160007209FC007309FD00FA0A0319FB0A03195E
:10017000FC0A0319FD0AC4287308FD007208FC007C
:100180007108FB007008FA007308720471047004AF
:10019000031DCB28CC28D5280030F3000030F20016
:1001A0000030F1000030F0005B299630F400740854
:1001B000F900E7280130F4007408F9070130031052
:1001C000FD0CFC0CFB0CFA0CFF3E031DDF28FE307F
:1001D0007D05031DEC28ED28DA2809290130F400FB
:1001E0007408F9070130FA07003003180130FB07E3
:1001F000003003180130FC07003003180130FD0700
:1002000001300310FD0CFC0CFB0CFA0CFF3E031D2F
:100210000129FF307D05031D0E290F29EE281B291A
:100220000130F9020130F4000310FA0DFB0DFC0D52
:10023000FD0DF40B1429FC1B1E291F292529023052
:100240007902031824292529102979182829292910
:100250003129FF30FA05FF30FB057F30FC05FF3008
:10026000FD050310F90C7908F400F501F601F7011A
:1002700018300310F40DF50DF60DF70DFF3E031DBC
:1002800039297408FA047508FB047608FC04770819
:10029000FD04780803194D294E295329F31F5129CC
:1002A00052295329FD177D08F3007C08F2007B08D2
:1002B000F1007A08F0000800831203133D0880392A
:1002C000C2004208CA003D08C2004207C3004308FA
:1002D000CC00BC1F6C296D296E294C144C080319E5
:1002E0007229732983294C0A031D772978298029CB
:1002F0000030BD000030BC000030BB000030BA0050
:10030000BC17BD018B290030BD000030BC0000309F
:10031000BB000030BA0041088039C2004208CB005F
:100320004B084A0603199529962997294A17410827
:10033000C2004207C3004308CB00C01FA029A12967
:10034000A2294B144B080319A629A729B7294B0A40
:10035000031DAB29AC29B4290030C1000030C00016
:100360000030BF000030BE00C017C101BF290030FF
:10037000C1000030C0000030BF000030BE004C089B
:100380004B020318C429C529092A4A1FC829C929AB
:10039000CD298030C2004208CA064C08C20042087B
:1003A000CD004B08C2004208CC004D08C2004208F4
:1003B000CB003A08C2004208CD003E08C200420805
:1003C000BA004D08C2004208BE003B08C200420805
:1003D000CD003F08C2004208BB004D08C2004208E1
:1003E000BF003C08C2004208CD004008C2004208DD
:1003F000BC004D08C2004208C0003D08C2004208CF
:10040000CD004108C2004208BD004D08C2004208AC
:10041000C100CD014B08C200C3014308C5004C0810
:100420004202C400031CC5034508803AFF00803027
:100430007F02031D1D2A1A304402031C202A212A90
:100440005E2A831203133D083C043B043A04031D57
:100450002A2A2C2A01302D2A0030C2004208CD0061
:100460000030BD000030BC000030BB000030BA00DE
:100470004B08C2004208CC00662A4D1C402A412A83
:100480004A2A4D08C2000310420C0138C300430839
:10049000CD004C2A0310CD0C3A1C4F2A502A512A69
:1004A000CD170130C2003D0DBD0CBC0CBB0CBA0C0D
:1004B000C20B532A0130C2004208CC078312031337
:1004C0004B084C02031C652A662A3D2A4A1B692AEE
:1004D0006A2AB52A4C08031D6E2A6F2A782A003032
:1004E000BD000030BC000030BB000030BA00E32B80
:1004F0003E08BA073F0803110318013E0319812A79
:10050000BB07400803110318013E0319882ABC07E2
:10051000410803110318013E03198F2ABD073D1C32
:10052000922A932A692B4D1C962A972AA02A4D08B5
:10053000C2000310420C0138C3004308CD00A22AB8
:100540000310CD0C3A1CA52AA62AA72ACD170130E4
:10055000C2003D0DBD0CBC0CBB0CBA0CC20BA92AD1
:100560000130C2004208CC07692B3D08803AFF00E9
:100570004108803A7F02031DC72A40083C02031D40
:10058000C72A3F083B02031DC72A3E083A02031848
:10059000CA2ACB2A232BFF30C200FF30C300FF3012
:1005A000C400FF30C5003E08C6003F08C700400831
:1005B000C8004108C9003A08C6023B08031C3B0FAB
:1005C000E22AE32AC7023C08031C3C0FE82AE92A76
:1005D000C8023D08031C3D0FEE2AEF2AC902460857
:1005E000C20747080318470FF62AF72AC307480827
:1005F0000318480FFC2AFD2AC40749080318490AB2
:10060000C5074508BD004408BC004308BB004208BC
:10061000BA008030C2004208CA06CD09CD0A4D0892
:10062000031D132B142B312B0130BA070030031894
:100630000130BB07003003180130BC07003003183D
:100640000130BD07312B3E08BA023F08031C3F0FA3
:10065000BB024008031C400FBC024108031C410FB1
:10066000BD023D083C043B043A04031D382B392BE2
:10067000652B4D08031D3D2B3E2B652B0030BD0027
:100680000030BC000030BB000030BA00E32B01306A
:10069000C2000310BA0DBB0DBC0DBD0DC20B492B22
:1006A000CD1F532B542B552B3A144D1C582B592B23
:1006B0005C2B0314CD0D5E2B0310CD0D4C080319DC
:1006C000622B632B652B0130CC02BC1F682B692B7E
:1006D000472BCB01CD1F6D2B6E2B7C2B4D087F390B
:1006E0000319732B742B772BCB01CB0A7C2B3A1C71
:1006F0007A2B7B2B7C2B742B4B080319802B812BA3
:10070000B52B0130BA07003003180130BB070030A9
:1007100003180130BC07003003180130BD073D1C31
:10072000922B932BB52B3A08C2003B08C3003C0820
:10073000C4003D08C5000130C600450DC50CC40C01
:10074000C30CC20CC60B9D2B4508BD004408BC0061
:100750004308BB004208BA004C0A0319B02BB12B66
:10076000B52B0130C2004208CC074C0A0319B92B43
:10077000BA2BBF2B4C08031DBE2BBF2BCD2B00303B
:10078000BD000030BC000030BB000030BA004C0897
:10079000031DCB2BCC2BCD2BCA014C1CD02BD12B2A
:1007A000D32BBC17D72B7F30C2004208BC054C08A6
:1007B000C2000310420CC3004308BD00CA1FE12B56
:1007C000E22BE32BBD1708007230831603138F0052
:1007D0000A128A15D9230A128A110A128A112520AF
:1007E0000A128A11003083120313DC000030DB0090
:1007F0002530DA008030D9000A128A15E2240A1264
:100800008A110A128A110C200A128A1100300A1267
:100810008A1564240A128A1183120313DD00DE0193
:1008200000300A128A1564240A128A1183120313F3
:10083000DF00E0015F08E000DF015D085F04831670
:100840000313A800831203135E08600483160313C6
:10085000A90000300A128A1564240A128A11831230
:100860000313DD00DE0100300A128A1564240A1227
:100870008A1183120313DF00E0015F08E000DF014B
:100880005D085F0483160313AA00831203135E0836
:10089000600483160313AB0000300A128A15642427
:1008A0000A128A1183120313DD00DE0100300A12DE
:1008B0008A1564240A128A1183120313DF00E001EF
:1008C0005F08E000DF015D085F0483160313AC00DE
:1008D000831203135E08600483160313AD00003017
:1008E0000A128A1564240A128A1100300A128A1523
:1008F00064240A128A1100300A128A1564240A122A
:100900008A1100300A128A1564240A128A110030F2
:100910000A128A1564240A128A1100300A128A15F2
:1009200064240A128A1100300A128A1564240A12F9
:100930008A1101300A128A1564240A128A110A12D5
:100940008A15CB230A128A110030F0000130F10021
:10095000831603132908F3002808F2000A128A15E7
:1009600040250A128A11700883120313DD005D0806
:1009700083160313AE000030F0000130F1002B08A5
:10098000F3002A08F2000A128A1540250A128A1179
:10099000700883120313DD005D0883160313AF0094
:1009A0000030F0000130F1002D08F3002C08F200B7
:1009B0000A128A1540250A128A117008831203133D
:1009C000DD005D0883160313B0002E0883120313A5
:1009D000DD0001300310DD0DFF3E031DEA2C031086
:1009E0005D0DDE005E0883160313AE002F08831230
:1009F0000313DD0001300310DD0DFF3E031DFB2C52
:100A000003105D0DDE005E0883160313AF0030088F
:100A100083120313DD0001300310DD0DFF3E031DC3
:100A20000C2D03105D0DDE005E0883160313B0006D
:100A3000E830F0000330F1002E0883120313DD00CC
:100A4000DE015D08F2005E08F3000A128A154025F7
:100A50000A128A11700883120313DF005F088316DD
:100A60000313B100E830F0000330F1002E088312C8
:100A70000313DD00DE015D08F2005E08F3000A12D8
:100A80008A1589240A128A11700883120313DF0061
:100A90005F0883160313B6006430F0000030F100E5
:100AA000360883120313DD00DE015D08F2005E08E4
:100AB000F3000A128A1540250A128A11700883125F
:100AC0000313DF005F0883160313B2006430F000E5
:100AD0000030F100360883120313DD00DE015D08EB
:100AE000F2005E08F3000A128A1589240A128A119C
:100AF000700883120313DF005F0883160313B70027
:100B00000A30F0000030F100370883120313DD00D3
:100B1000DE015D08F2005E08F3000A128A15402526
:100B20000A128A11700883120313DF005F0883160C
:100B30000313B3000A30F0000030F10037088312CD
:100B40000313DD00DE015D08F2005E08F3000A1207
:100B50008A1589240A128A11700883120313DF0090
:100B60005F0883160313B400340883120313DD00F7
:100B70005D0883160313B50041300A128A15C1239C
:100B80000A128A1178300A128A15C1230A128A11B0
:100B90003D300A128A15C1230A128A1120300A1226
:100BA0008A15C1230A128A11831603133108303EB5
:100BB0000A128A15C1230A128A11831603133208F6
:100BC000303E0A128A15C1230A128A112E300A12E7
:100BD0008A15C1230A128A11831603133308303E83
:100BE0000A128A15C1230A128A11831603133508C3
:100BF000303E0A128A15C1230A128A1120300A12C5
:100C00008A15C1230A128A1120300A128A15C123BB
:100C10000A128A11E830F0000330F1008316031342
:100C20002F0883120313DD00DE015D08F2005E0869
:100C3000F3000A128A1540250A128A1170088312DD
:100C40000313DF005F0883160313B100E830F000E0
:100C50000330F1002F0883120313DD00DE015D086D
:100C6000F2005E08F3000A128A1589240A128A111A
:100C7000700883120313DF005F0883160313B600A6
:100C80006430F0000030F100360883120313DD00F9
:100C9000DE015D08F2005E08F3000A128A154025A5
:100CA0000A128A11700883120313DF005F0883168B
:100CB0000313B2006430F0000030F10036088312F4
:100CC0000313DD00DE015D08F2005E08F3000A1286
:100CD0008A1589240A128A11700883120313DF000F
:100CE0005F0883160313B7000A30F0000030F100EC
:100CF000370883120313DD00DE015D08F2005E0891
:100D0000F3000A128A1540250A128A11700883120C
:100D10000313DF005F0883160313B3000A30F000EB
:100D20000030F100370883120313DD00DE015D0897
:100D3000F2005E08F3000A128A1589240A128A1149
:100D4000700883120313DF005F0883160313B400D7
:100D5000340883120313DD005D0883160313B50006
:100D600041300A128A15C1230A128A1179300A12F7
:100D70008A15C1230A128A113D300A128A15C1232D
:100D80000A128A1120300A128A15C1230A128A1106
:100D9000831603133108303E0A128A15C1230A1242
:100DA0008A11831603133208303E0A128A15C123B2
:100DB0000A128A112E300A128A15C1230A128A11C8
:100DC000831603133308303E0A128A15C1230A1210
:100DD0008A11831603133508303E0A128A15C1237F
:100DE0000A128A1120300A128A15C1230A128A11A6
:100DF00020300A128A15C1230A128A11E830F00045
:100E00000330F10083160313300883120313DD004F
:100E1000DE015D08F2005E08F3000A128A15402523
:100E20000A128A11700883120313DF005F08831609
:100E30000313B100E830F0000330F10030088312F2
:100E40000313DD00DE015D08F2005E08F3000A1204
:100E50008A1589240A128A11700883120313DF008D
:100E60005F0883160313B6006430F0000030F10011
:100E7000360883120313DD00DE015D08F2005E0810
:100E8000F3000A128A1540250A128A11700883128B
:100E90000313DF005F0883160313B2006430F00011
:100EA0000030F100360883120313DD00DE015D0817
:100EB000F2005E08F3000A128A1589240A128A11C8
:100EC000700883120313DF005F0883160313B70053
:100ED0000A30F0000030F100370883120313DD0000
:100EE000DE015D08F2005E08F3000A128A15402553
:100EF0000A128A11700883120313DF005F08831639
:100F00000313B3000A30F0000030F10037088312F9
:100F10000313DD00DE015D08F2005E08F3000A1233
:100F20008A1589240A128A11700883120313DF00BC
:100F30005F0883160313B400340883120313DD0023
:100F40005D0883160313B50041300A128A15C123C8
:100F50000A128A117A300A128A15C1230A128A11DA
:100F60003D300A128A15C1230A128A1120300A1252
:100F70008A15C1230A128A11831603133108303EE1
:100F80000A128A15C1230A128A1183160313320822
:100F9000303E0A128A15C1230A128A112E300A1213
:100FA0008A15C1230A128A11831603133308303EAF
:100FB0000A128A15C1230A128A11831603133508EF
:100FC000303E0A128A15C1230A128A1120300A12F1
:100FD0008A15C1230A128A1120300A128A15C123E8
:100FE0000A128A110A300A128A15C1230A128A11BA
:100FF000012C0A128A11002883010A128A11E42B9B
:10176000831203138C1DB52BB62BB02B8C110800E4
:101770008316031391121116111ABF2BC02BBC2B09
:101780000800F000831203130C1EC72BC82BC22BBA
:101790007008990008008316031311151119D12B35
:1017A000D22BCE2B831203138C1183160313140830
:1017B0000800831603130614861450309400283052
:1017C00083120313940083160313910113309300C3
:1017D0008C15831203138C110800F000700883121B
:1017E000031393000A128A15B0230A128A1583166E
:1017F0000313111FFC2BFD2BFF2B0130002C02309B
:101800000800F1008316031391149118082C092C79
:10181000052C831203138C11831603139419112CB6
:10182000122C132C192C71080A128A15ED230A1296
:101830008A150800F1008316031311141118212CC6
:10184000222C1E2C831203138C118316031394195C
:101850002A2C2B2C2C2C1B2C71080A128A15ED23F8
:101860000A128A1583160313111F372C382C3E2CAD
:101870000A128A15CB230A128A151B2C0800F201C2
:10188000F301592CF401F5010130F4070318F50AAE
:101890000030F50700307502A53003197402031CEF
:1018A000522C532C442C0130F2070318F30A003059
:1018B000F30773087102031D5F2C7208700203188E
:1018C000622C632C422C0800F1008316031391153F
:1018D000141C6B2C6C2C682C831203131308F0005F
:1018E0007008F2007108031D762C772C7D2C0A12EB
:1018F0008A15B8230A128A15822C0A128A1103202B
:101900000A128A150A128A15B0230A128A15720859
:101910000800F601F31F8D2C8E2C952CF209F3098B
:10192000F20A0319F30AF601F60AF11F982C992C12
:101930009E2CF009F109F00A0319F10A70087104EC
:101940000319A32CA42CD32CF501F50AB22C0130D9
:101950000310F00DF10DFF3E031DA82C0130F40023
:101960007408F507F11FB52CB62CA72C710873026B
:10197000031DBC2C70087202031CBF2CC02CC62C8B
:101980007008F2027108031CF303F3020130031024
:10199000F10CF00CFF3E031DC72C0130F502031DB6
:1019A000D22CD32CB62C76080319D72CD82CDD2CAE
:1019B000F209F309F20A0319F30A7308F100720835
:1019C000F0000800831603130713871747308312AC
:1019D0000313A700F430A6002430A5000030A400B3
:1019E0005C08F3005B08F2005A08F1005908F000A7
:1019F00001300A128A11A2200A128A157308831272
:101A00000313A3007208A2007108A1007008A000CF
:101A10000A128A1523260A128A1583120313230831
:101A2000C1002208C0002108BF002008BE00BF304E
:101A3000BD008030BC000030BB000030BA000A128C
:101A40008A115C210A128A15831203133D08D10002
:101A50003C08D0003B08CF003A08CE000A128A1595
:101A6000A7250A128A15831203134E08831603133F
:101A700099002030980090308312031398000800DA
:101A8000F601F11F442D452D4C2DF009F109F00A06
:101A90000319F10AF601F60AF31F4F2D502D592DA7
:101AA000F209F309F20A0319F30A0130F400740889
:101AB000F606F701F801700871040319602D612D15
:101AC000982DF501F50A6F2D01300310F00DF10D81
:101AD000FF3E031D652D0130F4007408F507F11F6A
:101AE000722D732D642D01300310F70DF80DFF3E9C
:101AF000031D742D71087302031D802D700872027E
:101B0000031C832D842D8B2D7008F2027108031C99
:101B1000F303F302771401300310F10CF00CFF3ED5
:101B2000031D8C2D0130F502031D972D982D732D6B
:101B3000760803199C2D9D2DA22DF709F809F70AA7
:101B40000319F80A7808F1007708F000080003107C
:101B500083120313500D510DD2005208D8005808BB
:101B6000031DB32DB42DBD2D0030D1000030D000A9
:101B70000030CF000030CE00222E4E08D2004F0899
:101B8000D3005008D4005108D5001F300310D50CE5
:101B9000D40CD30CD20CFF3E031DC62D5208D60028
:101BA0005608D700D017FF30CE05FF30CF05FF30E5
:101BB000D0050030D1059630D802D81FE02DE12D98
:101BC000FB2D5808803A973E0318E72DE82DE92DA4
:101BD000B42D01300310D10CD00CCF0CCE0CFF3E35
:101BE000031DEA2D0130D2005208D807031DF92D3C
:101BF000FA2DE92D122E20305802031C002E012E42
:101C00000D2EB42D0130D2000310CE0DCF0DD00D0E
:101C1000D10DD20B042E0130D8025808031D112E0D
:101C2000122E022E57080319162E172E222ECE0919
:101C3000CF09D009D109CE0A0319CF0A0319D00A56
:101C40000319D10A08008312031327088039A8005A
:101C50002808B1002708A8002807A9002908B8000B
:101C6000A61F332E342E352E381438080319392E7A
:101C70003A2E4A2E380A031D3E2E3F2E472E0030A4
:101C8000A7000030A6000030A5000030A400A61771
:101C9000A701522E0030A7000030A6000030A5009A
:101CA0000030A40023088039A8002808B1062308C2
:101CB000A8002807A9002908B900A21F602E612EDC
:101CC000622E391439080319662E672E772E390AC9
:101CD000031D6B2E6C2E742E0030A3000030A2006A
:101CE0000030A1000030A000A217A3017F2E003019
:101CF000A3000030A2000030A1000030A0002308A3
:101D0000220421042004031D862E872EA02E0030DD
:101D1000A7000030A6000030A5000030A4008030ED
:101D2000A6047F30A7043108A8002808A7042708C4
:101D3000A3002608A2002508A1002408A000FF2F68
:101D40003808031DA42EA52EAE2E0030A3000030AF
:101D5000A2000030A1000030A000FF2F3808A8002A
:101D6000A9012908AB0039082802AA00031CAB030B
:101D70002A087F3EB2002B080318013E003EB30044
:101D80002708B0002608AF002508AE002408AD00E3
:101D90000030A7000030A6000030A5000030A400ED
:101DA0000030B7000030B6000030B5000030B4009D
:101DB000B901242F39080319DE2EDF2EFF2E013042
:101DC000A8000310AD0DAE0DAF0DB00DA80BE12EA8
:101DD0000130A8000310A40DA50DA60DA70DA80B9A
:101DE000EA2EB71FF42EF52EF62E24140130A8008B
:101DF0000310B40DB50DB60DB70DA80BF82E2308C2
:101E00003002031D0D2F22082F02031D0D2F210864
:101E10002E02031D0D2F20082D02031C102F112F41
:101E2000202F37172008AD022108031C210FAE0216
:101E30002208031C220FAF022308031C230FB00249
:101E40000130A8002808B9071A303902031C292FCD
:101E50002A2FDA2E30082F042E042D040319312FD7
:101E6000322F512F3414512F0130A8000310A40D2C
:101E7000A50DA60DA70DA80B362FB71F402F412F7C
:101E8000422F24140130A8000310B40DB50DB60D77
:101E9000B70DA80B442FFF30B2070318B30AFF3069
:101EA000B307A61F542F552F342FB901B71F592F31
:101EB0005A2F762FFF303405A800FF303505A900D2
:101EC000FF303605AA007F303705AB002B082A0407
:101ED0002904280403196D2F6E2F712FB901B90A37
:101EE000762F241C742F752F762F6E2F3908031927
:101EF0007A2F7B2FAC2F0130A4070030031801305C
:101F0000A507003003180130A60700300318013080
:101F1000A707271C8C2F8D2FAC2F2408A80025087D
:101F2000A9002608AA002708AB000130AC002B0D41
:101F3000AB0CAA0CA90CA80CAC0B972F2B08A70074
:101F40002A08A6002908A5002808A4000130B20725
:101F50000318B30A0030B3073308803AFF0080301B
:101F60007F02031DB52FFF303202031CB82FB92F9B
:101F7000C72FFF3083120313B2000030B3000030CC
:101F8000A7000030A6000030A5000030A400831296
:101F900003133308803AFF0080307F02031DD22FE5
:101FA000013032020318D52FD62FE32F83120313EB
:101FB000B201B3010030A7000030A6000030A50038
:101FC0000030A400B101831203133208A8002808CE
:101FD000B800381CEC2FED2FEF2FA617F32F7F3012
:101FE000A8002808A6053808A8000310280CA90096
:101FF0002908A7003108A8002808A704972E080080
:04400E00D420FF3F7C
:00000001FF
